{"@fhenixprotocol/contracts/utils/debug/MockFheOps.sol":{"MockFheOps":{"abi":[{"inputs":[{"internalType":"uint8","name":"utype","type":"uint8"},{"internalType":"bytes","name":"lhsHash","type":"bytes"},{"internalType":"bytes","name":"rhsHash","type":"bytes"}],"name":"add","outputs":[{"internalType":"bytes","name":"","type":"bytes"}],"stateMutability":"pure","type":"function"},{"inputs":[{"internalType":"uint8","name":"utype","type":"uint8"},{"internalType":"bytes","name":"lhsHash","type":"bytes"},{"internalType":"bytes","name":"rhsHash","type":"bytes"}],"name":"and","outputs":[{"internalType":"bytes","name":"","type":"bytes"}],"stateMutability":"pure","type":"function"},{"inputs":[{"internalType":"bool","name":"value","type":"bool"}],"name":"boolToBytes","outputs":[{"internalType":"bytes","name":"","type":"bytes"}],"stateMutability":"pure","type":"function"},{"inputs":[{"internalType":"uint8","name":"","type":"uint8"},{"internalType":"bytes","name":"input","type":"bytes"},{"internalType":"uint8","name":"toType","type":"uint8"}],"name":"cast","outputs":[{"internalType":"bytes","name":"","type":"bytes"}],"stateMutability":"pure","type":"function"},{"inputs":[{"internalType":"uint8","name":"","type":"uint8"},{"internalType":"bytes","name":"input","type":"bytes"},{"internalType":"uint256","name":"","type":"uint256"}],"name":"decrypt","outputs":[{"internalType":"uint256","name":"","type":"uint256"}],"stateMutability":"pure","type":"function"},{"inputs":[{"internalType":"uint8","name":"utype","type":"uint8"},{"internalType":"bytes","name":"lhsHash","type":"bytes"},{"internalType":"bytes","name":"rhsHash","type":"bytes"}],"name":"div","outputs":[{"internalType":"bytes","name":"","type":"bytes"}],"stateMutability":"pure","type":"function"},{"inputs":[{"internalType":"uint8","name":"utype","type":"uint8"},{"internalType":"bytes","name":"lhsHash","type":"bytes"},{"internalType":"bytes","name":"rhsHash","type":"bytes"}],"name":"eq","outputs":[{"internalType":"bytes","name":"","type":"bytes"}],"stateMutability":"pure","type":"function"},{"inputs":[{"internalType":"int32","name":"","type":"int32"}],"name":"getNetworkPublicKey","outputs":[{"internalType":"bytes","name":"","type":"bytes"}],"stateMutability":"pure","type":"function"},{"inputs":[{"internalType":"uint8","name":"utype","type":"uint8"},{"internalType":"bytes","name":"lhsHash","type":"bytes"},{"internalType":"bytes","name":"rhsHash","type":"bytes"}],"name":"gt","outputs":[{"internalType":"bytes","name":"","type":"bytes"}],"stateMutability":"pure","type":"function"},{"inputs":[{"internalType":"uint8","name":"utype","type":"uint8"},{"internalType":"bytes","name":"lhsHash","type":"bytes"},{"internalType":"bytes","name":"rhsHash","type":"bytes"}],"name":"gte","outputs":[{"internalType":"bytes","name":"","type":"bytes"}],"stateMutability":"pure","type":"function"},{"inputs":[{"internalType":"string","name":"s","type":"string"}],"name":"log","outputs":[],"stateMutability":"pure","type":"function"},{"inputs":[{"internalType":"uint8","name":"utype","type":"uint8"},{"internalType":"bytes","name":"lhsHash","type":"bytes"},{"internalType":"bytes","name":"rhsHash","type":"bytes"}],"name":"lt","outputs":[{"internalType":"bytes","name":"","type":"bytes"}],"stateMutability":"pure","type":"function"},{"inputs":[{"internalType":"uint8","name":"utype","type":"uint8"},{"internalType":"bytes","name":"lhsHash","type":"bytes"},{"internalType":"bytes","name":"rhsHash","type":"bytes"}],"name":"lte","outputs":[{"internalType":"bytes","name":"","type":"bytes"}],"stateMutability":"pure","type":"function"},{"inputs":[{"internalType":"uint8","name":"utype","type":"uint8"},{"internalType":"bytes","name":"lhsHash","type":"bytes"},{"internalType":"bytes","name":"rhsHash","type":"bytes"}],"name":"max","outputs":[{"internalType":"bytes","name":"","type":"bytes"}],"stateMutability":"pure","type":"function"},{"inputs":[{"internalType":"uint8","name":"utype","type":"uint8"}],"name":"maxValue","outputs":[{"internalType":"uint256","name":"","type":"uint256"}],"stateMutability":"pure","type":"function"},{"inputs":[{"internalType":"uint8","name":"utype","type":"uint8"},{"internalType":"bytes","name":"lhsHash","type":"bytes"},{"internalType":"bytes","name":"rhsHash","type":"bytes"}],"name":"min","outputs":[{"internalType":"bytes","name":"","type":"bytes"}],"stateMutability":"pure","type":"function"},{"inputs":[{"internalType":"uint8","name":"utype","type":"uint8"},{"internalType":"bytes","name":"lhsHash","type":"bytes"},{"internalType":"bytes","name":"rhsHash","type":"bytes"}],"name":"mul","outputs":[{"internalType":"bytes","name":"","type":"bytes"}],"stateMutability":"pure","type":"function"},{"inputs":[{"internalType":"uint8","name":"utype","type":"uint8"},{"internalType":"bytes","name":"lhsHash","type":"bytes"},{"internalType":"bytes","name":"rhsHash","type":"bytes"}],"name":"ne","outputs":[{"internalType":"bytes","name":"","type":"bytes"}],"stateMutability":"pure","type":"function"},{"inputs":[{"internalType":"uint8","name":"utype","type":"uint8"},{"internalType":"bytes","name":"value","type":"bytes"}],"name":"not","outputs":[{"internalType":"bytes","name":"","type":"bytes"}],"stateMutability":"pure","type":"function"},{"inputs":[{"internalType":"uint8","name":"utype","type":"uint8"},{"internalType":"bytes","name":"lhsHash","type":"bytes"},{"internalType":"bytes","name":"rhsHash","type":"bytes"}],"name":"or","outputs":[{"internalType":"bytes","name":"","type":"bytes"}],"stateMutability":"pure","type":"function"},{"inputs":[{"internalType":"uint8","name":"utype","type":"uint8"},{"internalType":"uint64","name":"","type":"uint64"},{"internalType":"int32","name":"","type":"int32"}],"name":"random","outputs":[{"internalType":"bytes","name":"","type":"bytes"}],"stateMutability":"view","type":"function"},{"inputs":[{"internalType":"uint8","name":"utype","type":"uint8"},{"internalType":"bytes","name":"lhsHash","type":"bytes"},{"internalType":"bytes","name":"rhsHash","type":"bytes"}],"name":"rem","outputs":[{"internalType":"bytes","name":"","type":"bytes"}],"stateMutability":"pure","type":"function"},{"inputs":[{"internalType":"uint8","name":"","type":"uint8"},{"internalType":"bytes","name":"input","type":"bytes"}],"name":"req","outputs":[{"internalType":"bytes","name":"","type":"bytes"}],"stateMutability":"pure","type":"function"},{"inputs":[{"internalType":"uint8","name":"","type":"uint8"},{"internalType":"bytes","name":"ctHash","type":"bytes"},{"internalType":"bytes","name":"","type":"bytes"}],"name":"sealOutput","outputs":[{"internalType":"string","name":"","type":"string"}],"stateMutability":"pure","type":"function"},{"inputs":[{"internalType":"uint8","name":"","type":"uint8"},{"internalType":"bytes","name":"controlHash","type":"bytes"},{"internalType":"bytes","name":"ifTrueHash","type":"bytes"},{"internalType":"bytes","name":"ifFalseHash","type":"bytes"}],"name":"select","outputs":[{"internalType":"bytes","name":"","type":"bytes"}],"stateMutability":"pure","type":"function"},{"inputs":[{"internalType":"uint8","name":"","type":"uint8"},{"internalType":"bytes","name":"lhsHash","type":"bytes"},{"internalType":"bytes","name":"rhsHash","type":"bytes"}],"name":"shl","outputs":[{"internalType":"bytes","name":"","type":"bytes"}],"stateMutability":"pure","type":"function"},{"inputs":[{"internalType":"uint8","name":"","type":"uint8"},{"internalType":"bytes","name":"lhsHash","type":"bytes"},{"internalType":"bytes","name":"rhsHash","type":"bytes"}],"name":"shr","outputs":[{"internalType":"bytes","name":"","type":"bytes"}],"stateMutability":"pure","type":"function"},{"inputs":[{"internalType":"uint8","name":"utype","type":"uint8"},{"internalType":"bytes","name":"lhsHash","type":"bytes"},{"internalType":"bytes","name":"rhsHash","type":"bytes"}],"name":"sub","outputs":[{"internalType":"bytes","name":"","type":"bytes"}],"stateMutability":"pure","type":"function"},{"inputs":[{"internalType":"bytes","name":"input","type":"bytes"},{"internalType":"uint8","name":"toType","type":"uint8"},{"internalType":"int32","name":"","type":"int32"}],"name":"trivialEncrypt","outputs":[{"internalType":"bytes","name":"","type":"bytes"}],"stateMutability":"pure","type":"function"},{"inputs":[{"internalType":"uint256","name":"value","type":"uint256"}],"name":"uint256ToBytes","outputs":[{"internalType":"bytes","name":"","type":"bytes"}],"stateMutability":"pure","type":"function"},{"inputs":[{"internalType":"uint8","name":"","type":"uint8"},{"internalType":"bytes","name":"input","type":"bytes"},{"internalType":"int32","name":"","type":"int32"}],"name":"verify","outputs":[{"internalType":"bytes","name":"","type":"bytes"}],"stateMutability":"pure","type":"function"},{"inputs":[{"internalType":"uint8","name":"utype","type":"uint8"},{"internalType":"bytes","name":"lhsHash","type":"bytes"},{"internalType":"bytes","name":"rhsHash","type":"bytes"}],"name":"xor","outputs":[{"internalType":"bytes","name":"","type":"bytes"}],"stateMutability":"pure","type":"function"}],"evm":{"bytecode":{"linkReferences":{},"object":"6080806040523461001657610fde908161001c8239f35b600080fdfe6080604052600436101561001257600080fd5b60003560e01c80622df619146102165780630b80518e1461021157806313c0c9ae1461020c5780631b1b484e146102075780631f4cda2f1461020257806321b50ba3146101fd57806341304fac146101f85780634284f765146101f35780634a5a1117146101ee5780635211c679146101e957806355e5e6c5146101e45780635e639f19146101df578063650de1cf146101da57806372d456f5146101d55780637c4697ab146101d05780637d23f1db146101cb578063874b1c10146101c657806392348b34146101c15780639944d12d146101bc578063a1848ff3146101b7578063aa626e8a146101b2578063ae104cfd146101ad578063ae42450a146101a8578063b8fa1043146101a3578063b9c7a54b1461019e578063ba19ac2814610199578063c2d9695214610194578063c7559da41461018f578063cc2cbeff1461018a578063d260d9ab14610185578063eb274b77146101805763eb3768041461017b57600080fd5b610c4b565b610c05565b610bd3565b610bad565b610b75565b610af0565b610a9f565b610a5a565b610a31565b610a11565b6109e3565b610965565b61093d565b6108fb565b6108b6565b610871565b61083b565b6107bf565b610791565b61074b565b61070f565b6106e4565b6106ca565b610679565b61064b565b610608565b6105af565b61054e565b6104a2565b61043f565b610411565b6103a0565b6004359060ff8216820361022b57565b600080fd5b634e487b7160e01b600052604160045260246000fd5b604081019081106001600160401b0382111761026157604052565b610230565b90601f801991011681019081106001600160401b0382111761026157604052565b6001600160401b03811161026157601f01601f191660200190565b9291926102ae82610287565b916102bc6040519384610266565b82948184528183011161022b578281602093846000960137010152565b9080601f8301121561022b578160206102f4933591016102a2565b90565b606060031982011261022b5760043560ff8116810361022b57916001600160401b0360243581811161022b5783610330916004016102d9565b9260443591821161022b576102f4916004016102d9565b60005b83811061035a5750506000910152565b818101518382015260200161034a565b9060209161038381518092818552858086019101610347565b601f01601f1916010190565b9060206102f492818152019061036a565b3461022b576103c36103bd6103b4366102f7565b93919290610f15565b92610f15565b820180921161040c576103d590610d78565b90811561040757610403916103e8610e33565b9106602082015260405191829160208352602083019061036a565b0390f35b610cb3565b610c9d565b3461022b5761040361042b610425366102f7565b91610cc9565b60405191829160208352602083019061036a565b3461022b57610457610450366102f7565b9290610f15565b61046082610d78565b9283156104075761047361047991610f15565b92610d78565b928315610407576104039361042b930691061415610e6f565b604435908160030b820361022b57565b3461022b57602036600319011261022b576004358060030b0361022b5760405160808101908082106001600160401b038311176102615761040391604052604181527f28282d282d5f282d5f2d295f2d292d292920596f75277665207374657070656460208201527f20696e746f207468652077726f6e67206e65696768626f72686f6f642070616c6040820152601760f91b606082015260405191829160208352602083019061036a565b3461022b5761056b610571610562366102f7565b92919390610f15565b91610f15565b9182156104075761058190610d78565b80156104075761040392610593610e33565b920406602082015260405191829160208352602083019061036a565b3461022b57606036600319011261022b576105c861021b565b506024356001600160401b03811161022b576105eb6104039136906004016102d9565b6105f3610492565b5060405191829160208352602083019061036a565b3461022b57602036600319011261022b576004356001600160401b03811161022b573660238201121561022b576106499036906024816004013591016102a2565b005b3461022b5761065f6103bd6103b4366102f7565b9182810292818404149015171561040c576103d590610d78565b3461022b57606036600319011261022b5761069261021b565b506024356001600160401b03811161022b576106b29036906004016102d9565b60443560ff81160361022b5761042b61040391610d32565b3461022b5761040361042b6106de366102f7565b91610d51565b3461022b57602036600319011261022b57602061070761070261021b565b610d78565b604051908152f35b3461022b5761040361072e610734610726366102f7565b939150610d0f565b91610d0f565b186040519060208201526020815261042b81610246565b3461022b5761075c610450366102f7565b61076582610d78565b9283156104075761047361077891610f15565b928315610407576104039361042b930691061015610e6f565b3461022b5761040361072e6107a8610726366102f7565b176040519060208201526020815261042b81610246565b3461022b57606036600319011261022b576107d861021b565b506024356001600160401b03811161022b576107076107fd60209236906004016102d9565b610f15565b90604060031983011261022b5760043560ff8116810361022b5791602435906001600160401b03821161022b576102f4916004016102d9565b3461022b5761084936610802565b905061085481610f15565b1561022b576104039060405191829160208352602083019061036a565b3461022b57610882610450366102f7565b61088b82610d78565b9283156104075761047361089e91610f15565b928315610407576104039361042b9306910611610e6f565b3461022b576108c7610450366102f7565b6108d082610d78565b928315610407576104736108e391610f15565b928315610407576104039361042b9306910614610e6f565b3461022b5761040361056b61091a610912366102f7565b939150610f15565b1c610923610e33565b90602082015260405191829160208352602083019061036a565b3461022b5761040361094e366102f7565b50905060405191829160208352602083019061036a565b3461022b57606036600319011261022b5761097e61021b565b6024356001600160401b0381160361022b57610998610492565b506109bd6040516020810190428252602081526109b481610246565b51902091610d78565b90811561040757610403916109d0610e33565b910660208201526040519182918261038f565b3461022b5761040361072e6109fa610726366102f7565b166040519060208201526020815261042b81610246565b3461022b5761040361056b610a28610912366102f7565b1b610923610e33565b3461022b57602036600319011261022b57600435801515810361022b5761042b61040391610e6f565b3461022b57610a6b610450366102f7565b610a7482610d78565b92831561040757610473610a8791610f15565b928315610407576104039361042b9306910610610e6f565b3461022b57606036600319011261022b576004356001600160401b03811161022b57610acf9036906004016102d9565b60243560ff81160361022b5761042b61040391610aea610492565b50610d32565b3461022b57608036600319011261022b57610b0961021b565b506001600160401b0360243581811161022b57610b2a9036906004016102d9565b9060443581811161022b57610b439036906004016102d9565b9160643591821161022b5761040392610b63610b699336906004016102d9565b91610ea6565b6040519182918261038f565b3461022b57602036600319011261022b57610403610b91610e33565b600435602082015260405191829160208352602083019061036a565b3461022b57610bc16103bd6103b4366102f7565b820391821161040c576103d590610d78565b3461022b57610403610bee610be736610802565b9050610d0f565b196040519060208201526020815261042b81610246565b3461022b57610c16610450366102f7565b610c1f82610d78565b92831561040757610473610c3291610f15565b928315610407576104039361042b930691061115610e6f565b3461022b5761056b610c5f610562366102f7565b91821561040757610c6f90610d78565b80156104075761040392610c81610e33565b920606602082015260405191829160208352602083019061036a565b634e487b7160e01b600052601160045260246000fd5b634e487b7160e01b600052601260045260246000fd5b610cd282610f15565b610cdb82610d78565b801561040757610cf3610ced86610f15565b93610d78565b801561040757600193069106101514610d0a575090565b905090565b602081519101519060208110610d23575090565b6000199060200360031b1b1690565b610d3b90610d0f565b604051906020820152602081526102f481610246565b919091610d5d83610f15565b610d6682610d78565b801561040757610cf3610ced85610f15565b60ff1680610d87575061010090565b60018103610d9757506201000090565b60028103610da9575064010000000090565b60038103610dbf57506801000000000000000090565b60048103610dd05750600160801b90565b60058103610dde5750600190565b600c8103610def5750600160a01b90565b600d03610dfb57600190565b60405162461bcd60e51b815260206004820152601060248201526f556e737570706f72746564207479706560801b6044820152606490fd5b60405190610e4082610246565b60208083523683820137565b805115610e595760200190565b634e487b7160e01b600052603260045260246000fd5b60405190610e7c82610246565b600182526020368184013715610e9b576001610e9782610e4c565b5390565b6000610e9782610e4c565b610ebd90610eb8602082511115610ec9565b610e4c565b5160f81c610d0a575090565b15610ed057565b60405162461bcd60e51b815260206004820152601860248201527f4279746573206c656e67746820657863656564732033322e00000000000000006044820152606490fd5b6020610f248183511115610ec9565b815181039181831161040c57610f9a82610f56610f4086610287565b95610f4e6040519788610266565b808752610287565b8186019590601f1901368737604051938491610f7a84840198899251928391610347565b8201610f8e82518093868085019101610347565b01038084520182610266565b80518101031261022b57519056fea2646970667358221220f4d1cc52080f8bf82f6cf4e90cb92ebe13652308de80a19a46ba1f490279d16164736f6c63430008180033","opcodes":"PUSH1 0x80 DUP1 PUSH1 0x40 MSTORE CALLVALUE PUSH2 0x16 JUMPI PUSH2 0xFDE SWAP1 DUP2 PUSH2 0x1C DUP3 CODECOPY RETURN JUMPDEST PUSH1 0x0 DUP1 REVERT INVALID PUSH1 0x80 PUSH1 0x40 MSTORE PUSH1 0x4 CALLDATASIZE LT ISZERO PUSH2 0x12 JUMPI PUSH1 0x0 DUP1 REVERT JUMPDEST PUSH1 0x0 CALLDATALOAD PUSH1 0xE0 SHR DUP1 PUSH3 0x2DF619 EQ PUSH2 0x216 JUMPI DUP1 PUSH4 0xB80518E EQ PUSH2 0x211 JUMPI DUP1 PUSH4 0x13C0C9AE EQ PUSH2 0x20C JUMPI DUP1 PUSH4 0x1B1B484E EQ PUSH2 0x207 JUMPI DUP1 PUSH4 0x1F4CDA2F EQ PUSH2 0x202 JUMPI DUP1 PUSH4 0x21B50BA3 EQ PUSH2 0x1FD JUMPI DUP1 PUSH4 0x41304FAC EQ PUSH2 0x1F8 JUMPI DUP1 PUSH4 0x4284F765 EQ PUSH2 0x1F3 JUMPI DUP1 PUSH4 0x4A5A1117 EQ PUSH2 0x1EE JUMPI DUP1 PUSH4 0x5211C679 EQ PUSH2 0x1E9 JUMPI DUP1 PUSH4 0x55E5E6C5 EQ PUSH2 0x1E4 JUMPI DUP1 PUSH4 0x5E639F19 EQ PUSH2 0x1DF JUMPI DUP1 PUSH4 0x650DE1CF EQ PUSH2 0x1DA JUMPI DUP1 PUSH4 0x72D456F5 EQ PUSH2 0x1D5 JUMPI DUP1 PUSH4 0x7C4697AB EQ PUSH2 0x1D0 JUMPI DUP1 PUSH4 0x7D23F1DB EQ PUSH2 0x1CB JUMPI DUP1 PUSH4 0x874B1C10 EQ PUSH2 0x1C6 JUMPI DUP1 PUSH4 0x92348B34 EQ PUSH2 0x1C1 JUMPI DUP1 PUSH4 0x9944D12D EQ PUSH2 0x1BC JUMPI DUP1 PUSH4 0xA1848FF3 EQ PUSH2 0x1B7 JUMPI DUP1 PUSH4 0xAA626E8A EQ PUSH2 0x1B2 JUMPI DUP1 PUSH4 0xAE104CFD EQ PUSH2 0x1AD JUMPI DUP1 PUSH4 0xAE42450A EQ PUSH2 0x1A8 JUMPI DUP1 PUSH4 0xB8FA1043 EQ PUSH2 0x1A3 JUMPI DUP1 PUSH4 0xB9C7A54B EQ PUSH2 0x19E JUMPI DUP1 PUSH4 0xBA19AC28 EQ PUSH2 0x199 JUMPI DUP1 PUSH4 0xC2D96952 EQ PUSH2 0x194 JUMPI DUP1 PUSH4 0xC7559DA4 EQ PUSH2 0x18F JUMPI DUP1 PUSH4 0xCC2CBEFF EQ PUSH2 0x18A JUMPI DUP1 PUSH4 0xD260D9AB EQ PUSH2 0x185 JUMPI DUP1 PUSH4 0xEB274B77 EQ PUSH2 0x180 JUMPI PUSH4 0xEB376804 EQ PUSH2 0x17B JUMPI PUSH1 0x0 DUP1 REVERT JUMPDEST PUSH2 0xC4B JUMP JUMPDEST PUSH2 0xC05 JUMP JUMPDEST PUSH2 0xBD3 JUMP JUMPDEST PUSH2 0xBAD JUMP JUMPDEST PUSH2 0xB75 JUMP JUMPDEST PUSH2 0xAF0 JUMP JUMPDEST PUSH2 0xA9F JUMP JUMPDEST PUSH2 0xA5A JUMP JUMPDEST PUSH2 0xA31 JUMP JUMPDEST PUSH2 0xA11 JUMP JUMPDEST PUSH2 0x9E3 JUMP JUMPDEST PUSH2 0x965 JUMP JUMPDEST PUSH2 0x93D JUMP JUMPDEST PUSH2 0x8FB JUMP JUMPDEST PUSH2 0x8B6 JUMP JUMPDEST PUSH2 0x871 JUMP JUMPDEST PUSH2 0x83B JUMP JUMPDEST PUSH2 0x7BF JUMP JUMPDEST PUSH2 0x791 JUMP JUMPDEST PUSH2 0x74B JUMP JUMPDEST PUSH2 0x70F JUMP JUMPDEST PUSH2 0x6E4 JUMP JUMPDEST PUSH2 0x6CA JUMP JUMPDEST PUSH2 0x679 JUMP JUMPDEST PUSH2 0x64B JUMP JUMPDEST PUSH2 0x608 JUMP JUMPDEST PUSH2 0x5AF JUMP JUMPDEST PUSH2 0x54E JUMP JUMPDEST PUSH2 0x4A2 JUMP JUMPDEST PUSH2 0x43F JUMP JUMPDEST PUSH2 0x411 JUMP JUMPDEST PUSH2 0x3A0 JUMP JUMPDEST PUSH1 0x4 CALLDATALOAD SWAP1 PUSH1 0xFF DUP3 AND DUP3 SUB PUSH2 0x22B JUMPI JUMP JUMPDEST PUSH1 0x0 DUP1 REVERT JUMPDEST PUSH4 0x4E487B71 PUSH1 0xE0 SHL PUSH1 0x0 MSTORE PUSH1 0x41 PUSH1 0x4 MSTORE PUSH1 0x24 PUSH1 0x0 REVERT JUMPDEST PUSH1 0x40 DUP2 ADD SWAP1 DUP2 LT PUSH1 0x1 PUSH1 0x1 PUSH1 0x40 SHL SUB DUP3 GT OR PUSH2 0x261 JUMPI PUSH1 0x40 MSTORE JUMP JUMPDEST PUSH2 0x230 JUMP JUMPDEST SWAP1 PUSH1 0x1F DUP1 NOT SWAP2 ADD AND DUP2 ADD SWAP1 DUP2 LT PUSH1 0x1 PUSH1 0x1 PUSH1 0x40 SHL SUB DUP3 GT OR PUSH2 0x261 JUMPI PUSH1 0x40 MSTORE JUMP JUMPDEST PUSH1 0x1 PUSH1 0x1 PUSH1 0x40 SHL SUB DUP2 GT PUSH2 0x261 JUMPI PUSH1 0x1F ADD PUSH1 0x1F NOT AND PUSH1 0x20 ADD SWAP1 JUMP JUMPDEST SWAP3 SWAP2 SWAP3 PUSH2 0x2AE DUP3 PUSH2 0x287 JUMP JUMPDEST SWAP2 PUSH2 0x2BC PUSH1 0x40 MLOAD SWAP4 DUP5 PUSH2 0x266 JUMP JUMPDEST DUP3 SWAP5 DUP2 DUP5 MSTORE DUP2 DUP4 ADD GT PUSH2 0x22B JUMPI DUP3 DUP2 PUSH1 0x20 SWAP4 DUP5 PUSH1 0x0 SWAP7 ADD CALLDATACOPY ADD ADD MSTORE JUMP JUMPDEST SWAP1 DUP1 PUSH1 0x1F DUP4 ADD SLT ISZERO PUSH2 0x22B JUMPI DUP2 PUSH1 0x20 PUSH2 0x2F4 SWAP4 CALLDATALOAD SWAP2 ADD PUSH2 0x2A2 JUMP JUMPDEST SWAP1 JUMP JUMPDEST PUSH1 0x60 PUSH1 0x3 NOT DUP3 ADD SLT PUSH2 0x22B JUMPI PUSH1 0x4 CALLDATALOAD PUSH1 0xFF DUP2 AND DUP2 SUB PUSH2 0x22B JUMPI SWAP2 PUSH1 0x1 PUSH1 0x1 PUSH1 0x40 SHL SUB PUSH1 0x24 CALLDATALOAD DUP2 DUP2 GT PUSH2 0x22B JUMPI DUP4 PUSH2 0x330 SWAP2 PUSH1 0x4 ADD PUSH2 0x2D9 JUMP JUMPDEST SWAP3 PUSH1 0x44 CALLDATALOAD SWAP2 DUP3 GT PUSH2 0x22B JUMPI PUSH2 0x2F4 SWAP2 PUSH1 0x4 ADD PUSH2 0x2D9 JUMP JUMPDEST PUSH1 0x0 JUMPDEST DUP4 DUP2 LT PUSH2 0x35A JUMPI POP POP PUSH1 0x0 SWAP2 ADD MSTORE JUMP JUMPDEST DUP2 DUP2 ADD MLOAD DUP4 DUP3 ADD MSTORE PUSH1 0x20 ADD PUSH2 0x34A JUMP JUMPDEST SWAP1 PUSH1 0x20 SWAP2 PUSH2 0x383 DUP2 MLOAD DUP1 SWAP3 DUP2 DUP6 MSTORE DUP6 DUP1 DUP7 ADD SWAP2 ADD PUSH2 0x347 JUMP JUMPDEST PUSH1 0x1F ADD PUSH1 0x1F NOT AND ADD ADD SWAP1 JUMP JUMPDEST SWAP1 PUSH1 0x20 PUSH2 0x2F4 SWAP3 DUP2 DUP2 MSTORE ADD SWAP1 PUSH2 0x36A JUMP JUMPDEST CALLVALUE PUSH2 0x22B JUMPI PUSH2 0x3C3 PUSH2 0x3BD PUSH2 0x3B4 CALLDATASIZE PUSH2 0x2F7 JUMP JUMPDEST SWAP4 SWAP2 SWAP3 SWAP1 PUSH2 0xF15 JUMP JUMPDEST SWAP3 PUSH2 0xF15 JUMP JUMPDEST DUP3 ADD DUP1 SWAP3 GT PUSH2 0x40C JUMPI PUSH2 0x3D5 SWAP1 PUSH2 0xD78 JUMP JUMPDEST SWAP1 DUP2 ISZERO PUSH2 0x407 JUMPI PUSH2 0x403 SWAP2 PUSH2 0x3E8 PUSH2 0xE33 JUMP JUMPDEST SWAP2 MOD PUSH1 0x20 DUP3 ADD MSTORE PUSH1 0x40 MLOAD SWAP2 DUP3 SWAP2 PUSH1 0x20 DUP4 MSTORE PUSH1 0x20 DUP4 ADD SWAP1 PUSH2 0x36A JUMP JUMPDEST SUB SWAP1 RETURN JUMPDEST PUSH2 0xCB3 JUMP JUMPDEST PUSH2 0xC9D JUMP JUMPDEST CALLVALUE PUSH2 0x22B JUMPI PUSH2 0x403 PUSH2 0x42B PUSH2 0x425 CALLDATASIZE PUSH2 0x2F7 JUMP JUMPDEST SWAP2 PUSH2 0xCC9 JUMP JUMPDEST PUSH1 0x40 MLOAD SWAP2 DUP3 SWAP2 PUSH1 0x20 DUP4 MSTORE PUSH1 0x20 DUP4 ADD SWAP1 PUSH2 0x36A JUMP JUMPDEST CALLVALUE PUSH2 0x22B JUMPI PUSH2 0x457 PUSH2 0x450 CALLDATASIZE PUSH2 0x2F7 JUMP JUMPDEST SWAP3 SWAP1 PUSH2 0xF15 JUMP JUMPDEST PUSH2 0x460 DUP3 PUSH2 0xD78 JUMP JUMPDEST SWAP3 DUP4 ISZERO PUSH2 0x407 JUMPI PUSH2 0x473 PUSH2 0x479 SWAP2 PUSH2 0xF15 JUMP JUMPDEST SWAP3 PUSH2 0xD78 JUMP JUMPDEST SWAP3 DUP4 ISZERO PUSH2 0x407 JUMPI PUSH2 0x403 SWAP4 PUSH2 0x42B SWAP4 MOD SWAP2 MOD EQ ISZERO PUSH2 0xE6F JUMP JUMPDEST PUSH1 0x44 CALLDATALOAD SWAP1 DUP2 PUSH1 0x3 SIGNEXTEND DUP3 SUB PUSH2 0x22B JUMPI JUMP JUMPDEST CALLVALUE PUSH2 0x22B JUMPI PUSH1 0x20 CALLDATASIZE PUSH1 0x3 NOT ADD SLT PUSH2 0x22B JUMPI PUSH1 0x4 CALLDATALOAD DUP1 PUSH1 0x3 SIGNEXTEND SUB PUSH2 0x22B JUMPI PUSH1 0x40 MLOAD PUSH1 0x80 DUP2 ADD SWAP1 DUP1 DUP3 LT PUSH1 0x1 PUSH1 0x1 PUSH1 0x40 SHL SUB DUP4 GT OR PUSH2 0x261 JUMPI PUSH2 0x403 SWAP2 PUSH1 0x40 MSTORE PUSH1 0x41 DUP2 MSTORE PUSH32 0x28282D282D5F282D5F2D295F2D292D292920596F752776652073746570706564 PUSH1 0x20 DUP3 ADD MSTORE PUSH32 0x20696E746F207468652077726F6E67206E65696768626F72686F6F642070616C PUSH1 0x40 DUP3 ADD MSTORE PUSH1 0x17 PUSH1 0xF9 SHL PUSH1 0x60 DUP3 ADD MSTORE PUSH1 0x40 MLOAD SWAP2 DUP3 SWAP2 PUSH1 0x20 DUP4 MSTORE PUSH1 0x20 DUP4 ADD SWAP1 PUSH2 0x36A JUMP JUMPDEST CALLVALUE PUSH2 0x22B JUMPI PUSH2 0x56B PUSH2 0x571 PUSH2 0x562 CALLDATASIZE PUSH2 0x2F7 JUMP JUMPDEST SWAP3 SWAP2 SWAP4 SWAP1 PUSH2 0xF15 JUMP JUMPDEST SWAP2 PUSH2 0xF15 JUMP JUMPDEST SWAP2 DUP3 ISZERO PUSH2 0x407 JUMPI PUSH2 0x581 SWAP1 PUSH2 0xD78 JUMP JUMPDEST DUP1 ISZERO PUSH2 0x407 JUMPI PUSH2 0x403 SWAP3 PUSH2 0x593 PUSH2 0xE33 JUMP JUMPDEST SWAP3 DIV MOD PUSH1 0x20 DUP3 ADD MSTORE PUSH1 0x40 MLOAD SWAP2 DUP3 SWAP2 PUSH1 0x20 DUP4 MSTORE PUSH1 0x20 DUP4 ADD SWAP1 PUSH2 0x36A JUMP JUMPDEST CALLVALUE PUSH2 0x22B JUMPI PUSH1 0x60 CALLDATASIZE PUSH1 0x3 NOT ADD SLT PUSH2 0x22B JUMPI PUSH2 0x5C8 PUSH2 0x21B JUMP JUMPDEST POP PUSH1 0x24 CALLDATALOAD PUSH1 0x1 PUSH1 0x1 PUSH1 0x40 SHL SUB DUP2 GT PUSH2 0x22B JUMPI PUSH2 0x5EB PUSH2 0x403 SWAP2 CALLDATASIZE SWAP1 PUSH1 0x4 ADD PUSH2 0x2D9 JUMP JUMPDEST PUSH2 0x5F3 PUSH2 0x492 JUMP JUMPDEST POP PUSH1 0x40 MLOAD SWAP2 DUP3 SWAP2 PUSH1 0x20 DUP4 MSTORE PUSH1 0x20 DUP4 ADD SWAP1 PUSH2 0x36A JUMP JUMPDEST CALLVALUE PUSH2 0x22B JUMPI PUSH1 0x20 CALLDATASIZE PUSH1 0x3 NOT ADD SLT PUSH2 0x22B JUMPI PUSH1 0x4 CALLDATALOAD PUSH1 0x1 PUSH1 0x1 PUSH1 0x40 SHL SUB DUP2 GT PUSH2 0x22B JUMPI CALLDATASIZE PUSH1 0x23 DUP3 ADD SLT ISZERO PUSH2 0x22B JUMPI PUSH2 0x649 SWAP1 CALLDATASIZE SWAP1 PUSH1 0x24 DUP2 PUSH1 0x4 ADD CALLDATALOAD SWAP2 ADD PUSH2 0x2A2 JUMP JUMPDEST STOP JUMPDEST CALLVALUE PUSH2 0x22B JUMPI PUSH2 0x65F PUSH2 0x3BD PUSH2 0x3B4 CALLDATASIZE PUSH2 0x2F7 JUMP JUMPDEST SWAP2 DUP3 DUP2 MUL SWAP3 DUP2 DUP5 DIV EQ SWAP1 ISZERO OR ISZERO PUSH2 0x40C JUMPI PUSH2 0x3D5 SWAP1 PUSH2 0xD78 JUMP JUMPDEST CALLVALUE PUSH2 0x22B JUMPI PUSH1 0x60 CALLDATASIZE PUSH1 0x3 NOT ADD SLT PUSH2 0x22B JUMPI PUSH2 0x692 PUSH2 0x21B JUMP JUMPDEST POP PUSH1 0x24 CALLDATALOAD PUSH1 0x1 PUSH1 0x1 PUSH1 0x40 SHL SUB DUP2 GT PUSH2 0x22B JUMPI PUSH2 0x6B2 SWAP1 CALLDATASIZE SWAP1 PUSH1 0x4 ADD PUSH2 0x2D9 JUMP JUMPDEST PUSH1 0x44 CALLDATALOAD PUSH1 0xFF DUP2 AND SUB PUSH2 0x22B JUMPI PUSH2 0x42B PUSH2 0x403 SWAP2 PUSH2 0xD32 JUMP JUMPDEST CALLVALUE PUSH2 0x22B JUMPI PUSH2 0x403 PUSH2 0x42B PUSH2 0x6DE CALLDATASIZE PUSH2 0x2F7 JUMP JUMPDEST SWAP2 PUSH2 0xD51 JUMP JUMPDEST CALLVALUE PUSH2 0x22B JUMPI PUSH1 0x20 CALLDATASIZE PUSH1 0x3 NOT ADD SLT PUSH2 0x22B JUMPI PUSH1 0x20 PUSH2 0x707 PUSH2 0x702 PUSH2 0x21B JUMP JUMPDEST PUSH2 0xD78 JUMP JUMPDEST PUSH1 0x40 MLOAD SWAP1 DUP2 MSTORE RETURN JUMPDEST CALLVALUE PUSH2 0x22B JUMPI PUSH2 0x403 PUSH2 0x72E PUSH2 0x734 PUSH2 0x726 CALLDATASIZE PUSH2 0x2F7 JUMP JUMPDEST SWAP4 SWAP2 POP PUSH2 0xD0F JUMP JUMPDEST SWAP2 PUSH2 0xD0F JUMP JUMPDEST XOR PUSH1 0x40 MLOAD SWAP1 PUSH1 0x20 DUP3 ADD MSTORE PUSH1 0x20 DUP2 MSTORE PUSH2 0x42B DUP2 PUSH2 0x246 JUMP JUMPDEST CALLVALUE PUSH2 0x22B JUMPI PUSH2 0x75C PUSH2 0x450 CALLDATASIZE PUSH2 0x2F7 JUMP JUMPDEST PUSH2 0x765 DUP3 PUSH2 0xD78 JUMP JUMPDEST SWAP3 DUP4 ISZERO PUSH2 0x407 JUMPI PUSH2 0x473 PUSH2 0x778 SWAP2 PUSH2 0xF15 JUMP JUMPDEST SWAP3 DUP4 ISZERO PUSH2 0x407 JUMPI PUSH2 0x403 SWAP4 PUSH2 0x42B SWAP4 MOD SWAP2 MOD LT ISZERO PUSH2 0xE6F JUMP JUMPDEST CALLVALUE PUSH2 0x22B JUMPI PUSH2 0x403 PUSH2 0x72E PUSH2 0x7A8 PUSH2 0x726 CALLDATASIZE PUSH2 0x2F7 JUMP JUMPDEST OR PUSH1 0x40 MLOAD SWAP1 PUSH1 0x20 DUP3 ADD MSTORE PUSH1 0x20 DUP2 MSTORE PUSH2 0x42B DUP2 PUSH2 0x246 JUMP JUMPDEST CALLVALUE PUSH2 0x22B JUMPI PUSH1 0x60 CALLDATASIZE PUSH1 0x3 NOT ADD SLT PUSH2 0x22B JUMPI PUSH2 0x7D8 PUSH2 0x21B JUMP JUMPDEST POP PUSH1 0x24 CALLDATALOAD PUSH1 0x1 PUSH1 0x1 PUSH1 0x40 SHL SUB DUP2 GT PUSH2 0x22B JUMPI PUSH2 0x707 PUSH2 0x7FD PUSH1 0x20 SWAP3 CALLDATASIZE SWAP1 PUSH1 0x4 ADD PUSH2 0x2D9 JUMP JUMPDEST PUSH2 0xF15 JUMP JUMPDEST SWAP1 PUSH1 0x40 PUSH1 0x3 NOT DUP4 ADD SLT PUSH2 0x22B JUMPI PUSH1 0x4 CALLDATALOAD PUSH1 0xFF DUP2 AND DUP2 SUB PUSH2 0x22B JUMPI SWAP2 PUSH1 0x24 CALLDATALOAD SWAP1 PUSH1 0x1 PUSH1 0x1 PUSH1 0x40 SHL SUB DUP3 GT PUSH2 0x22B JUMPI PUSH2 0x2F4 SWAP2 PUSH1 0x4 ADD PUSH2 0x2D9 JUMP JUMPDEST CALLVALUE PUSH2 0x22B JUMPI PUSH2 0x849 CALLDATASIZE PUSH2 0x802 JUMP JUMPDEST SWAP1 POP PUSH2 0x854 DUP2 PUSH2 0xF15 JUMP JUMPDEST ISZERO PUSH2 0x22B JUMPI PUSH2 0x403 SWAP1 PUSH1 0x40 MLOAD SWAP2 DUP3 SWAP2 PUSH1 0x20 DUP4 MSTORE PUSH1 0x20 DUP4 ADD SWAP1 PUSH2 0x36A JUMP JUMPDEST CALLVALUE PUSH2 0x22B JUMPI PUSH2 0x882 PUSH2 0x450 CALLDATASIZE PUSH2 0x2F7 JUMP JUMPDEST PUSH2 0x88B DUP3 PUSH2 0xD78 JUMP JUMPDEST SWAP3 DUP4 ISZERO PUSH2 0x407 JUMPI PUSH2 0x473 PUSH2 0x89E SWAP2 PUSH2 0xF15 JUMP JUMPDEST SWAP3 DUP4 ISZERO PUSH2 0x407 JUMPI PUSH2 0x403 SWAP4 PUSH2 0x42B SWAP4 MOD SWAP2 MOD GT PUSH2 0xE6F JUMP JUMPDEST CALLVALUE PUSH2 0x22B JUMPI PUSH2 0x8C7 PUSH2 0x450 CALLDATASIZE PUSH2 0x2F7 JUMP JUMPDEST PUSH2 0x8D0 DUP3 PUSH2 0xD78 JUMP JUMPDEST SWAP3 DUP4 ISZERO PUSH2 0x407 JUMPI PUSH2 0x473 PUSH2 0x8E3 SWAP2 PUSH2 0xF15 JUMP JUMPDEST SWAP3 DUP4 ISZERO PUSH2 0x407 JUMPI PUSH2 0x403 SWAP4 PUSH2 0x42B SWAP4 MOD SWAP2 MOD EQ PUSH2 0xE6F JUMP JUMPDEST CALLVALUE PUSH2 0x22B JUMPI PUSH2 0x403 PUSH2 0x56B PUSH2 0x91A PUSH2 0x912 CALLDATASIZE PUSH2 0x2F7 JUMP JUMPDEST SWAP4 SWAP2 POP PUSH2 0xF15 JUMP JUMPDEST SHR PUSH2 0x923 PUSH2 0xE33 JUMP JUMPDEST SWAP1 PUSH1 0x20 DUP3 ADD MSTORE PUSH1 0x40 MLOAD SWAP2 DUP3 SWAP2 PUSH1 0x20 DUP4 MSTORE PUSH1 0x20 DUP4 ADD SWAP1 PUSH2 0x36A JUMP JUMPDEST CALLVALUE PUSH2 0x22B JUMPI PUSH2 0x403 PUSH2 0x94E CALLDATASIZE PUSH2 0x2F7 JUMP JUMPDEST POP SWAP1 POP PUSH1 0x40 MLOAD SWAP2 DUP3 SWAP2 PUSH1 0x20 DUP4 MSTORE PUSH1 0x20 DUP4 ADD SWAP1 PUSH2 0x36A JUMP JUMPDEST CALLVALUE PUSH2 0x22B JUMPI PUSH1 0x60 CALLDATASIZE PUSH1 0x3 NOT ADD SLT PUSH2 0x22B JUMPI PUSH2 0x97E PUSH2 0x21B JUMP JUMPDEST PUSH1 0x24 CALLDATALOAD PUSH1 0x1 PUSH1 0x1 PUSH1 0x40 SHL SUB DUP2 AND SUB PUSH2 0x22B JUMPI PUSH2 0x998 PUSH2 0x492 JUMP JUMPDEST POP PUSH2 0x9BD PUSH1 0x40 MLOAD PUSH1 0x20 DUP2 ADD SWAP1 TIMESTAMP DUP3 MSTORE PUSH1 0x20 DUP2 MSTORE PUSH2 0x9B4 DUP2 PUSH2 0x246 JUMP JUMPDEST MLOAD SWAP1 KECCAK256 SWAP2 PUSH2 0xD78 JUMP JUMPDEST SWAP1 DUP2 ISZERO PUSH2 0x407 JUMPI PUSH2 0x403 SWAP2 PUSH2 0x9D0 PUSH2 0xE33 JUMP JUMPDEST SWAP2 MOD PUSH1 0x20 DUP3 ADD MSTORE PUSH1 0x40 MLOAD SWAP2 DUP3 SWAP2 DUP3 PUSH2 0x38F JUMP JUMPDEST CALLVALUE PUSH2 0x22B JUMPI PUSH2 0x403 PUSH2 0x72E PUSH2 0x9FA PUSH2 0x726 CALLDATASIZE PUSH2 0x2F7 JUMP JUMPDEST AND PUSH1 0x40 MLOAD SWAP1 PUSH1 0x20 DUP3 ADD MSTORE PUSH1 0x20 DUP2 MSTORE PUSH2 0x42B DUP2 PUSH2 0x246 JUMP JUMPDEST CALLVALUE PUSH2 0x22B JUMPI PUSH2 0x403 PUSH2 0x56B PUSH2 0xA28 PUSH2 0x912 CALLDATASIZE PUSH2 0x2F7 JUMP JUMPDEST SHL PUSH2 0x923 PUSH2 0xE33 JUMP JUMPDEST CALLVALUE PUSH2 0x22B JUMPI PUSH1 0x20 CALLDATASIZE PUSH1 0x3 NOT ADD SLT PUSH2 0x22B JUMPI PUSH1 0x4 CALLDATALOAD DUP1 ISZERO ISZERO DUP2 SUB PUSH2 0x22B JUMPI PUSH2 0x42B PUSH2 0x403 SWAP2 PUSH2 0xE6F JUMP JUMPDEST CALLVALUE PUSH2 0x22B JUMPI PUSH2 0xA6B PUSH2 0x450 CALLDATASIZE PUSH2 0x2F7 JUMP JUMPDEST PUSH2 0xA74 DUP3 PUSH2 0xD78 JUMP JUMPDEST SWAP3 DUP4 ISZERO PUSH2 0x407 JUMPI PUSH2 0x473 PUSH2 0xA87 SWAP2 PUSH2 0xF15 JUMP JUMPDEST SWAP3 DUP4 ISZERO PUSH2 0x407 JUMPI PUSH2 0x403 SWAP4 PUSH2 0x42B SWAP4 MOD SWAP2 MOD LT PUSH2 0xE6F JUMP JUMPDEST CALLVALUE PUSH2 0x22B JUMPI PUSH1 0x60 CALLDATASIZE PUSH1 0x3 NOT ADD SLT PUSH2 0x22B JUMPI PUSH1 0x4 CALLDATALOAD PUSH1 0x1 PUSH1 0x1 PUSH1 0x40 SHL SUB DUP2 GT PUSH2 0x22B JUMPI PUSH2 0xACF SWAP1 CALLDATASIZE SWAP1 PUSH1 0x4 ADD PUSH2 0x2D9 JUMP JUMPDEST PUSH1 0x24 CALLDATALOAD PUSH1 0xFF DUP2 AND SUB PUSH2 0x22B JUMPI PUSH2 0x42B PUSH2 0x403 SWAP2 PUSH2 0xAEA PUSH2 0x492 JUMP JUMPDEST POP PUSH2 0xD32 JUMP JUMPDEST CALLVALUE PUSH2 0x22B JUMPI PUSH1 0x80 CALLDATASIZE PUSH1 0x3 NOT ADD SLT PUSH2 0x22B JUMPI PUSH2 0xB09 PUSH2 0x21B JUMP JUMPDEST POP PUSH1 0x1 PUSH1 0x1 PUSH1 0x40 SHL SUB PUSH1 0x24 CALLDATALOAD DUP2 DUP2 GT PUSH2 0x22B JUMPI PUSH2 0xB2A SWAP1 CALLDATASIZE SWAP1 PUSH1 0x4 ADD PUSH2 0x2D9 JUMP JUMPDEST SWAP1 PUSH1 0x44 CALLDATALOAD DUP2 DUP2 GT PUSH2 0x22B JUMPI PUSH2 0xB43 SWAP1 CALLDATASIZE SWAP1 PUSH1 0x4 ADD PUSH2 0x2D9 JUMP JUMPDEST SWAP2 PUSH1 0x64 CALLDATALOAD SWAP2 DUP3 GT PUSH2 0x22B JUMPI PUSH2 0x403 SWAP3 PUSH2 0xB63 PUSH2 0xB69 SWAP4 CALLDATASIZE SWAP1 PUSH1 0x4 ADD PUSH2 0x2D9 JUMP JUMPDEST SWAP2 PUSH2 0xEA6 JUMP JUMPDEST PUSH1 0x40 MLOAD SWAP2 DUP3 SWAP2 DUP3 PUSH2 0x38F JUMP JUMPDEST CALLVALUE PUSH2 0x22B JUMPI PUSH1 0x20 CALLDATASIZE PUSH1 0x3 NOT ADD SLT PUSH2 0x22B JUMPI PUSH2 0x403 PUSH2 0xB91 PUSH2 0xE33 JUMP JUMPDEST PUSH1 0x4 CALLDATALOAD PUSH1 0x20 DUP3 ADD MSTORE PUSH1 0x40 MLOAD SWAP2 DUP3 SWAP2 PUSH1 0x20 DUP4 MSTORE PUSH1 0x20 DUP4 ADD SWAP1 PUSH2 0x36A JUMP JUMPDEST CALLVALUE PUSH2 0x22B JUMPI PUSH2 0xBC1 PUSH2 0x3BD PUSH2 0x3B4 CALLDATASIZE PUSH2 0x2F7 JUMP JUMPDEST DUP3 SUB SWAP2 DUP3 GT PUSH2 0x40C JUMPI PUSH2 0x3D5 SWAP1 PUSH2 0xD78 JUMP JUMPDEST CALLVALUE PUSH2 0x22B JUMPI PUSH2 0x403 PUSH2 0xBEE PUSH2 0xBE7 CALLDATASIZE PUSH2 0x802 JUMP JUMPDEST SWAP1 POP PUSH2 0xD0F JUMP JUMPDEST NOT PUSH1 0x40 MLOAD SWAP1 PUSH1 0x20 DUP3 ADD MSTORE PUSH1 0x20 DUP2 MSTORE PUSH2 0x42B DUP2 PUSH2 0x246 JUMP JUMPDEST CALLVALUE PUSH2 0x22B JUMPI PUSH2 0xC16 PUSH2 0x450 CALLDATASIZE PUSH2 0x2F7 JUMP JUMPDEST PUSH2 0xC1F DUP3 PUSH2 0xD78 JUMP JUMPDEST SWAP3 DUP4 ISZERO PUSH2 0x407 JUMPI PUSH2 0x473 PUSH2 0xC32 SWAP2 PUSH2 0xF15 JUMP JUMPDEST SWAP3 DUP4 ISZERO PUSH2 0x407 JUMPI PUSH2 0x403 SWAP4 PUSH2 0x42B SWAP4 MOD SWAP2 MOD GT ISZERO PUSH2 0xE6F JUMP JUMPDEST CALLVALUE PUSH2 0x22B JUMPI PUSH2 0x56B PUSH2 0xC5F PUSH2 0x562 CALLDATASIZE PUSH2 0x2F7 JUMP JUMPDEST SWAP2 DUP3 ISZERO PUSH2 0x407 JUMPI PUSH2 0xC6F SWAP1 PUSH2 0xD78 JUMP JUMPDEST DUP1 ISZERO PUSH2 0x407 JUMPI PUSH2 0x403 SWAP3 PUSH2 0xC81 PUSH2 0xE33 JUMP JUMPDEST SWAP3 MOD MOD PUSH1 0x20 DUP3 ADD MSTORE PUSH1 0x40 MLOAD SWAP2 DUP3 SWAP2 PUSH1 0x20 DUP4 MSTORE PUSH1 0x20 DUP4 ADD SWAP1 PUSH2 0x36A JUMP JUMPDEST PUSH4 0x4E487B71 PUSH1 0xE0 SHL PUSH1 0x0 MSTORE PUSH1 0x11 PUSH1 0x4 MSTORE PUSH1 0x24 PUSH1 0x0 REVERT JUMPDEST PUSH4 0x4E487B71 PUSH1 0xE0 SHL PUSH1 0x0 MSTORE PUSH1 0x12 PUSH1 0x4 MSTORE PUSH1 0x24 PUSH1 0x0 REVERT JUMPDEST PUSH2 0xCD2 DUP3 PUSH2 0xF15 JUMP JUMPDEST PUSH2 0xCDB DUP3 PUSH2 0xD78 JUMP JUMPDEST DUP1 ISZERO PUSH2 0x407 JUMPI PUSH2 0xCF3 PUSH2 0xCED DUP7 PUSH2 0xF15 JUMP JUMPDEST SWAP4 PUSH2 0xD78 JUMP JUMPDEST DUP1 ISZERO PUSH2 0x407 JUMPI PUSH1 0x1 SWAP4 MOD SWAP2 MOD LT ISZERO EQ PUSH2 0xD0A JUMPI POP SWAP1 JUMP JUMPDEST SWAP1 POP SWAP1 JUMP JUMPDEST PUSH1 0x20 DUP2 MLOAD SWAP2 ADD MLOAD SWAP1 PUSH1 0x20 DUP2 LT PUSH2 0xD23 JUMPI POP SWAP1 JUMP JUMPDEST PUSH1 0x0 NOT SWAP1 PUSH1 0x20 SUB PUSH1 0x3 SHL SHL AND SWAP1 JUMP JUMPDEST PUSH2 0xD3B SWAP1 PUSH2 0xD0F JUMP JUMPDEST PUSH1 0x40 MLOAD SWAP1 PUSH1 0x20 DUP3 ADD MSTORE PUSH1 0x20 DUP2 MSTORE PUSH2 0x2F4 DUP2 PUSH2 0x246 JUMP JUMPDEST SWAP2 SWAP1 SWAP2 PUSH2 0xD5D DUP4 PUSH2 0xF15 JUMP JUMPDEST PUSH2 0xD66 DUP3 PUSH2 0xD78 JUMP JUMPDEST DUP1 ISZERO PUSH2 0x407 JUMPI PUSH2 0xCF3 PUSH2 0xCED DUP6 PUSH2 0xF15 JUMP JUMPDEST PUSH1 0xFF AND DUP1 PUSH2 0xD87 JUMPI POP PUSH2 0x100 SWAP1 JUMP JUMPDEST PUSH1 0x1 DUP2 SUB PUSH2 0xD97 JUMPI POP PUSH3 0x10000 SWAP1 JUMP JUMPDEST PUSH1 0x2 DUP2 SUB PUSH2 0xDA9 JUMPI POP PUSH5 0x100000000 SWAP1 JUMP JUMPDEST PUSH1 0x3 DUP2 SUB PUSH2 0xDBF JUMPI POP PUSH9 0x10000000000000000 SWAP1 JUMP JUMPDEST PUSH1 0x4 DUP2 SUB PUSH2 0xDD0 JUMPI POP PUSH1 0x1 PUSH1 0x80 SHL SWAP1 JUMP JUMPDEST PUSH1 0x5 DUP2 SUB PUSH2 0xDDE JUMPI POP PUSH1 0x1 SWAP1 JUMP JUMPDEST PUSH1 0xC DUP2 SUB PUSH2 0xDEF JUMPI POP PUSH1 0x1 PUSH1 0xA0 SHL SWAP1 JUMP JUMPDEST PUSH1 0xD SUB PUSH2 0xDFB JUMPI PUSH1 0x1 SWAP1 JUMP JUMPDEST PUSH1 0x40 MLOAD PUSH3 0x461BCD PUSH1 0xE5 SHL DUP2 MSTORE PUSH1 0x20 PUSH1 0x4 DUP3 ADD MSTORE PUSH1 0x10 PUSH1 0x24 DUP3 ADD MSTORE PUSH16 0x556E737570706F727465642074797065 PUSH1 0x80 SHL PUSH1 0x44 DUP3 ADD MSTORE PUSH1 0x64 SWAP1 REVERT JUMPDEST PUSH1 0x40 MLOAD SWAP1 PUSH2 0xE40 DUP3 PUSH2 0x246 JUMP JUMPDEST PUSH1 0x20 DUP1 DUP4 MSTORE CALLDATASIZE DUP4 DUP3 ADD CALLDATACOPY JUMP JUMPDEST DUP1 MLOAD ISZERO PUSH2 0xE59 JUMPI PUSH1 0x20 ADD SWAP1 JUMP JUMPDEST PUSH4 0x4E487B71 PUSH1 0xE0 SHL PUSH1 0x0 MSTORE PUSH1 0x32 PUSH1 0x4 MSTORE PUSH1 0x24 PUSH1 0x0 REVERT JUMPDEST PUSH1 0x40 MLOAD SWAP1 PUSH2 0xE7C DUP3 PUSH2 0x246 JUMP JUMPDEST PUSH1 0x1 DUP3 MSTORE PUSH1 0x20 CALLDATASIZE DUP2 DUP5 ADD CALLDATACOPY ISZERO PUSH2 0xE9B JUMPI PUSH1 0x1 PUSH2 0xE97 DUP3 PUSH2 0xE4C JUMP JUMPDEST MSTORE8 SWAP1 JUMP JUMPDEST PUSH1 0x0 PUSH2 0xE97 DUP3 PUSH2 0xE4C JUMP JUMPDEST PUSH2 0xEBD SWAP1 PUSH2 0xEB8 PUSH1 0x20 DUP3 MLOAD GT ISZERO PUSH2 0xEC9 JUMP JUMPDEST PUSH2 0xE4C JUMP JUMPDEST MLOAD PUSH1 0xF8 SHR PUSH2 0xD0A JUMPI POP SWAP1 JUMP JUMPDEST ISZERO PUSH2 0xED0 JUMPI JUMP JUMPDEST PUSH1 0x40 MLOAD PUSH3 0x461BCD PUSH1 0xE5 SHL DUP2 MSTORE PUSH1 0x20 PUSH1 0x4 DUP3 ADD MSTORE PUSH1 0x18 PUSH1 0x24 DUP3 ADD MSTORE PUSH32 0x4279746573206C656E67746820657863656564732033322E0000000000000000 PUSH1 0x44 DUP3 ADD MSTORE PUSH1 0x64 SWAP1 REVERT JUMPDEST PUSH1 0x20 PUSH2 0xF24 DUP2 DUP4 MLOAD GT ISZERO PUSH2 0xEC9 JUMP JUMPDEST DUP2 MLOAD DUP2 SUB SWAP2 DUP2 DUP4 GT PUSH2 0x40C JUMPI PUSH2 0xF9A DUP3 PUSH2 0xF56 PUSH2 0xF40 DUP7 PUSH2 0x287 JUMP JUMPDEST SWAP6 PUSH2 0xF4E PUSH1 0x40 MLOAD SWAP8 DUP9 PUSH2 0x266 JUMP JUMPDEST DUP1 DUP8 MSTORE PUSH2 0x287 JUMP JUMPDEST DUP2 DUP7 ADD SWAP6 SWAP1 PUSH1 0x1F NOT ADD CALLDATASIZE DUP8 CALLDATACOPY PUSH1 0x40 MLOAD SWAP4 DUP5 SWAP2 PUSH2 0xF7A DUP5 DUP5 ADD SWAP9 DUP10 SWAP3 MLOAD SWAP3 DUP4 SWAP2 PUSH2 0x347 JUMP JUMPDEST DUP3 ADD PUSH2 0xF8E DUP3 MLOAD DUP1 SWAP4 DUP7 DUP1 DUP6 ADD SWAP2 ADD PUSH2 0x347 JUMP JUMPDEST ADD SUB DUP1 DUP5 MSTORE ADD DUP3 PUSH2 0x266 JUMP JUMPDEST DUP1 MLOAD DUP2 ADD SUB SLT PUSH2 0x22B JUMPI MLOAD SWAP1 JUMP INVALID LOG2 PUSH5 0x6970667358 0x22 SLT KECCAK256 DELEGATECALL 0xD1 0xCC MSTORE ADDMOD 0xF DUP12 0xF8 0x2F PUSH13 0xF4E90CB92EBE13652308DE80A1 SWAP11 CHAINID 0xBA 0x1F BLOBHASH MUL PUSH26 0xD16164736F6C6343000818003300000000000000000000000000 "},"methodIdentifiers":{"add(uint8,bytes,bytes)":"002df619","and(uint8,bytes,bytes)":"ae104cfd","boolToBytes(bool)":"b8fa1043","cast(uint8,bytes,uint8)":"4a5a1117","decrypt(uint8,bytes,uint256)":"7c4697ab","div(uint8,bytes,bytes)":"1f4cda2f","eq(uint8,bytes,bytes)":"92348b34","getNetworkPublicKey(int32)":"1b1b484e","gt(uint8,bytes,bytes)":"874b1c10","gte(uint8,bytes,bytes)":"650de1cf","log(string)":"41304fac","lt(uint8,bytes,bytes)":"b9c7a54b","lte(uint8,bytes,bytes)":"eb274b77","max(uint8,bytes,bytes)":"0b80518e","maxValue(uint8)":"55e5e6c5","min(uint8,bytes,bytes)":"5211c679","mul(uint8,bytes,bytes)":"4284f765","ne(uint8,bytes,bytes)":"13c0c9ae","not(uint8,bytes)":"d260d9ab","or(uint8,bytes,bytes)":"72d456f5","random(uint8,uint64,int32)":"aa626e8a","rem(uint8,bytes,bytes)":"eb376804","req(uint8,bytes)":"7d23f1db","sealOutput(uint8,bytes,bytes)":"a1848ff3","select(uint8,bytes,bytes,bytes)":"c2d96952","shl(uint8,bytes,bytes)":"ae42450a","shr(uint8,bytes,bytes)":"9944d12d","sub(uint8,bytes,bytes)":"cc2cbeff","trivialEncrypt(bytes,uint8,int32)":"ba19ac28","uint256ToBytes(uint256)":"c7559da4","verify(uint8,bytes,int32)":"21b50ba3","xor(uint8,bytes,bytes)":"5e639f19"}}}}}