{"@fhenixprotocol/contracts/utils/debug/MockFheOps.sol":{"Precompiles":{"abi":[{"inputs":[],"name":"Fheos","outputs":[{"internalType":"address","name":"","type":"address"}],"stateMutability":"view","type":"function"}],"evm":{"bytecode":{"linkReferences":{},"object":"608080604052346018576075908161001e823930815050f35b600080fdfe6080806040526004361015601257600080fd5b60003560e01c6313d8d46414602657600080fd5b6000366003190112603a5780608060209252f35b600080fdfea2646970667358221220785293a9bb1494afac00c230de8fb4a1dca5c527f05c78bb795d15ff3c8a724464736f6c63430008180033","opcodes":"PUSH1 0x80 DUP1 PUSH1 0x40 MSTORE CALLVALUE PUSH1 0x18 JUMPI PUSH1 0x75 SWAP1 DUP2 PUSH2 0x1E DUP3 CODECOPY ADDRESS DUP2 POP POP RETURN JUMPDEST PUSH1 0x0 DUP1 REVERT INVALID PUSH1 0x80 DUP1 PUSH1 0x40 MSTORE PUSH1 0x4 CALLDATASIZE LT ISZERO PUSH1 0x12 JUMPI PUSH1 0x0 DUP1 REVERT JUMPDEST PUSH1 0x0 CALLDATALOAD PUSH1 0xE0 SHR PUSH4 0x13D8D464 EQ PUSH1 0x26 JUMPI PUSH1 0x0 DUP1 REVERT JUMPDEST PUSH1 0x0 CALLDATASIZE PUSH1 0x3 NOT ADD SLT PUSH1 0x3A JUMPI DUP1 PUSH1 0x80 PUSH1 0x20 SWAP3 MSTORE RETURN JUMPDEST PUSH1 0x0 DUP1 REVERT INVALID LOG2 PUSH5 0x6970667358 0x22 SLT KECCAK256 PUSH25 0x5293A9BB1494AFAC00C230DE8FB4A1DCA5C527F05C78BB795D ISZERO SELFDESTRUCT EXTCODECOPY DUP11 PUSH19 0x4464736F6C6343000818003300000000000000 "},"methodIdentifiers":{"Fheos()":"13d8d464"}}}}}