{
  "_format": "hh-sol-artifact-1",
  "contractName": "PermitRegistry",
  "sourceName": "contracts/PermitRegistry.sol",
  "abi": [
    {
      "anonymous": false,
      "inputs": [
        {
          "indexed": true,
          "internalType": "bytes32",
          "name": "permitId",
          "type": "bytes32"
        },
        {
          "indexed": true,
          "internalType": "address",
          "name": "grantor",
          "type": "address"
        },
        {
          "indexed": true,
          "internalType": "address",
          "name": "grantee",
          "type": "address"
        },
        {
          "indexed": false,
          "internalType": "enum PermitRegistry.PermitType",
          "name": "ptype",
          "type": "uint8"
        },
        {
          "indexed": false,
          "internalType": "uint256",
          "name": "expiresAt",
          "type": "uint256"
        }
      ],
      "name": "PermitGranted",
      "type": "event"
    },
    {
      "anonymous": false,
      "inputs": [
        {
          "indexed": true,
          "internalType": "bytes32",
          "name": "permitId",
          "type": "bytes32"
        },
        {
          "indexed": true,
          "internalType": "address",
          "name": "grantor",
          "type": "address"
        }
      ],
      "name": "PermitRevoked",
      "type": "event"
    },
    {
      "inputs": [
        {
          "internalType": "address",
          "name": "user",
          "type": "address"
        }
      ],
      "name": "getPermitsForAddress",
      "outputs": [
        {
          "components": [
            {
              "internalType": "bytes32",
              "name": "permitId",
              "type": "bytes32"
            },
            {
              "internalType": "address",
              "name": "grantor",
              "type": "address"
            },
            {
              "internalType": "address",
              "name": "grantee",
              "type": "address"
            },
            {
              "internalType": "enum PermitRegistry.PermitType",
              "name": "ptype",
              "type": "uint8"
            },
            {
              "internalType": "uint256",
              "name": "expiresAt",
              "type": "uint256"
            },
            {
              "internalType": "bool",
              "name": "revoked",
              "type": "bool"
            },
            {
              "internalType": "bool",
              "name": "valid",
              "type": "bool"
            }
          ],
          "internalType": "struct PermitRegistry.PermitView[]",
          "name": "activePermits",
          "type": "tuple[]"
        }
      ],
      "stateMutability": "view",
      "type": "function"
    },
    {
      "inputs": [
        {
          "internalType": "address",
          "name": "grantee",
          "type": "address"
        },
        {
          "internalType": "enum PermitRegistry.PermitType",
          "name": "ptype",
          "type": "uint8"
        },
        {
          "internalType": "uint256",
          "name": "durationSeconds",
          "type": "uint256"
        }
      ],
      "name": "grantPermit",
      "outputs": [
        {
          "internalType": "bytes32",
          "name": "permitId",
          "type": "bytes32"
        }
      ],
      "stateMutability": "nonpayable",
      "type": "function"
    },
    {
      "inputs": [
        {
          "internalType": "bytes32",
          "name": "",
          "type": "bytes32"
        }
      ],
      "name": "permits",
      "outputs": [
        {
          "internalType": "address",
          "name": "grantor",
          "type": "address"
        },
        {
          "internalType": "address",
          "name": "grantee",
          "type": "address"
        },
        {
          "internalType": "enum PermitRegistry.PermitType",
          "name": "ptype",
          "type": "uint8"
        },
        {
          "internalType": "uint256",
          "name": "expiresAt",
          "type": "uint256"
        },
        {
          "internalType": "bool",
          "name": "revoked",
          "type": "bool"
        }
      ],
      "stateMutability": "view",
      "type": "function"
    },
    {
      "inputs": [
        {
          "internalType": "bytes32",
          "name": "permitId",
          "type": "bytes32"
        }
      ],
      "name": "revokePermit",
      "outputs": [],
      "stateMutability": "nonpayable",
      "type": "function"
    },
    {
      "inputs": [
        {
          "internalType": "bytes32",
          "name": "permitId",
          "type": "bytes32"
        },
        {
          "internalType": "address",
          "name": "expectedGrantee",
          "type": "address"
        },
        {
          "internalType": "enum PermitRegistry.PermitType",
          "name": "requiredType",
          "type": "uint8"
        }
      ],
      "name": "verifyPermit",
      "outputs": [
        {
          "internalType": "bool",
          "name": "valid",
          "type": "bool"
        }
      ],
      "stateMutability": "view",
      "type": "function"
    }
  ],
  "bytecode": "0x6080806040523461001657610a7f908161001c8239f35b600080fdfe6040608081526004908136101561001557600080fd5b60e09060008035831c6322ed31eb811461078457806339747ad51461071a578063548676ee146104ae5780636330c086146103915763f0bf8a421461005957600080fd5b3461038e576020908160031936011261038e576001600160a01b03938461007e6107d1565b168252600183528382206002845284832090805491805492601f6100a285836108c8565b6100ab8161095f565b9b8a519c831993849101168d01908d821067ffffffffffffffff83111761037b5750906100e5918b989c9a999d9b96959652808b5261095f565b018a5b81811061032857505089918a5b8281106102615750505088905b83821061019d575050505080519482860193838752855180955283838801960197925b8584106101325787870388f35b90919293949585846001928b51805182528684820151168483015286868201511686830152610169606080830151908401906107ec565b6080808201519083015260a08082015115159083015260c08091015115159082015201990194019291909795949397610125565b816102516102448c61024a6001958d9f9b8d9f9b9e99988f909e829f6102296101c784928e6108f7565b929054600393841b1c98898152808752209280845416948d8501549060ff9260a0976102056102008660028b0154998b01541699610977565b610a13565b9983519d8e610213816108ac565b528d01528216908b0152851c16606089016108eb565b6080870152151590850152151560c0840152809384916109cb565b986109da565b528c6109da565b5001909198969397959498610102565b899b97989a96999493888a8c808f61027987896108f7565b929054600393841b1c958681528086522092818454169160018501549260028601549486015460ff16956102ac90610977565b6102b590610a13565b968351986102c28a6108ac565b895288015282169086015260a01c60ff1660608501906102e1916108eb565b6080840152151560a0830152151560c0820152819661030088936109cb565b9761030a916109da565b52610315908d6109da565b506001019a98959997969a9392936100f5565b968787828e9a8d9f9d829d9f9b9e849a999a5194610345866108ac565b81865281858701528501528c60608501528c60808501528c60a08501528c60c0850152010152019a98959997969a9392936100e8565b634e487b7160e01b8a5260419052602489fd5b80fd5b509083346104aa5760203660031901126104aa578035808452602084905282842080549193916001600160a01b03168015610474573303610443576003019182549160ff831661040f57505060ff1916600117905533907f62ca1262c6265ffdd0b5d1843bcc1e9c3470739d4ff60decb2a4a93e3d56ab188380a380f35b906020606492519162461bcd60e51b8352820152600e60248201526d14115493525517d4915593d2d15160921b6044820152fd5b815162461bcd60e51b8152602081850152600b60248201526a2727aa2fa3a920a72a27a960a91b6044820152606490fd5b825162461bcd60e51b8152602081860152601060248201526f14115493525517d393d517d193d5539160821b6044820152606490fd5b8280fd5b50915034610716576060366003190112610716576104ca6107d1565b926024356003811015610712576001600160a01b0393858516929060443584156106dd5780156106a757338252602096600188528683205498875199898b01913360601b83526bffffffffffffffffffffffff199060601b1660348c01528660f81b60488c01524260498c01524460698c015260898b015260898a5260c08a018a811067ffffffffffffffff8211176106945790899a6105739a928a52519020988993426108c8565b948851926105808461087a565b338452828401918983528a8501916105988a846108eb565b8760608701958a87526080880198828a52825252808c89209651166bffffffffffffffffffffffff60a01b8754161786556001860193511690835492519060038210156106815750938c96936003938d97936106459a9760ff60a01b9060a01b16916affffffffffffffffffffff60a81b1617179055516002820155019051151560ff8019835416911617905533815260018a5261063883838320610925565b86815260028a5220610925565b610651845180936107ec565b85820152837f42266732931ee33feb29161e25b5c12e4120cb3a71edf4d39d6e4ed8f359c3d4843393a451908152f35b634e487b7160e01b895260219052602488fd5b634e487b7160e01b855260418652602485fd5b855162461bcd60e51b8152602081850152601060248201526f24a72b20a624a22fa22aa920aa24a7a760811b6044820152606490fd5b855162461bcd60e51b8152602081850152600f60248201526e494e56414c49445f4752414e54454560881b6044820152606490fd5b8380fd5b5080fd5b509083346104aa5760203660031901126104aa5760a09282913581528060205220600180841b0390610776828254169360ff60018401549181600360028701549601541695815197885283166020880152860191871c166107ec565b606083015215156080820152f35b509083346104aa5760603660031901126104aa57602435906001600160a01b03821682036107125760443593600385101561038e5750926107c8916020943561080f565b90519015158152f35b600435906001600160a01b03821682036107e757565b600080fd5b9060038210156107f95752565b634e487b7160e01b600052602160045260246000fd5b600090815260208190526040812080549293926001600160a01b0391908216156108725760ff600382015416610872576002810154421161087257600101549381169084160361086c575060ff6108699260a01c166109ee565b90565b91505090565b505091505090565b60a0810190811067ffffffffffffffff82111761089657604052565b634e487b7160e01b600052604160045260246000fd5b60e0810190811067ffffffffffffffff82111761089657604052565b919082018092116108d557565b634e487b7160e01b600052601160045260246000fd5b60038210156107f95752565b805482101561090f5760005260206000200190600090565b634e487b7160e01b600052603260045260246000fd5b80546801000000000000000081101561089657610947916001820181556108f7565b819291549060031b91821b91600019901b1916179055565b67ffffffffffffffff81116108965760051b60200190565b906040516109848161087a565b608060ff600383956109b78360018060a01b038084541688526001840154908116602089015260a01c16604087016108eb565b600281015460608601520154161515910152565b60001981146108d55760010190565b805182101561090f5760209160051b010190565b60038110156107f95760028114610a0c5760038210156107f9571490565b5050600190565b80516001600160a01b031615159081610a3c575b81610a30575090565b60609150015142111590565b6080810151159150610a2756fea2646970667358221220d5b497cb06a97f64be12577768dc78501ba656e181324cd1dede3cdba57e758264736f6c63430008180033",
  "linkReferences": {},
  "deployedLinkReferences": {}
}