{
  "_format": "hh-sol-artifact-1",
  "contractName": "MockFheOps",
  "sourceName": "@fhenixprotocol/contracts/utils/debug/MockFheOps.sol",
  "abi": [
    {
      "inputs": [
        {
          "internalType": "uint8",
          "name": "utype",
          "type": "uint8"
        },
        {
          "internalType": "bytes",
          "name": "lhsHash",
          "type": "bytes"
        },
        {
          "internalType": "bytes",
          "name": "rhsHash",
          "type": "bytes"
        }
      ],
      "name": "add",
      "outputs": [
        {
          "internalType": "bytes",
          "name": "",
          "type": "bytes"
        }
      ],
      "stateMutability": "pure",
      "type": "function"
    },
    {
      "inputs": [
        {
          "internalType": "uint8",
          "name": "utype",
          "type": "uint8"
        },
        {
          "internalType": "bytes",
          "name": "lhsHash",
          "type": "bytes"
        },
        {
          "internalType": "bytes",
          "name": "rhsHash",
          "type": "bytes"
        }
      ],
      "name": "and",
      "outputs": [
        {
          "internalType": "bytes",
          "name": "",
          "type": "bytes"
        }
      ],
      "stateMutability": "pure",
      "type": "function"
    },
    {
      "inputs": [
        {
          "internalType": "bool",
          "name": "value",
          "type": "bool"
        }
      ],
      "name": "boolToBytes",
      "outputs": [
        {
          "internalType": "bytes",
          "name": "",
          "type": "bytes"
        }
      ],
      "stateMutability": "pure",
      "type": "function"
    },
    {
      "inputs": [
        {
          "internalType": "uint8",
          "name": "",
          "type": "uint8"
        },
        {
          "internalType": "bytes",
          "name": "input",
          "type": "bytes"
        },
        {
          "internalType": "uint8",
          "name": "toType",
          "type": "uint8"
        }
      ],
      "name": "cast",
      "outputs": [
        {
          "internalType": "bytes",
          "name": "",
          "type": "bytes"
        }
      ],
      "stateMutability": "pure",
      "type": "function"
    },
    {
      "inputs": [
        {
          "internalType": "uint8",
          "name": "",
          "type": "uint8"
        },
        {
          "internalType": "bytes",
          "name": "input",
          "type": "bytes"
        },
        {
          "internalType": "uint256",
          "name": "",
          "type": "uint256"
        }
      ],
      "name": "decrypt",
      "outputs": [
        {
          "internalType": "uint256",
          "name": "",
          "type": "uint256"
        }
      ],
      "stateMutability": "pure",
      "type": "function"
    },
    {
      "inputs": [
        {
          "internalType": "uint8",
          "name": "utype",
          "type": "uint8"
        },
        {
          "internalType": "bytes",
          "name": "lhsHash",
          "type": "bytes"
        },
        {
          "internalType": "bytes",
          "name": "rhsHash",
          "type": "bytes"
        }
      ],
      "name": "div",
      "outputs": [
        {
          "internalType": "bytes",
          "name": "",
          "type": "bytes"
        }
      ],
      "stateMutability": "pure",
      "type": "function"
    },
    {
      "inputs": [
        {
          "internalType": "uint8",
          "name": "utype",
          "type": "uint8"
        },
        {
          "internalType": "bytes",
          "name": "lhsHash",
          "type": "bytes"
        },
        {
          "internalType": "bytes",
          "name": "rhsHash",
          "type": "bytes"
        }
      ],
      "name": "eq",
      "outputs": [
        {
          "internalType": "bytes",
          "name": "",
          "type": "bytes"
        }
      ],
      "stateMutability": "pure",
      "type": "function"
    },
    {
      "inputs": [
        {
          "internalType": "int32",
          "name": "",
          "type": "int32"
        }
      ],
      "name": "getNetworkPublicKey",
      "outputs": [
        {
          "internalType": "bytes",
          "name": "",
          "type": "bytes"
        }
      ],
      "stateMutability": "pure",
      "type": "function"
    },
    {
      "inputs": [
        {
          "internalType": "uint8",
          "name": "utype",
          "type": "uint8"
        },
        {
          "internalType": "bytes",
          "name": "lhsHash",
          "type": "bytes"
        },
        {
          "internalType": "bytes",
          "name": "rhsHash",
          "type": "bytes"
        }
      ],
      "name": "gt",
      "outputs": [
        {
          "internalType": "bytes",
          "name": "",
          "type": "bytes"
        }
      ],
      "stateMutability": "pure",
      "type": "function"
    },
    {
      "inputs": [
        {
          "internalType": "uint8",
          "name": "utype",
          "type": "uint8"
        },
        {
          "internalType": "bytes",
          "name": "lhsHash",
          "type": "bytes"
        },
        {
          "internalType": "bytes",
          "name": "rhsHash",
          "type": "bytes"
        }
      ],
      "name": "gte",
      "outputs": [
        {
          "internalType": "bytes",
          "name": "",
          "type": "bytes"
        }
      ],
      "stateMutability": "pure",
      "type": "function"
    },
    {
      "inputs": [
        {
          "internalType": "string",
          "name": "s",
          "type": "string"
        }
      ],
      "name": "log",
      "outputs": [],
      "stateMutability": "pure",
      "type": "function"
    },
    {
      "inputs": [
        {
          "internalType": "uint8",
          "name": "utype",
          "type": "uint8"
        },
        {
          "internalType": "bytes",
          "name": "lhsHash",
          "type": "bytes"
        },
        {
          "internalType": "bytes",
          "name": "rhsHash",
          "type": "bytes"
        }
      ],
      "name": "lt",
      "outputs": [
        {
          "internalType": "bytes",
          "name": "",
          "type": "bytes"
        }
      ],
      "stateMutability": "pure",
      "type": "function"
    },
    {
      "inputs": [
        {
          "internalType": "uint8",
          "name": "utype",
          "type": "uint8"
        },
        {
          "internalType": "bytes",
          "name": "lhsHash",
          "type": "bytes"
        },
        {
          "internalType": "bytes",
          "name": "rhsHash",
          "type": "bytes"
        }
      ],
      "name": "lte",
      "outputs": [
        {
          "internalType": "bytes",
          "name": "",
          "type": "bytes"
        }
      ],
      "stateMutability": "pure",
      "type": "function"
    },
    {
      "inputs": [
        {
          "internalType": "uint8",
          "name": "utype",
          "type": "uint8"
        },
        {
          "internalType": "bytes",
          "name": "lhsHash",
          "type": "bytes"
        },
        {
          "internalType": "bytes",
          "name": "rhsHash",
          "type": "bytes"
        }
      ],
      "name": "max",
      "outputs": [
        {
          "internalType": "bytes",
          "name": "",
          "type": "bytes"
        }
      ],
      "stateMutability": "pure",
      "type": "function"
    },
    {
      "inputs": [
        {
          "internalType": "uint8",
          "name": "utype",
          "type": "uint8"
        }
      ],
      "name": "maxValue",
      "outputs": [
        {
          "internalType": "uint256",
          "name": "",
          "type": "uint256"
        }
      ],
      "stateMutability": "pure",
      "type": "function"
    },
    {
      "inputs": [
        {
          "internalType": "uint8",
          "name": "utype",
          "type": "uint8"
        },
        {
          "internalType": "bytes",
          "name": "lhsHash",
          "type": "bytes"
        },
        {
          "internalType": "bytes",
          "name": "rhsHash",
          "type": "bytes"
        }
      ],
      "name": "min",
      "outputs": [
        {
          "internalType": "bytes",
          "name": "",
          "type": "bytes"
        }
      ],
      "stateMutability": "pure",
      "type": "function"
    },
    {
      "inputs": [
        {
          "internalType": "uint8",
          "name": "utype",
          "type": "uint8"
        },
        {
          "internalType": "bytes",
          "name": "lhsHash",
          "type": "bytes"
        },
        {
          "internalType": "bytes",
          "name": "rhsHash",
          "type": "bytes"
        }
      ],
      "name": "mul",
      "outputs": [
        {
          "internalType": "bytes",
          "name": "",
          "type": "bytes"
        }
      ],
      "stateMutability": "pure",
      "type": "function"
    },
    {
      "inputs": [
        {
          "internalType": "uint8",
          "name": "utype",
          "type": "uint8"
        },
        {
          "internalType": "bytes",
          "name": "lhsHash",
          "type": "bytes"
        },
        {
          "internalType": "bytes",
          "name": "rhsHash",
          "type": "bytes"
        }
      ],
      "name": "ne",
      "outputs": [
        {
          "internalType": "bytes",
          "name": "",
          "type": "bytes"
        }
      ],
      "stateMutability": "pure",
      "type": "function"
    },
    {
      "inputs": [
        {
          "internalType": "uint8",
          "name": "utype",
          "type": "uint8"
        },
        {
          "internalType": "bytes",
          "name": "value",
          "type": "bytes"
        }
      ],
      "name": "not",
      "outputs": [
        {
          "internalType": "bytes",
          "name": "",
          "type": "bytes"
        }
      ],
      "stateMutability": "pure",
      "type": "function"
    },
    {
      "inputs": [
        {
          "internalType": "uint8",
          "name": "utype",
          "type": "uint8"
        },
        {
          "internalType": "bytes",
          "name": "lhsHash",
          "type": "bytes"
        },
        {
          "internalType": "bytes",
          "name": "rhsHash",
          "type": "bytes"
        }
      ],
      "name": "or",
      "outputs": [
        {
          "internalType": "bytes",
          "name": "",
          "type": "bytes"
        }
      ],
      "stateMutability": "pure",
      "type": "function"
    },
    {
      "inputs": [
        {
          "internalType": "uint8",
          "name": "utype",
          "type": "uint8"
        },
        {
          "internalType": "uint64",
          "name": "",
          "type": "uint64"
        },
        {
          "internalType": "int32",
          "name": "",
          "type": "int32"
        }
      ],
      "name": "random",
      "outputs": [
        {
          "internalType": "bytes",
          "name": "",
          "type": "bytes"
        }
      ],
      "stateMutability": "view",
      "type": "function"
    },
    {
      "inputs": [
        {
          "internalType": "uint8",
          "name": "utype",
          "type": "uint8"
        },
        {
          "internalType": "bytes",
          "name": "lhsHash",
          "type": "bytes"
        },
        {
          "internalType": "bytes",
          "name": "rhsHash",
          "type": "bytes"
        }
      ],
      "name": "rem",
      "outputs": [
        {
          "internalType": "bytes",
          "name": "",
          "type": "bytes"
        }
      ],
      "stateMutability": "pure",
      "type": "function"
    },
    {
      "inputs": [
        {
          "internalType": "uint8",
          "name": "",
          "type": "uint8"
        },
        {
          "internalType": "bytes",
          "name": "input",
          "type": "bytes"
        }
      ],
      "name": "req",
      "outputs": [
        {
          "internalType": "bytes",
          "name": "",
          "type": "bytes"
        }
      ],
      "stateMutability": "pure",
      "type": "function"
    },
    {
      "inputs": [
        {
          "internalType": "uint8",
          "name": "",
          "type": "uint8"
        },
        {
          "internalType": "bytes",
          "name": "ctHash",
          "type": "bytes"
        },
        {
          "internalType": "bytes",
          "name": "",
          "type": "bytes"
        }
      ],
      "name": "sealOutput",
      "outputs": [
        {
          "internalType": "string",
          "name": "",
          "type": "string"
        }
      ],
      "stateMutability": "pure",
      "type": "function"
    },
    {
      "inputs": [
        {
          "internalType": "uint8",
          "name": "",
          "type": "uint8"
        },
        {
          "internalType": "bytes",
          "name": "controlHash",
          "type": "bytes"
        },
        {
          "internalType": "bytes",
          "name": "ifTrueHash",
          "type": "bytes"
        },
        {
          "internalType": "bytes",
          "name": "ifFalseHash",
          "type": "bytes"
        }
      ],
      "name": "select",
      "outputs": [
        {
          "internalType": "bytes",
          "name": "",
          "type": "bytes"
        }
      ],
      "stateMutability": "pure",
      "type": "function"
    },
    {
      "inputs": [
        {
          "internalType": "uint8",
          "name": "",
          "type": "uint8"
        },
        {
          "internalType": "bytes",
          "name": "lhsHash",
          "type": "bytes"
        },
        {
          "internalType": "bytes",
          "name": "rhsHash",
          "type": "bytes"
        }
      ],
      "name": "shl",
      "outputs": [
        {
          "internalType": "bytes",
          "name": "",
          "type": "bytes"
        }
      ],
      "stateMutability": "pure",
      "type": "function"
    },
    {
      "inputs": [
        {
          "internalType": "uint8",
          "name": "",
          "type": "uint8"
        },
        {
          "internalType": "bytes",
          "name": "lhsHash",
          "type": "bytes"
        },
        {
          "internalType": "bytes",
          "name": "rhsHash",
          "type": "bytes"
        }
      ],
      "name": "shr",
      "outputs": [
        {
          "internalType": "bytes",
          "name": "",
          "type": "bytes"
        }
      ],
      "stateMutability": "pure",
      "type": "function"
    },
    {
      "inputs": [
        {
          "internalType": "uint8",
          "name": "utype",
          "type": "uint8"
        },
        {
          "internalType": "bytes",
          "name": "lhsHash",
          "type": "bytes"
        },
        {
          "internalType": "bytes",
          "name": "rhsHash",
          "type": "bytes"
        }
      ],
      "name": "sub",
      "outputs": [
        {
          "internalType": "bytes",
          "name": "",
          "type": "bytes"
        }
      ],
      "stateMutability": "pure",
      "type": "function"
    },
    {
      "inputs": [
        {
          "internalType": "bytes",
          "name": "input",
          "type": "bytes"
        },
        {
          "internalType": "uint8",
          "name": "toType",
          "type": "uint8"
        },
        {
          "internalType": "int32",
          "name": "",
          "type": "int32"
        }
      ],
      "name": "trivialEncrypt",
      "outputs": [
        {
          "internalType": "bytes",
          "name": "",
          "type": "bytes"
        }
      ],
      "stateMutability": "pure",
      "type": "function"
    },
    {
      "inputs": [
        {
          "internalType": "uint256",
          "name": "value",
          "type": "uint256"
        }
      ],
      "name": "uint256ToBytes",
      "outputs": [
        {
          "internalType": "bytes",
          "name": "",
          "type": "bytes"
        }
      ],
      "stateMutability": "pure",
      "type": "function"
    },
    {
      "inputs": [
        {
          "internalType": "uint8",
          "name": "",
          "type": "uint8"
        },
        {
          "internalType": "bytes",
          "name": "input",
          "type": "bytes"
        },
        {
          "internalType": "int32",
          "name": "",
          "type": "int32"
        }
      ],
      "name": "verify",
      "outputs": [
        {
          "internalType": "bytes",
          "name": "",
          "type": "bytes"
        }
      ],
      "stateMutability": "pure",
      "type": "function"
    },
    {
      "inputs": [
        {
          "internalType": "uint8",
          "name": "utype",
          "type": "uint8"
        },
        {
          "internalType": "bytes",
          "name": "lhsHash",
          "type": "bytes"
        },
        {
          "internalType": "bytes",
          "name": "rhsHash",
          "type": "bytes"
        }
      ],
      "name": "xor",
      "outputs": [
        {
          "internalType": "bytes",
          "name": "",
          "type": "bytes"
        }
      ],
      "stateMutability": "pure",
      "type": "function"
    }
  ],
  "bytecode": "0x6080806040523461001657610fde908161001c8239f35b600080fdfe6080604052600436101561001257600080fd5b60003560e01c80622df619146102165780630b80518e1461021157806313c0c9ae1461020c5780631b1b484e146102075780631f4cda2f1461020257806321b50ba3146101fd57806341304fac146101f85780634284f765146101f35780634a5a1117146101ee5780635211c679146101e957806355e5e6c5146101e45780635e639f19146101df578063650de1cf146101da57806372d456f5146101d55780637c4697ab146101d05780637d23f1db146101cb578063874b1c10146101c657806392348b34146101c15780639944d12d146101bc578063a1848ff3146101b7578063aa626e8a146101b2578063ae104cfd146101ad578063ae42450a146101a8578063b8fa1043146101a3578063b9c7a54b1461019e578063ba19ac2814610199578063c2d9695214610194578063c7559da41461018f578063cc2cbeff1461018a578063d260d9ab14610185578063eb274b77146101805763eb3768041461017b57600080fd5b610c4b565b610c05565b610bd3565b610bad565b610b75565b610af0565b610a9f565b610a5a565b610a31565b610a11565b6109e3565b610965565b61093d565b6108fb565b6108b6565b610871565b61083b565b6107bf565b610791565b61074b565b61070f565b6106e4565b6106ca565b610679565b61064b565b610608565b6105af565b61054e565b6104a2565b61043f565b610411565b6103a0565b6004359060ff8216820361022b57565b600080fd5b634e487b7160e01b600052604160045260246000fd5b604081019081106001600160401b0382111761026157604052565b610230565b90601f801991011681019081106001600160401b0382111761026157604052565b6001600160401b03811161026157601f01601f191660200190565b9291926102ae82610287565b916102bc6040519384610266565b82948184528183011161022b578281602093846000960137010152565b9080601f8301121561022b578160206102f4933591016102a2565b90565b606060031982011261022b5760043560ff8116810361022b57916001600160401b0360243581811161022b5783610330916004016102d9565b9260443591821161022b576102f4916004016102d9565b60005b83811061035a5750506000910152565b818101518382015260200161034a565b9060209161038381518092818552858086019101610347565b601f01601f1916010190565b9060206102f492818152019061036a565b3461022b576103c36103bd6103b4366102f7565b93919290610f15565b92610f15565b820180921161040c576103d590610d78565b90811561040757610403916103e8610e33565b9106602082015260405191829160208352602083019061036a565b0390f35b610cb3565b610c9d565b3461022b5761040361042b610425366102f7565b91610cc9565b60405191829160208352602083019061036a565b3461022b57610457610450366102f7565b9290610f15565b61046082610d78565b9283156104075761047361047991610f15565b92610d78565b928315610407576104039361042b930691061415610e6f565b604435908160030b820361022b57565b3461022b57602036600319011261022b576004358060030b0361022b5760405160808101908082106001600160401b038311176102615761040391604052604181527f28282d282d5f282d5f2d295f2d292d292920596f75277665207374657070656460208201527f20696e746f207468652077726f6e67206e65696768626f72686f6f642070616c6040820152601760f91b606082015260405191829160208352602083019061036a565b3461022b5761056b610571610562366102f7565b92919390610f15565b91610f15565b9182156104075761058190610d78565b80156104075761040392610593610e33565b920406602082015260405191829160208352602083019061036a565b3461022b57606036600319011261022b576105c861021b565b506024356001600160401b03811161022b576105eb6104039136906004016102d9565b6105f3610492565b5060405191829160208352602083019061036a565b3461022b57602036600319011261022b576004356001600160401b03811161022b573660238201121561022b576106499036906024816004013591016102a2565b005b3461022b5761065f6103bd6103b4366102f7565b9182810292818404149015171561040c576103d590610d78565b3461022b57606036600319011261022b5761069261021b565b506024356001600160401b03811161022b576106b29036906004016102d9565b60443560ff81160361022b5761042b61040391610d32565b3461022b5761040361042b6106de366102f7565b91610d51565b3461022b57602036600319011261022b57602061070761070261021b565b610d78565b604051908152f35b3461022b5761040361072e610734610726366102f7565b939150610d0f565b91610d0f565b186040519060208201526020815261042b81610246565b3461022b5761075c610450366102f7565b61076582610d78565b9283156104075761047361077891610f15565b928315610407576104039361042b930691061015610e6f565b3461022b5761040361072e6107a8610726366102f7565b176040519060208201526020815261042b81610246565b3461022b57606036600319011261022b576107d861021b565b506024356001600160401b03811161022b576107076107fd60209236906004016102d9565b610f15565b90604060031983011261022b5760043560ff8116810361022b5791602435906001600160401b03821161022b576102f4916004016102d9565b3461022b5761084936610802565b905061085481610f15565b1561022b576104039060405191829160208352602083019061036a565b3461022b57610882610450366102f7565b61088b82610d78565b9283156104075761047361089e91610f15565b928315610407576104039361042b9306910611610e6f565b3461022b576108c7610450366102f7565b6108d082610d78565b928315610407576104736108e391610f15565b928315610407576104039361042b9306910614610e6f565b3461022b5761040361056b61091a610912366102f7565b939150610f15565b1c610923610e33565b90602082015260405191829160208352602083019061036a565b3461022b5761040361094e366102f7565b50905060405191829160208352602083019061036a565b3461022b57606036600319011261022b5761097e61021b565b6024356001600160401b0381160361022b57610998610492565b506109bd6040516020810190428252602081526109b481610246565b51902091610d78565b90811561040757610403916109d0610e33565b910660208201526040519182918261038f565b3461022b5761040361072e6109fa610726366102f7565b166040519060208201526020815261042b81610246565b3461022b5761040361056b610a28610912366102f7565b1b610923610e33565b3461022b57602036600319011261022b57600435801515810361022b5761042b61040391610e6f565b3461022b57610a6b610450366102f7565b610a7482610d78565b92831561040757610473610a8791610f15565b928315610407576104039361042b9306910610610e6f565b3461022b57606036600319011261022b576004356001600160401b03811161022b57610acf9036906004016102d9565b60243560ff81160361022b5761042b61040391610aea610492565b50610d32565b3461022b57608036600319011261022b57610b0961021b565b506001600160401b0360243581811161022b57610b2a9036906004016102d9565b9060443581811161022b57610b439036906004016102d9565b9160643591821161022b5761040392610b63610b699336906004016102d9565b91610ea6565b6040519182918261038f565b3461022b57602036600319011261022b57610403610b91610e33565b600435602082015260405191829160208352602083019061036a565b3461022b57610bc16103bd6103b4366102f7565b820391821161040c576103d590610d78565b3461022b57610403610bee610be736610802565b9050610d0f565b196040519060208201526020815261042b81610246565b3461022b57610c16610450366102f7565b610c1f82610d78565b92831561040757610473610c3291610f15565b928315610407576104039361042b930691061115610e6f565b3461022b5761056b610c5f610562366102f7565b91821561040757610c6f90610d78565b80156104075761040392610c81610e33565b920606602082015260405191829160208352602083019061036a565b634e487b7160e01b600052601160045260246000fd5b634e487b7160e01b600052601260045260246000fd5b610cd282610f15565b610cdb82610d78565b801561040757610cf3610ced86610f15565b93610d78565b801561040757600193069106101514610d0a575090565b905090565b602081519101519060208110610d23575090565b6000199060200360031b1b1690565b610d3b90610d0f565b604051906020820152602081526102f481610246565b919091610d5d83610f15565b610d6682610d78565b801561040757610cf3610ced85610f15565b60ff1680610d87575061010090565b60018103610d9757506201000090565b60028103610da9575064010000000090565b60038103610dbf57506801000000000000000090565b60048103610dd05750600160801b90565b60058103610dde5750600190565b600c8103610def5750600160a01b90565b600d03610dfb57600190565b60405162461bcd60e51b815260206004820152601060248201526f556e737570706f72746564207479706560801b6044820152606490fd5b60405190610e4082610246565b60208083523683820137565b805115610e595760200190565b634e487b7160e01b600052603260045260246000fd5b60405190610e7c82610246565b600182526020368184013715610e9b576001610e9782610e4c565b5390565b6000610e9782610e4c565b610ebd90610eb8602082511115610ec9565b610e4c565b5160f81c610d0a575090565b15610ed057565b60405162461bcd60e51b815260206004820152601860248201527f4279746573206c656e67746820657863656564732033322e00000000000000006044820152606490fd5b6020610f248183511115610ec9565b815181039181831161040c57610f9a82610f56610f4086610287565b95610f4e6040519788610266565b808752610287565b8186019590601f1901368737604051938491610f7a84840198899251928391610347565b8201610f8e82518093868085019101610347565b01038084520182610266565b80518101031261022b57519056fea2646970667358221220f4d1cc52080f8bf82f6cf4e90cb92ebe13652308de80a19a46ba1f490279d16164736f6c63430008180033",
  "linkReferences": {},
  "deployedLinkReferences": {}
}