{
  "_format": "hh-sol-artifact-1",
  "contractName": "Precompiles",
  "sourceName": "@fhenixprotocol/contracts/utils/debug/MockFheOps.sol",
  "abi": [
    {
      "inputs": [],
      "name": "Fheos",
      "outputs": [
        {
          "internalType": "address",
          "name": "",
          "type": "address"
        }
      ],
      "stateMutability": "view",
      "type": "function"
    }
  ],
  "bytecode": "0x608080604052346018576075908161001e823930815050f35b600080fdfe6080806040526004361015601257600080fd5b60003560e01c6313d8d46414602657600080fd5b6000366003190112603a5780608060209252f35b600080fdfea2646970667358221220785293a9bb1494afac00c230de8fb4a1dca5c527f05c78bb795d15ff3c8a724464736f6c63430008180033",
  "linkReferences": {},
  "deployedLinkReferences": {}
}