{
  "_format": "hh-sol-artifact-1",
  "contractName": "BorrowerRegistry",
  "sourceName": "contracts/BorrowerRegistry.sol",
  "abi": [
    {
      "inputs": [],
      "name": "ECDSAInvalidSignature",
      "type": "error"
    },
    {
      "inputs": [
        {
          "internalType": "uint256",
          "name": "length",
          "type": "uint256"
        }
      ],
      "name": "ECDSAInvalidSignatureLength",
      "type": "error"
    },
    {
      "inputs": [
        {
          "internalType": "bytes32",
          "name": "s",
          "type": "bytes32"
        }
      ],
      "name": "ECDSAInvalidSignatureS",
      "type": "error"
    },
    {
      "inputs": [],
      "name": "InvalidShortString",
      "type": "error"
    },
    {
      "inputs": [],
      "name": "SignerNotMessageSender",
      "type": "error"
    },
    {
      "inputs": [],
      "name": "SignerNotOwner",
      "type": "error"
    },
    {
      "inputs": [
        {
          "internalType": "string",
          "name": "str",
          "type": "string"
        }
      ],
      "name": "StringTooLong",
      "type": "error"
    },
    {
      "anonymous": false,
      "inputs": [],
      "name": "EIP712DomainChanged",
      "type": "event"
    },
    {
      "anonymous": false,
      "inputs": [
        {
          "indexed": true,
          "internalType": "address",
          "name": "borrower",
          "type": "address"
        },
        {
          "indexed": false,
          "internalType": "uint256",
          "name": "version",
          "type": "uint256"
        }
      ],
      "name": "ProfileSubmitted",
      "type": "event"
    },
    {
      "anonymous": false,
      "inputs": [
        {
          "indexed": true,
          "internalType": "address",
          "name": "borrower",
          "type": "address"
        },
        {
          "indexed": false,
          "internalType": "uint256",
          "name": "version",
          "type": "uint256"
        }
      ],
      "name": "ProfileUpdated",
      "type": "event"
    },
    {
      "inputs": [],
      "name": "eip712Domain",
      "outputs": [
        {
          "internalType": "bytes1",
          "name": "fields",
          "type": "bytes1"
        },
        {
          "internalType": "string",
          "name": "name",
          "type": "string"
        },
        {
          "internalType": "string",
          "name": "version",
          "type": "string"
        },
        {
          "internalType": "uint256",
          "name": "chainId",
          "type": "uint256"
        },
        {
          "internalType": "address",
          "name": "verifyingContract",
          "type": "address"
        },
        {
          "internalType": "bytes32",
          "name": "salt",
          "type": "bytes32"
        },
        {
          "internalType": "uint256[]",
          "name": "extensions",
          "type": "uint256[]"
        }
      ],
      "stateMutability": "view",
      "type": "function"
    },
    {
      "inputs": [
        {
          "internalType": "address",
          "name": "borrower",
          "type": "address"
        }
      ],
      "name": "getEncryptedProfile",
      "outputs": [
        {
          "components": [
            {
              "internalType": "euint32",
              "name": "annualRevenue",
              "type": "uint256"
            },
            {
              "internalType": "euint32",
              "name": "totalDebt",
              "type": "uint256"
            },
            {
              "internalType": "euint32",
              "name": "monthlyBurnRate",
              "type": "uint256"
            },
            {
              "internalType": "euint32",
              "name": "accountsReceivable",
              "type": "uint256"
            },
            {
              "internalType": "euint32",
              "name": "cashOnHand",
              "type": "uint256"
            },
            {
              "internalType": "euint32",
              "name": "businessAgeMonths",
              "type": "uint256"
            },
            {
              "internalType": "uint8",
              "name": "industrySector",
              "type": "uint8"
            },
            {
              "internalType": "address",
              "name": "borrower",
              "type": "address"
            },
            {
              "internalType": "uint256",
              "name": "submittedAt",
              "type": "uint256"
            },
            {
              "internalType": "uint256",
              "name": "version",
              "type": "uint256"
            }
          ],
          "internalType": "struct BorrowerRegistry.BorrowerProfile",
          "name": "profile",
          "type": "tuple"
        },
        {
          "internalType": "bool",
          "name": "exists",
          "type": "bool"
        }
      ],
      "stateMutability": "view",
      "type": "function"
    },
    {
      "inputs": [
        {
          "internalType": "address",
          "name": "borrower",
          "type": "address"
        }
      ],
      "name": "getProfileMetadata",
      "outputs": [
        {
          "internalType": "uint8",
          "name": "sector",
          "type": "uint8"
        },
        {
          "internalType": "uint256",
          "name": "submittedAt",
          "type": "uint256"
        },
        {
          "internalType": "uint256",
          "name": "version",
          "type": "uint256"
        },
        {
          "internalType": "bool",
          "name": "exists",
          "type": "bool"
        }
      ],
      "stateMutability": "view",
      "type": "function"
    },
    {
      "inputs": [
        {
          "internalType": "address",
          "name": "",
          "type": "address"
        }
      ],
      "name": "hasProfile",
      "outputs": [
        {
          "internalType": "bool",
          "name": "",
          "type": "bool"
        }
      ],
      "stateMutability": "view",
      "type": "function"
    },
    {
      "inputs": [
        {
          "internalType": "address",
          "name": "",
          "type": "address"
        }
      ],
      "name": "profileTimestamp",
      "outputs": [
        {
          "internalType": "uint256",
          "name": "",
          "type": "uint256"
        }
      ],
      "stateMutability": "view",
      "type": "function"
    },
    {
      "inputs": [
        {
          "internalType": "address",
          "name": "borrower",
          "type": "address"
        },
        {
          "components": [
            {
              "internalType": "bytes32",
              "name": "publicKey",
              "type": "bytes32"
            },
            {
              "internalType": "bytes",
              "name": "signature",
              "type": "bytes"
            }
          ],
          "internalType": "struct Permission",
          "name": "permission",
          "type": "tuple"
        }
      ],
      "name": "sealRevenueBucket",
      "outputs": [
        {
          "internalType": "string",
          "name": "bucket",
          "type": "string"
        }
      ],
      "stateMutability": "view",
      "type": "function"
    },
    {
      "inputs": [
        {
          "internalType": "uint256",
          "name": "revenue",
          "type": "uint256"
        },
        {
          "internalType": "uint256",
          "name": "debt",
          "type": "uint256"
        },
        {
          "internalType": "uint256",
          "name": "burnRate",
          "type": "uint256"
        },
        {
          "internalType": "uint256",
          "name": "receivables",
          "type": "uint256"
        },
        {
          "internalType": "uint256",
          "name": "cash",
          "type": "uint256"
        },
        {
          "internalType": "uint32",
          "name": "businessAge",
          "type": "uint32"
        },
        {
          "internalType": "uint8",
          "name": "sector",
          "type": "uint8"
        }
      ],
      "name": "submitProfile",
      "outputs": [],
      "stateMutability": "nonpayable",
      "type": "function"
    },
    {
      "inputs": [
        {
          "internalType": "uint256",
          "name": "revenue",
          "type": "uint256"
        },
        {
          "internalType": "uint256",
          "name": "debt",
          "type": "uint256"
        },
        {
          "internalType": "uint256",
          "name": "burnRate",
          "type": "uint256"
        },
        {
          "internalType": "uint256",
          "name": "receivables",
          "type": "uint256"
        },
        {
          "internalType": "uint256",
          "name": "cash",
          "type": "uint256"
        },
        {
          "internalType": "uint32",
          "name": "businessAge",
          "type": "uint32"
        },
        {
          "internalType": "uint8",
          "name": "sector",
          "type": "uint8"
        }
      ],
      "name": "updateProfile",
      "outputs": [],
      "stateMutability": "nonpayable",
      "type": "function"
    }
  ],
  "bytecode": "0x6101608060405234620001585762000017816200015d565b601181526020810170233432b734bc102832b936b4b9b9b4b7b760791b81526040519162000045836200015d565b6003835260208301620312e360ec1b8152620000618262000179565b9261012093845262000073856200034c565b92610140938452519020938460e05251902091610100938385524660a0526040519360208501917f8b73c3c69bb8fe3d512ecc4cf759cc79239f7b179b0ffacaa9a75d522b39400f8352604086015260608501524660808501523060a085015260a0845260c084019380851060018060401b038611176200014257846040525190206080523060c05261184f9384620004fa853960805184611106015260a051846111c1015260c051846110d0015260e051846111550152518361117b01525182610296015251816102c00152f35b634e487b7160e01b600052604160045260246000fd5b600080fd5b604081019081106001600160401b038211176200014257604052565b8051602091908281101562000218575090601f825111620001b75780825192015190808310620001a857501790565b82600019910360031b1b161790565b90604051809263305a27a960e01b82528060048301528251908160248401526000935b828510620001fe575050604492506000838284010152601f80199101168101030190fd5b8481018201518686016044015293810193859350620001da565b6001600160401b03811162000142576000928354926001938481811c9116801562000341575b838210146200032d57601f8111620002f7575b5081601f8411600114620002905750928293918392869462000284575b50501b916000199060031b1c191617905560ff90565b0151925038806200026e565b919083601f1981168780528488209488905b88838310620002dc5750505010620002c2575b505050811b01905560ff90565b015160001960f88460031b161c19169055388080620002b5565b858701518855909601959485019487935090810190620002a2565b85805284601f848820920160051c820191601f860160051c015b8281106200032157505062000251565b87815501859062000311565b634e487b7160e01b86526022600452602486fd5b90607f16906200023e565b805160209081811015620003da5750601f825111620003795780825192015190808310620001a857501790565b90604051809263305a27a960e01b82528060048301528251908160248401526000935b828510620003c0575050604492506000838284010152601f80199101168101030190fd5b84810182015186860160440152938101938593506200039c565b9192916001600160401b038111620001425760019182548381811c91168015620004ee575b82821014620004d857601f81116200049f575b5080601f83116001146200045257508192939460009262000446575b5050600019600383901b1c191690821b17905560ff90565b0151905038806200042e565b90601f198316958460005282600020926000905b888210620004875750508385969710620002c257505050811b01905560ff90565b80878596829496860151815501950193019062000466565b8360005283601f83600020920160051c820191601f850160051c015b828110620004cb57505062000412565b60008155018490620004bb565b634e487b7160e01b600052602260045260246000fd5b90607f1690620003ff56fe6080604052600436101561001257600080fd5b6000803560e01c90816338d6e8381461009a57508063403e2707146100955780635501ef431461009057806384b0196e1461008b57806386cfb88a146100865780639336761014610081578063987b328f1461007c5763a787c80b1461007757600080fd5b610774565b610619565b6104d0565b610403565b61027b565b6101f9565b61018d565b3461012e576100a836610131565b94939093929192338852600460205260ff6040892054166100ff576100cd9633610be8565b6040516001815233907f34971579be221b9439c1e3a44bc4283bd8bede3c612969db4649e149a5941d4790602090a280f35b62461bcd60e51b6080526020608452600e60a4526d50524f46494c455f45584953545360901b60c45260646080fd5b80fd5b60e090600319011261017257600435906024359060443590606435906084359060a43563ffffffff81168103610172579060c43560ff811681036101725790565b600080fd5b600435906001600160a01b038216820361017257565b34610172576020366003190112610172576001600160a01b036101ae610177565b1660005260026020526080604060002060ff6006820154169060086007820154910154600460205260ff60406000205416916040519384526020840152604083015215156060820152f35b34610172576020366003190112610172576001600160a01b0361021a610177565b1660005260036020526020604060002054604051908152f35b60005b8381106102465750506000910152565b8181015183820152602001610236565b9060209161026f81518092818552858086019101610233565b601f01601f1916010190565b346101725760008060031936011261012e57610319906102ba7f0000000000000000000000000000000000000000000000000000000000000000610efc565b906102e47f0000000000000000000000000000000000000000000000000000000000000000610fff565b90604051916102f283610807565b818352610327602091604051968796600f60f81b885260e0602089015260e0880190610256565b908682036040880152610256565b904660608601523060808601528260a086015284820360c0860152602080855193848152019401925b82811061035f57505050500390f35b835185528695509381019392810192600101610350565b91610140610401929493610160810195805182526020810151602083015260408101516040830152606081015160608301526080810151608083015260a081015160a08301526103d060c082015160c084019060ff169052565b60e0818101516001600160a01b03169083015261010080820151908301526101208091015190820152019015159052565b565b346101725760203660031901126101725761041c610177565b6104a86104a161048560406101208151610435816107c9565b600091818380935282602082015282858201528260608201528260808201528260a08201528260c08201528260e082015282610100820152015260018060a01b038616815260026020522061086e565b6001600160a01b03909316600090815260046020526040902090565b5460ff1690565b906104b860405192839283610376565b0390f35b9060206104cd928181520190610256565b90565b346101725760031960403682018113610172576104eb610177565b916024359067ffffffffffffffff90818311610172578390833603011261017257825191610518836107eb565b8060040135835260248101359182116101725701903660238301121561017257600482013591610547836108e3565b916105548551938461083f565b83835236602485840101116101725760006020856105e09660246105d896018388013785010152602081019283525184516105d0816105c26020820194859190602060408401937f6bdaeb2d29561f159c7ef98b16b27015fb2aeb87209c7ee656226d912f59927d81520152565b03601f19810183528261083f565b519020610cd9565b905190610cff565b6001600160a01b03838116911603610609576105fe6104b8926109c7565b9051918291826104bc565b516328e32f5760e11b8152600490fd5b346101725761062736610131565b9295949391600096338852600460205261064760ff60408a2054166108ff565b3388526002602052600860408920015496600188018098116107605763ffffffff8080808080951661067890611523565b9a1661068390611523565b971661068e90611523565b931661069990611523565b93166106a490611523565b93166106af90611523565b936106b8610861565b968752602087015260408601526060850152608084015260a083015260ff1660c08201523360e08201524261010082015261012081018290523360009081526002602052604090209061070a91610b41565b3360008181526003602090815260408083204290556004825291829020805460ff19166001179055905192835290917f03754aecf8745159503d95ad9d4b5e5ec503371279ddc036d4ac93cd953f9de29190a280f35b634e487b7160e01b89526011600452602489fd5b34610172576020366003190112610172576001600160a01b03610795610177565b166000526004602052602060ff604060002054166040519015158152f35b634e487b7160e01b600052604160045260246000fd5b610140810190811067ffffffffffffffff8211176107e657604052565b6107b3565b6040810190811067ffffffffffffffff8211176107e657604052565b6020810190811067ffffffffffffffff8211176107e657604052565b60c0810190811067ffffffffffffffff8211176107e657604052565b90601f8019910116810190811067ffffffffffffffff8211176107e657604052565b60405190610401826107c9565b906008610879610861565b8354815260018401546020820152600284015460408201526003840154606082015260048401546080820152600584015460a0820152600684015460ff811660c0830152821c6001600160a01b031660e08201529260078101546101008501520154610120830152565b67ffffffffffffffff81116107e657601f01601f191660200190565b1561090657565b60405162461bcd60e51b8152602060048201526011602482015270141493d192531157d393d517d193d55391607a1b6044820152606490fd5b6040519061094c826107eb565b60048252633c24314d60e01b6020830152565b6040519061096c826107eb565b600782526624314d2d24354d60c81b6020830152565b6040519061098f826107eb565b600882526724354d2d2432304d60c01b6020830152565b604051906109b3826107eb565b60058252643e2432304d60d81b6020830152565b610a0d906109f360ff6109ec8360018060a01b03166000526004602052604060002090565b54166108ff565b6001600160a01b0316600090815260026020526040902090565b54610a4c6000604051610a1f816107eb565b602081526001602082015260405180938192631743358560e31b8352606060048401526064830190610256565b836024830152836044830152038160805afa908115610b3c5760ff92610ad16020610adf94610ada94600091610b19575b50015191610ac8610a95610a8f611439565b83611614565b93610ab9610aaa610aa46114a2565b85611614565b93610ab36114e2565b90611614565b94610ac261133b565b90610d15565b90610ac26113bd565b90610ac26113fb565b610ddb565b1660018114610b105760028114610b0757600314610aff576104cd6109a6565b6104cd610982565b506104cd61095f565b506104cd61093f565b610b3691503d806000833e610b2e818361083f565b8101906112d0565b38610a7d565b61132f565b90610120600891805184556020810151600185015560408101516002850155606081015160038501556080810151600485015560a08101516005850155610bd660068501610ba6610b9660c085015160ff1690565b825460ff191660ff909116178255565b60e08301516001600160a01b03168154610100600160a81b03191660089190911b610100600160a81b0316179055565b61010081015160078501550151910155565b9694919592939063ffffffff80808080809516610c0490611523565b9a16610c0f90611523565b9716610c1a90611523565b9316610c2590611523565b9316610c3090611523565b9316610c3b90611523565b93610c44610861565b968752602087015260408601526060850152608084015260a083015260ff1660c08201526001600160a01b03821660e08201524261010082015260016101208201526001600160a01b038216600090815260026020526040902090610ca891610b41565b6001600160a01b0316600090815260036020908152604080832042905560049091529020805460ff19166001179055565b604290610ce46110cd565b906040519161190160f01b8352600283015260228201522090565b6104cd91610d0c916111e7565b90929192611243565b91908215610d4e575b6104cd928115610d3e575b826116c3579150610d38611553565b916116c3565b9050610d48611553565b90610d29565b610d8d92506000604051610d61816107eb565b6020815281602082015260405180958192631743358560e31b8352606060048401526064830190610256565b600d6024830152836044830152038160805afa928315610b3c576104cd93602091600091610dc0575b5001519250610d1e565b610dd591503d806000833e610b2e818361083f565b38610db6565b8015610e68575b6020610df0610e1992611800565b60405180938192637c4697ab60e01b835260006004840152606060248401526064830190610256565b60806044830152038160805afa8015610b3c5760ff91600091610e3b57501690565b610e5d915060203d602011610e61575b610e55818361083f565b810190611737565b1690565b503d610e4b565b50604051610e75816107eb565b60208152610ea86000828160208195015260405180938192631743358560e31b8352606060048401526064830190610256565b836024830152836044830152038160805afa908115610b3c5760208092610df09285610e199692610ee1575b5050015192505050610de2565b610ef592503d8091833e610b2e818361083f565b3880610ed4565b60ff8114610f0d576104cd90611746565b50604051600080549060018260011c9260018116918215610ff5575b602091602086108414610fe157858752869493602086019392918115610fc25750600114610f61575b5050506104cd9250038261083f565b925093610f8f600080527f290decd9548b62a8d60345a988386fc84ba6bc95484008f6362f93160ef3e56390565b946000935b828510610fac575050506104cd935001388080610f52565b8654858501529586019587955093810193610f94565b925050506104cd9491925060ff19168252151560051b01388080610f52565b634e487b7160e01b85526022600452602485fd5b93607f1693610f29565b60ff8114611010576104cd90611746565b506040516001805480821c916000918082169182156110c3575b602091602086108414610fe157858752869493602086019392918115610fc25750600114611061575050506104cd9250038261083f565b92509361109060016000527fb10e2d527612073b26eecdfd717e6a320cf44b4afac2b0732d9fcbe2b7fa0cf690565b946000935b8285106110ad575050506104cd935001388080610f52565b8654858501529586019587955093810193611095565b93607f169361102a565b307f00000000000000000000000000000000000000000000000000000000000000006001600160a01b031614806111be575b15611128577f000000000000000000000000000000000000000000000000000000000000000090565b60405160208101907f8b73c3c69bb8fe3d512ecc4cf759cc79239f7b179b0ffacaa9a75d522b39400f82527f000000000000000000000000000000000000000000000000000000000000000060408201527f000000000000000000000000000000000000000000000000000000000000000060608201524660808201523060a082015260a081526111b881610823565b51902090565b507f000000000000000000000000000000000000000000000000000000000000000046146110ff565b81519190604183036112185761121192506020820151906060604084015193015160001a9061177c565b9192909190565b505060009160029190565b6004111561122d57565b634e487b7160e01b600052602160045260246000fd5b61124c81611223565b80611255575050565b61125e81611223565b600181036112785760405163f645eedf60e01b8152600490fd5b61128181611223565b600281036112a25760405163fce698f760e01b815260048101839052602490fd5b806112ae600392611223565b146112b65750565b6040516335e2f38360e21b81526004810191909152602490fd5b6020818303126101725780519067ffffffffffffffff8211610172570181601f82011215610172578051611303816108e3565b92611311604051948561083f565b81845260208284010111610172576104cd9160208085019101610233565b6040513d6000823e3d90fd5b611379600060405161134c816107eb565b602081526002602082015260405180938192631743358560e31b8352606060048401526064830190610256565b836024830152836044830152038160805afa8015610b3c576020916000916113a2575b50015190565b6113b791503d806000833e610b2e818361083f565b3861139c565b61137960006040516113ce816107eb565b602081526003602082015260405180938192631743358560e31b8352606060048401526064830190610256565b611379600060405161140c816107eb565b602081526004602082015260405180938192631743358560e31b8352606060048401526064830190610256565b611479600060405161144a816107eb565b60208152620f4240602082015260405180938192631743358560e31b8352606060048401526064830190610256565b60026024830152836044830152038160805afa8015610b3c576020916000916113a25750015190565b61147960006040516114b3816107eb565b60208152624c4b40602082015260405180938192631743358560e31b8352606060048401526064830190610256565b61147960006040516114f3816107eb565b602081526301312d00602082015260405180938192631743358560e31b8352606060048401526064830190610256565b600061153161147992611800565b60405180938192631743358560e31b8352606060048401526064830190610256565b60405161155f816107eb565b602081526115926000828160208195015260405180938192631743358560e31b8352606060048401526064830190610256565b836024830152836044830152038160805afa908115610b3c5782602093926115bc575b5050015190565b6115d092503d8091833e610b2e818361083f565b38806115b5565b61147960006040516115e8816107eb565b6020815281602082015260405180938192631743358560e31b8352606060048401526064830190610256565b80156116b5575b8115611695575b611667611639611633600093611800565b93611800565b92611679604051948593849363650de1cf60e01b855260026004860152606060248601526064850190610256565b83810360031901604485015290610256565b038160805afa8015610b3c576020916000916113a25750015190565b905060006116676116396116336116aa6115d7565b949350505050611622565b506116be6115d7565b61161b565b600091611679611728946116eb6116e56116df61171596611800565b94611800565b91611800565b60405163616cb4a960e11b8152600481018790526080602482015296879586956084870190610256565b6003199384878303016044880152610256565b91848303016064850152610256565b90816020910312610172575190565b60ff811690601f821161176a5760405191611760836107eb565b8252602082015290565b604051632cd44ac360e21b8152600490fd5b91907f7fffffffffffffffffffffffffffffff5d576e7357a4501ddfe92f46681b20a084116117f457926020929160ff608095604051948552168484015260408301526060820152600092839182805260015afa15610b3c5780516001600160a01b038116156117eb57918190565b50809160019190565b50505060009160039190565b906040519161180e836107eb565b60208352602083015256fea264697066735822122045aa24e12bc0e9cbbc0a36f9e62b846b0c9b619218ef9d06d0f292127620fc8a64736f6c63430008180033",
  "linkReferences": {},
  "deployedLinkReferences": {}
}