{
  "_format": "hh-sol-artifact-1",
  "contractName": "BorrowerRegistry",
  "sourceName": "contracts/BorrowerRegistry.sol",
  "abi": [
    {
      "inputs": [],
      "name": "ECDSAInvalidSignature",
      "type": "error"
    },
    {
      "inputs": [
        {
          "internalType": "uint256",
          "name": "length",
          "type": "uint256"
        }
      ],
      "name": "ECDSAInvalidSignatureLength",
      "type": "error"
    },
    {
      "inputs": [
        {
          "internalType": "bytes32",
          "name": "s",
          "type": "bytes32"
        }
      ],
      "name": "ECDSAInvalidSignatureS",
      "type": "error"
    },
    {
      "inputs": [],
      "name": "InvalidShortString",
      "type": "error"
    },
    {
      "inputs": [],
      "name": "SignerNotMessageSender",
      "type": "error"
    },
    {
      "inputs": [],
      "name": "SignerNotOwner",
      "type": "error"
    },
    {
      "inputs": [
        {
          "internalType": "string",
          "name": "str",
          "type": "string"
        }
      ],
      "name": "StringTooLong",
      "type": "error"
    },
    {
      "anonymous": false,
      "inputs": [],
      "name": "EIP712DomainChanged",
      "type": "event"
    },
    {
      "anonymous": false,
      "inputs": [
        {
          "indexed": true,
          "internalType": "address",
          "name": "borrower",
          "type": "address"
        },
        {
          "indexed": false,
          "internalType": "uint256",
          "name": "version",
          "type": "uint256"
        }
      ],
      "name": "ProfileSubmitted",
      "type": "event"
    },
    {
      "anonymous": false,
      "inputs": [
        {
          "indexed": true,
          "internalType": "address",
          "name": "borrower",
          "type": "address"
        },
        {
          "indexed": false,
          "internalType": "uint256",
          "name": "version",
          "type": "uint256"
        }
      ],
      "name": "ProfileUpdated",
      "type": "event"
    },
    {
      "inputs": [],
      "name": "eip712Domain",
      "outputs": [
        {
          "internalType": "bytes1",
          "name": "fields",
          "type": "bytes1"
        },
        {
          "internalType": "string",
          "name": "name",
          "type": "string"
        },
        {
          "internalType": "string",
          "name": "version",
          "type": "string"
        },
        {
          "internalType": "uint256",
          "name": "chainId",
          "type": "uint256"
        },
        {
          "internalType": "address",
          "name": "verifyingContract",
          "type": "address"
        },
        {
          "internalType": "bytes32",
          "name": "salt",
          "type": "bytes32"
        },
        {
          "internalType": "uint256[]",
          "name": "extensions",
          "type": "uint256[]"
        }
      ],
      "stateMutability": "view",
      "type": "function"
    },
    {
      "inputs": [
        {
          "internalType": "address",
          "name": "borrower",
          "type": "address"
        }
      ],
      "name": "getEncryptedProfile",
      "outputs": [
        {
          "components": [
            {
              "internalType": "euint256",
              "name": "annualRevenue",
              "type": "uint256"
            },
            {
              "internalType": "euint256",
              "name": "totalDebt",
              "type": "uint256"
            },
            {
              "internalType": "euint256",
              "name": "monthlyBurnRate",
              "type": "uint256"
            },
            {
              "internalType": "euint256",
              "name": "accountsReceivable",
              "type": "uint256"
            },
            {
              "internalType": "euint256",
              "name": "cashOnHand",
              "type": "uint256"
            },
            {
              "internalType": "euint32",
              "name": "businessAgeMonths",
              "type": "uint256"
            },
            {
              "internalType": "uint8",
              "name": "industrySector",
              "type": "uint8"
            },
            {
              "internalType": "address",
              "name": "borrower",
              "type": "address"
            },
            {
              "internalType": "uint256",
              "name": "submittedAt",
              "type": "uint256"
            },
            {
              "internalType": "uint256",
              "name": "version",
              "type": "uint256"
            }
          ],
          "internalType": "struct BorrowerRegistry.BorrowerProfile",
          "name": "profile",
          "type": "tuple"
        },
        {
          "internalType": "bool",
          "name": "exists",
          "type": "bool"
        }
      ],
      "stateMutability": "view",
      "type": "function"
    },
    {
      "inputs": [
        {
          "internalType": "address",
          "name": "borrower",
          "type": "address"
        }
      ],
      "name": "getProfileMetadata",
      "outputs": [
        {
          "internalType": "uint8",
          "name": "sector",
          "type": "uint8"
        },
        {
          "internalType": "uint256",
          "name": "submittedAt",
          "type": "uint256"
        },
        {
          "internalType": "uint256",
          "name": "version",
          "type": "uint256"
        },
        {
          "internalType": "bool",
          "name": "exists",
          "type": "bool"
        }
      ],
      "stateMutability": "view",
      "type": "function"
    },
    {
      "inputs": [
        {
          "internalType": "address",
          "name": "",
          "type": "address"
        }
      ],
      "name": "hasProfile",
      "outputs": [
        {
          "internalType": "bool",
          "name": "",
          "type": "bool"
        }
      ],
      "stateMutability": "view",
      "type": "function"
    },
    {
      "inputs": [
        {
          "internalType": "address",
          "name": "",
          "type": "address"
        }
      ],
      "name": "profileTimestamp",
      "outputs": [
        {
          "internalType": "uint256",
          "name": "",
          "type": "uint256"
        }
      ],
      "stateMutability": "view",
      "type": "function"
    },
    {
      "inputs": [
        {
          "internalType": "address",
          "name": "borrower",
          "type": "address"
        },
        {
          "components": [
            {
              "internalType": "bytes32",
              "name": "publicKey",
              "type": "bytes32"
            },
            {
              "internalType": "bytes",
              "name": "signature",
              "type": "bytes"
            }
          ],
          "internalType": "struct Permission",
          "name": "permission",
          "type": "tuple"
        }
      ],
      "name": "sealRevenueBucket",
      "outputs": [
        {
          "internalType": "string",
          "name": "bucket",
          "type": "string"
        }
      ],
      "stateMutability": "view",
      "type": "function"
    },
    {
      "inputs": [
        {
          "components": [
            {
              "internalType": "bytes",
              "name": "data",
              "type": "bytes"
            },
            {
              "internalType": "int32",
              "name": "securityZone",
              "type": "int32"
            }
          ],
          "internalType": "struct inEuint256",
          "name": "revenue",
          "type": "tuple"
        },
        {
          "components": [
            {
              "internalType": "bytes",
              "name": "data",
              "type": "bytes"
            },
            {
              "internalType": "int32",
              "name": "securityZone",
              "type": "int32"
            }
          ],
          "internalType": "struct inEuint256",
          "name": "debt",
          "type": "tuple"
        },
        {
          "components": [
            {
              "internalType": "bytes",
              "name": "data",
              "type": "bytes"
            },
            {
              "internalType": "int32",
              "name": "securityZone",
              "type": "int32"
            }
          ],
          "internalType": "struct inEuint256",
          "name": "burnRate",
          "type": "tuple"
        },
        {
          "components": [
            {
              "internalType": "bytes",
              "name": "data",
              "type": "bytes"
            },
            {
              "internalType": "int32",
              "name": "securityZone",
              "type": "int32"
            }
          ],
          "internalType": "struct inEuint256",
          "name": "receivables",
          "type": "tuple"
        },
        {
          "components": [
            {
              "internalType": "bytes",
              "name": "data",
              "type": "bytes"
            },
            {
              "internalType": "int32",
              "name": "securityZone",
              "type": "int32"
            }
          ],
          "internalType": "struct inEuint256",
          "name": "cash",
          "type": "tuple"
        },
        {
          "components": [
            {
              "internalType": "bytes",
              "name": "data",
              "type": "bytes"
            },
            {
              "internalType": "int32",
              "name": "securityZone",
              "type": "int32"
            }
          ],
          "internalType": "struct inEuint32",
          "name": "businessAge",
          "type": "tuple"
        },
        {
          "internalType": "uint8",
          "name": "sector",
          "type": "uint8"
        }
      ],
      "name": "submitProfile",
      "outputs": [],
      "stateMutability": "nonpayable",
      "type": "function"
    },
    {
      "inputs": [
        {
          "components": [
            {
              "internalType": "bytes",
              "name": "data",
              "type": "bytes"
            },
            {
              "internalType": "int32",
              "name": "securityZone",
              "type": "int32"
            }
          ],
          "internalType": "struct inEuint256",
          "name": "revenue",
          "type": "tuple"
        },
        {
          "components": [
            {
              "internalType": "bytes",
              "name": "data",
              "type": "bytes"
            },
            {
              "internalType": "int32",
              "name": "securityZone",
              "type": "int32"
            }
          ],
          "internalType": "struct inEuint256",
          "name": "debt",
          "type": "tuple"
        },
        {
          "components": [
            {
              "internalType": "bytes",
              "name": "data",
              "type": "bytes"
            },
            {
              "internalType": "int32",
              "name": "securityZone",
              "type": "int32"
            }
          ],
          "internalType": "struct inEuint256",
          "name": "burnRate",
          "type": "tuple"
        },
        {
          "components": [
            {
              "internalType": "bytes",
              "name": "data",
              "type": "bytes"
            },
            {
              "internalType": "int32",
              "name": "securityZone",
              "type": "int32"
            }
          ],
          "internalType": "struct inEuint256",
          "name": "receivables",
          "type": "tuple"
        },
        {
          "components": [
            {
              "internalType": "bytes",
              "name": "data",
              "type": "bytes"
            },
            {
              "internalType": "int32",
              "name": "securityZone",
              "type": "int32"
            }
          ],
          "internalType": "struct inEuint256",
          "name": "cash",
          "type": "tuple"
        },
        {
          "components": [
            {
              "internalType": "bytes",
              "name": "data",
              "type": "bytes"
            },
            {
              "internalType": "int32",
              "name": "securityZone",
              "type": "int32"
            }
          ],
          "internalType": "struct inEuint32",
          "name": "businessAge",
          "type": "tuple"
        },
        {
          "internalType": "uint8",
          "name": "sector",
          "type": "uint8"
        }
      ],
      "name": "updateProfile",
      "outputs": [],
      "stateMutability": "nonpayable",
      "type": "function"
    }
  ],
  "bytecode": "0x6101608060405234620001585762000017816200015d565b601181526020810170233432b734bc102832b936b4b9b9b4b7b760791b81526040519162000045836200015d565b6003835260208301620312e360ec1b8152620000618262000179565b9261012093845262000073856200034c565b92610140938452519020938460e05251902091610100938385524660a0526040519360208501917f8b73c3c69bb8fe3d512ecc4cf759cc79239f7b179b0ffacaa9a75d522b39400f8352604086015260608501524660808501523060a085015260a0845260c084019380851060018060401b038611176200014257846040525190206080523060c052611a289384620004fa8539608051846112ee015260a051846113a9015260c051846112b8015260e0518461133d015251836113630152518261031f015251816103490152f35b634e487b7160e01b600052604160045260246000fd5b600080fd5b604081019081106001600160401b038211176200014257604052565b8051602091908281101562000218575090601f825111620001b75780825192015190808310620001a857501790565b82600019910360031b1b161790565b90604051809263305a27a960e01b82528060048301528251908160248401526000935b828510620001fe575050604492506000838284010152601f80199101168101030190fd5b8481018201518686016044015293810193859350620001da565b6001600160401b03811162000142576000928354926001938481811c9116801562000341575b838210146200032d57601f8111620002f7575b5081601f8411600114620002905750928293918392869462000284575b50501b916000199060031b1c191617905560ff90565b0151925038806200026e565b919083601f1981168780528488209488905b88838310620002dc5750505010620002c2575b505050811b01905560ff90565b015160001960f88460031b161c19169055388080620002b5565b858701518855909601959485019487935090810190620002a2565b85805284601f848820920160051c820191601f860160051c015b8281106200032157505062000251565b87815501859062000311565b634e487b7160e01b86526022600452602486fd5b90607f16906200023e565b805160209081811015620003da5750601f825111620003795780825192015190808310620001a857501790565b90604051809263305a27a960e01b82528060048301528251908160248401526000935b828510620003c0575050604492506000838284010152601f80199101168101030190fd5b84810182015186860160440152938101938593506200039c565b9192916001600160401b038111620001425760019182548381811c91168015620004ee575b82821014620004d857601f81116200049f575b5080601f83116001146200045257508192939460009262000446575b5050600019600383901b1c191690821b17905560ff90565b0151905038806200042e565b90601f198316958460005282600020926000905b888210620004875750508385969710620002c257505050811b01905560ff90565b80878596829496860151815501950193019062000466565b8360005283601f83600020920160051c820191601f850160051c015b828110620004cb57505062000412565b60008155018490620004bb565b634e487b7160e01b600052602260045260246000fd5b90607f1690620003ff56fe6080604052600436101561001257600080fd5b6000803560e01c90816301cda1651461009a57508063403e2707146100955780635501ef431461009057806384b0196e1461008b57806386cfb88a146100865780639336761014610081578063a787c80b1461007c5763c2ddc76d1461007757600080fd5b6106a8565b610669565b610556565b61048c565b610304565b610282565b610216565b3461012e576100a836610154565b94939093929192338852600460205260ff6040892054166100ff576100cd9633610cf3565b6040516001815233907f34971579be221b9439c1e3a44bc4283bd8bede3c612969db4649e149a5941d4790602090a280f35b62461bcd60e51b6080526020608452600e60a4526d50524f46494c455f45584953545360901b60c45260646080fd5b80fd5b9081604091031261013f5790565b600080fd5b60c4359060ff8216820361013f57565b9060e060031983011261013f57600480359267ffffffffffffffff9384811161013f5781610183918401610131565b9360243581811161013f578261019a918501610131565b9360443582811161013f57836101b1918601610131565b9360643583811161013f57846101c8918301610131565b9360843584811161013f57816101df918401610131565b9360a43590811161013f576101f49201610131565b906101fd610144565b90565b600435906001600160a01b038216820361013f57565b3461013f57602036600319011261013f576001600160a01b03610237610200565b1660005260026020526080604060002060ff6006820154169060086007820154910154600460205260ff60406000205416916040519384526020840152604083015215156060820152f35b3461013f57602036600319011261013f576001600160a01b036102a3610200565b1660005260036020526020604060002054604051908152f35b60005b8381106102cf5750506000910152565b81810151838201526020016102bf565b906020916102f8815180928185528580860191016102bc565b601f01601f1916010190565b3461013f5760008060031936011261012e576103a2906103437f00000000000000000000000000000000000000000000000000000000000000006110e4565b9061036d7f00000000000000000000000000000000000000000000000000000000000000006111e7565b906040519161037b83610882565b8183526103b0602091604051968796600f60f81b885260e0602089015260e08801906102df565b9086820360408801526102df565b904660608601523060808601528260a086015284820360c0860152602080855193848152019401925b8281106103e857505050500390f35b8351855286955093810193928101926001016103d9565b9161014061048a929493610160810195805182526020810151602083015260408101516040830152606081015160608301526080810151608083015260a081015160a083015261045960c082015160c084019060ff169052565b60e0818101516001600160a01b03169083015261010080820151908301526101208091015190820152019015159052565b565b3461013f57602036600319011261013f576104a5610200565b61053161052a61050e604061012081516104be81610844565b600091818380935282602082015282858201528260608201528260808201528260a08201528260c08201528260e082015282610100820152015260018060a01b03861681526002602052206108e9565b6001600160a01b03909316600090815260046020526040902090565b5460ff1690565b90610541604051928392836103ff565b0390f35b9060206101fd9281815201906102df565b3461013f5760408060031936011261013f57610570610200565b9067ffffffffffffffff60243581811161013f57610592903690600401610131565b828136031261013f578251906105a782610866565b80358252602081013592831161013f576105ca610628916106309436910161097a565b9160208101928352518451610620816106126020820194859190602060408401937f6bdaeb2d29561f159c7ef98b16b27015fb2aeb87209c7ee656226d912f59927d81520152565b03601f1981018352826108ba565b519020610e0f565b905190610e35565b6001600160a01b038381169116036106595761064e61054192610a89565b905191829182610545565b516328e32f5760e11b8152600490fd5b3461013f57602036600319011261013f576001600160a01b0361068a610200565b166000526004602052602060ff604060002054166040519015158152f35b3461013f576106b636610154565b929594939160009633885260046020526106d660ff60408a2054166109c1565b33885260026020526008604089200154966001880180981161081a57366106fc91610bfd565b61070590611032565b953661071091610bfd565b61071990611032565b933661072491610bfd565b61072d90611032565b903661073891610bfd565b61074190611032565b913661074c91610bfd565b61075590611032565b923661076091610bfd565b610769906110aa565b936107726108dc565b968752602087015260408601526060850152608084015260a083015260ff1660c08201523360e0820152426101008201526101208101829052336000908152600260205260409020906107c491610c4c565b3360008181526003602090815260408083204290556004825291829020805460ff19166001179055905192835290917f03754aecf8745159503d95ad9d4b5e5ec503371279ddc036d4ac93cd953f9de29190a280f35b634e487b7160e01b89526011600452602489fd5b634e487b7160e01b600052604160045260246000fd5b610140810190811067ffffffffffffffff82111761086157604052565b61082e565b6040810190811067ffffffffffffffff82111761086157604052565b6020810190811067ffffffffffffffff82111761086157604052565b60c0810190811067ffffffffffffffff82111761086157604052565b90601f8019910116810190811067ffffffffffffffff82111761086157604052565b6040519061048a82610844565b9060086108f46108dc565b8354815260018401546020820152600284015460408201526003840154606082015260048401546080820152600584015460a0820152600684015460ff811660c0830152821c6001600160a01b031660e08201529260078101546101008501520154610120830152565b67ffffffffffffffff811161086157601f01601f191660200190565b81601f8201121561013f578035906109918261095e565b9261099f60405194856108ba565b8284526020838301011161013f57816000926020809301838601378301015290565b156109c857565b60405162461bcd60e51b8152602060048201526011602482015270141493d192531157d393d517d193d55391607a1b6044820152606490fd5b60405190610a0e82610866565b60048252633c24314d60e01b6020830152565b60405190610a2e82610866565b600782526624314d2d24354d60c81b6020830152565b60405190610a5182610866565b600882526724354d2d2432304d60c01b6020830152565b60405190610a7582610866565b60058252643e2432304d60d81b6020830152565b6000610add610ad7610b0693610abd60ff610ab68360018060a01b03166000526004602052604060002090565b54166109c1565b6001600160a01b0316600090815260026020526040902090565b546119d9565b60405180938192634a5a111760e01b8352600560048401526060602484015260648301906102df565b60046044830152038160805afa908115610bf857610b96602060ff93610b9b93600091610bd5575b500151610b8d610b3c611523565b91610b84610b51610b4b611643565b836117ee565b93610b75610b66610b606116ac565b856117ee565b93610b6f6116ec565b906117ee565b94610b7e611589565b90610e4b565b90610b7e6115c7565b90610b7e611605565b610f11565b1660018114610bcc5760028114610bc357600314610bbb576101fd610a68565b6101fd610a44565b506101fd610a21565b506101fd610a01565b610bf291503d806000833e610bea81836108ba565b8101906114b8565b38610b2e565b611517565b919060408382031261013f5760405190610c1682610866565b8193803567ffffffffffffffff811161013f57602092610c3791830161097a565b83520135908160030b820361013f5760200152565b90610120600891805184556020810151600185015560408101516002850155606081015160038501556080810151600485015560a08101516005850155610ce160068501610cb1610ca160c085015160ff1690565b825460ff191660ff909116178255565b60e08301516001600160a01b03168154610100600160a81b03191660089190911b610100600160a81b0316179055565b61010081015160078501550151910155565b9694919592939036610d0491610bfd565b610d0d90611032565b9536610d1891610bfd565b610d2190611032565b9336610d2c91610bfd565b610d3590611032565b9036610d4091610bfd565b610d4990611032565b9136610d5491610bfd565b610d5d90611032565b9236610d6891610bfd565b610d71906110aa565b93610d7a6108dc565b968752602087015260408601526060850152608084015260a083015260ff1660c08201526001600160a01b03821660e08201524261010082015260016101208201526001600160a01b038216600090815260026020526040902090610dde91610c4c565b6001600160a01b0316600090815260036020908152604080832042905560049091529020805460ff19166001179055565b604290610e1a6112b5565b906040519161190160f01b8352600283015260228201522090565b6101fd91610e42916113cf565b9092919261142b565b91908215610e84575b6101fd928115610e74575b8261189c579150610e6e61172d565b9161189c565b9050610e7e61172d565b90610e5f565b610ec392506000604051610e9781610866565b6020815281602082015260405180958192631743358560e31b83526060600484015260648301906102df565b600d6024830152836044830152038160805afa928315610bf8576101fd93602091600091610ef6575b5001519250610e54565b610f0b91503d806000833e610bea81836108ba565b38610eec565b8015610f9e575b6020610f26610f4f926119d9565b60405180938192637c4697ab60e01b8352600060048401526060602484015260648301906102df565b60806044830152038160805afa8015610bf85760ff91600091610f7157501690565b610f93915060203d602011610f97575b610f8b81836108ba565b810190611910565b1690565b503d610f81565b50604051610fab81610866565b60208152610fde6000828160208195015260405180938192631743358560e31b83526060600484015260648301906102df565b836024830152836044830152038160805afa908115610bf85760208092610f269285610f4f9692611017575b5050015192505050610f18565b61102b92503d8091833e610bea81836108ba565b388061100a565b600061106c6020835193015160030b9260405193849283926321b50ba360e01b8452600560048501526060602485015260648401906102df565b906044830152038160805afa8015610bf85760209160009161108f575b50015190565b6110a491503d806000833e610bea81836108ba565b38611089565b600061106c6020835193015160030b9260405193849283926321b50ba360e01b8452600260048501526060602485015260648401906102df565b60ff81146110f5576101fd9061191f565b50604051600080549060018260011c92600181169182156111dd575b6020916020861084146111c9578587528694936020860193929181156111aa5750600114611149575b5050506101fd925003826108ba565b925093611177600080527f290decd9548b62a8d60345a988386fc84ba6bc95484008f6362f93160ef3e56390565b946000935b828510611194575050506101fd93500138808061113a565b865485850152958601958795509381019361117c565b925050506101fd9491925060ff19168252151560051b0138808061113a565b634e487b7160e01b85526022600452602485fd5b93607f1693611111565b60ff81146111f8576101fd9061191f565b506040516001805480821c916000918082169182156112ab575b6020916020861084146111c9578587528694936020860193929181156111aa5750600114611249575050506101fd925003826108ba565b92509361127860016000527fb10e2d527612073b26eecdfd717e6a320cf44b4afac2b0732d9fcbe2b7fa0cf690565b946000935b828510611295575050506101fd93500138808061113a565b865485850152958601958795509381019361127d565b93607f1693611212565b307f00000000000000000000000000000000000000000000000000000000000000006001600160a01b031614806113a6575b15611310577f000000000000000000000000000000000000000000000000000000000000000090565b60405160208101907f8b73c3c69bb8fe3d512ecc4cf759cc79239f7b179b0ffacaa9a75d522b39400f82527f000000000000000000000000000000000000000000000000000000000000000060408201527f000000000000000000000000000000000000000000000000000000000000000060608201524660808201523060a082015260a081526113a08161089e565b51902090565b507f000000000000000000000000000000000000000000000000000000000000000046146112e7565b8151919060418303611400576113f992506020820151906060604084015193015160001a90611955565b9192909190565b505060009160029190565b6004111561141557565b634e487b7160e01b600052602160045260246000fd5b6114348161140b565b8061143d575050565b6114468161140b565b600181036114605760405163f645eedf60e01b8152600490fd5b6114698161140b565b6002810361148a5760405163fce698f760e01b815260048101839052602490fd5b8061149660039261140b565b1461149e5750565b6040516335e2f38360e21b81526004810191909152602490fd5b60208183031261013f5780519067ffffffffffffffff821161013f570181601f8201121561013f5780516114eb8161095e565b926114f960405194856108ba565b8184526020828401011161013f576101fd91602080850191016102bc565b6040513d6000823e3d90fd5b611561600060405161153481610866565b602081526001602082015260405180938192631743358560e31b83526060600484015260648301906102df565b836024830152836044830152038160805afa8015610bf85760209160009161108f5750015190565b611561600060405161159a81610866565b602081526002602082015260405180938192631743358560e31b83526060600484015260648301906102df565b61156160006040516115d881610866565b602081526003602082015260405180938192631743358560e31b83526060600484015260648301906102df565b611561600060405161161681610866565b602081526004602082015260405180938192631743358560e31b83526060600484015260648301906102df565b611683600060405161165481610866565b60208152620f4240602082015260405180938192631743358560e31b83526060600484015260648301906102df565b60046024830152836044830152038160805afa8015610bf85760209160009161108f5750015190565b61168360006040516116bd81610866565b60208152624c4b40602082015260405180938192631743358560e31b83526060600484015260648301906102df565b61168360006040516116fd81610866565b602081526301312d00602082015260405180938192631743358560e31b83526060600484015260648301906102df565b60405161173981610866565b6020815261176c6000828160208195015260405180938192631743358560e31b83526060600484015260648301906102df565b836024830152836044830152038160805afa908115610bf8578260209392611796575b5050015190565b6117aa92503d8091833e610bea81836108ba565b388061178f565b61168360006040516117c281610866565b6020815281602082015260405180938192631743358560e31b83526060600484015260648301906102df565b801561188e575b811561186e575b61184061181361180d6000936119d9565b936119d9565b92611852604051948593849363650de1cf60e01b85526004808601526060602486015260648501906102df565b838103600319016044850152906102df565b038160805afa8015610bf85760209160009161108f5750015190565b9050600061184061181361180d6118836117b1565b9493505050506117fc565b506118976117b1565b6117f5565b600091611852611901946118c46118be6118b86118ee966119d9565b946119d9565b916119d9565b60405163616cb4a960e11b81526004810187905260806024820152968795869560848701906102df565b60031993848783030160448801526102df565b918483030160648501526102df565b9081602091031261013f575190565b60ff811690601f8211611943576040519161193983610866565b8252602082015290565b604051632cd44ac360e21b8152600490fd5b91907f7fffffffffffffffffffffffffffffff5d576e7357a4501ddfe92f46681b20a084116119cd57926020929160ff608095604051948552168484015260408301526060820152600092839182805260015afa15610bf85780516001600160a01b038116156119c457918190565b50809160019190565b50505060009160039190565b90604051916119e783610866565b60208352602083015256fea264697066735822122005428becb16b8aaf594c5e8f5116c93c8370a441aedfa107798e50b4ef8d232364736f6c63430008180033",
  "linkReferences": {},
  "deployedLinkReferences": {}
}