{
  "_format": "hh-sol-artifact-1",
  "contractName": "LoanVault",
  "sourceName": "contracts/LoanVault.sol",
  "abi": [
    {
      "inputs": [
        {
          "internalType": "address",
          "name": "underwritingEngineAddress",
          "type": "address"
        }
      ],
      "stateMutability": "nonpayable",
      "type": "constructor"
    },
    {
      "inputs": [
        {
          "internalType": "address",
          "name": "owner",
          "type": "address"
        }
      ],
      "name": "OwnableInvalidOwner",
      "type": "error"
    },
    {
      "inputs": [
        {
          "internalType": "address",
          "name": "account",
          "type": "address"
        }
      ],
      "name": "OwnableUnauthorizedAccount",
      "type": "error"
    },
    {
      "inputs": [],
      "name": "ReentrancyGuardReentrantCall",
      "type": "error"
    },
    {
      "anonymous": false,
      "inputs": [
        {
          "indexed": true,
          "internalType": "uint256",
          "name": "loanId",
          "type": "uint256"
        },
        {
          "indexed": false,
          "internalType": "uint8",
          "name": "newBand",
          "type": "uint8"
        }
      ],
      "name": "CovenantBreach",
      "type": "event"
    },
    {
      "anonymous": false,
      "inputs": [
        {
          "indexed": true,
          "internalType": "uint256",
          "name": "loanId",
          "type": "uint256"
        },
        {
          "indexed": false,
          "internalType": "address",
          "name": "lender",
          "type": "address"
        },
        {
          "indexed": false,
          "internalType": "uint256",
          "name": "amount",
          "type": "uint256"
        }
      ],
      "name": "LoanFunded",
      "type": "event"
    },
    {
      "anonymous": false,
      "inputs": [
        {
          "indexed": true,
          "internalType": "uint256",
          "name": "loanId",
          "type": "uint256"
        }
      ],
      "name": "LoanOverdue",
      "type": "event"
    },
    {
      "anonymous": false,
      "inputs": [
        {
          "indexed": true,
          "internalType": "uint256",
          "name": "loanId",
          "type": "uint256"
        }
      ],
      "name": "LoanRepaid",
      "type": "event"
    },
    {
      "anonymous": false,
      "inputs": [
        {
          "indexed": true,
          "internalType": "uint256",
          "name": "loanId",
          "type": "uint256"
        },
        {
          "indexed": false,
          "internalType": "address",
          "name": "borrower",
          "type": "address"
        }
      ],
      "name": "LoanRequested",
      "type": "event"
    },
    {
      "anonymous": false,
      "inputs": [
        {
          "indexed": true,
          "internalType": "address",
          "name": "previousOwner",
          "type": "address"
        },
        {
          "indexed": true,
          "internalType": "address",
          "name": "newOwner",
          "type": "address"
        }
      ],
      "name": "OwnershipTransferred",
      "type": "event"
    },
    {
      "anonymous": false,
      "inputs": [
        {
          "indexed": true,
          "internalType": "uint256",
          "name": "loanId",
          "type": "uint256"
        },
        {
          "indexed": false,
          "internalType": "uint256",
          "name": "amount",
          "type": "uint256"
        }
      ],
      "name": "PaymentMade",
      "type": "event"
    },
    {
      "inputs": [],
      "name": "PAYMENT_INTERVAL",
      "outputs": [
        {
          "internalType": "uint256",
          "name": "",
          "type": "uint256"
        }
      ],
      "stateMutability": "view",
      "type": "function"
    },
    {
      "inputs": [],
      "name": "SCORE_VALIDITY",
      "outputs": [
        {
          "internalType": "uint256",
          "name": "",
          "type": "uint256"
        }
      ],
      "stateMutability": "view",
      "type": "function"
    },
    {
      "inputs": [
        {
          "internalType": "address",
          "name": "",
          "type": "address"
        },
        {
          "internalType": "uint256",
          "name": "",
          "type": "uint256"
        }
      ],
      "name": "borrowerLoans",
      "outputs": [
        {
          "internalType": "uint256",
          "name": "",
          "type": "uint256"
        }
      ],
      "stateMutability": "view",
      "type": "function"
    },
    {
      "inputs": [
        {
          "internalType": "uint256",
          "name": "loanId",
          "type": "uint256"
        }
      ],
      "name": "checkCovenants",
      "outputs": [],
      "stateMutability": "nonpayable",
      "type": "function"
    },
    {
      "inputs": [
        {
          "internalType": "uint256",
          "name": "loanId",
          "type": "uint256"
        }
      ],
      "name": "fundLoan",
      "outputs": [],
      "stateMutability": "payable",
      "type": "function"
    },
    {
      "inputs": [
        {
          "internalType": "uint256",
          "name": "loanId",
          "type": "uint256"
        }
      ],
      "name": "getLoanDetails",
      "outputs": [
        {
          "components": [
            {
              "internalType": "address",
              "name": "borrower",
              "type": "address"
            },
            {
              "internalType": "address",
              "name": "lender",
              "type": "address"
            },
            {
              "internalType": "uint256",
              "name": "principal",
              "type": "uint256"
            },
            {
              "internalType": "uint256",
              "name": "interestRateBps",
              "type": "uint256"
            },
            {
              "internalType": "uint256",
              "name": "ltvBps",
              "type": "uint256"
            },
            {
              "internalType": "uint8",
              "name": "riskBand",
              "type": "uint8"
            },
            {
              "internalType": "uint256",
              "name": "issuedAt",
              "type": "uint256"
            },
            {
              "internalType": "uint256",
              "name": "termMonths",
              "type": "uint256"
            },
            {
              "internalType": "uint256",
              "name": "nextPaymentDue",
              "type": "uint256"
            },
            {
              "internalType": "uint256",
              "name": "remainingBalance",
              "type": "uint256"
            },
            {
              "internalType": "enum LoanVault.LoanStatus",
              "name": "status",
              "type": "uint8"
            },
            {
              "internalType": "bytes32",
              "name": "underwritingScoreId",
              "type": "bytes32"
            }
          ],
          "internalType": "struct LoanVault.Loan",
          "name": "",
          "type": "tuple"
        }
      ],
      "stateMutability": "view",
      "type": "function"
    },
    {
      "inputs": [],
      "name": "getPendingLoanIds",
      "outputs": [
        {
          "internalType": "uint256[]",
          "name": "",
          "type": "uint256[]"
        }
      ],
      "stateMutability": "view",
      "type": "function"
    },
    {
      "inputs": [],
      "name": "getPendingLoans",
      "outputs": [
        {
          "components": [
            {
              "internalType": "uint256",
              "name": "loanId",
              "type": "uint256"
            },
            {
              "internalType": "address",
              "name": "borrower",
              "type": "address"
            },
            {
              "internalType": "uint256",
              "name": "principal",
              "type": "uint256"
            },
            {
              "internalType": "uint256",
              "name": "interestRateBps",
              "type": "uint256"
            },
            {
              "internalType": "uint256",
              "name": "ltvBps",
              "type": "uint256"
            },
            {
              "internalType": "uint8",
              "name": "riskBand",
              "type": "uint8"
            },
            {
              "internalType": "uint256",
              "name": "termMonths",
              "type": "uint256"
            },
            {
              "internalType": "bytes32",
              "name": "underwritingScoreId",
              "type": "bytes32"
            }
          ],
          "internalType": "struct LoanVault.PendingLoanView[]",
          "name": "pendingLoans",
          "type": "tuple[]"
        }
      ],
      "stateMutability": "view",
      "type": "function"
    },
    {
      "inputs": [
        {
          "internalType": "address",
          "name": "",
          "type": "address"
        },
        {
          "internalType": "uint256",
          "name": "",
          "type": "uint256"
        }
      ],
      "name": "lenderLoans",
      "outputs": [
        {
          "internalType": "uint256",
          "name": "",
          "type": "uint256"
        }
      ],
      "stateMutability": "view",
      "type": "function"
    },
    {
      "inputs": [],
      "name": "loanCounter",
      "outputs": [
        {
          "internalType": "uint256",
          "name": "",
          "type": "uint256"
        }
      ],
      "stateMutability": "view",
      "type": "function"
    },
    {
      "inputs": [
        {
          "internalType": "uint256",
          "name": "",
          "type": "uint256"
        }
      ],
      "name": "loans",
      "outputs": [
        {
          "internalType": "address",
          "name": "borrower",
          "type": "address"
        },
        {
          "internalType": "address",
          "name": "lender",
          "type": "address"
        },
        {
          "internalType": "uint256",
          "name": "principal",
          "type": "uint256"
        },
        {
          "internalType": "uint256",
          "name": "interestRateBps",
          "type": "uint256"
        },
        {
          "internalType": "uint256",
          "name": "ltvBps",
          "type": "uint256"
        },
        {
          "internalType": "uint8",
          "name": "riskBand",
          "type": "uint8"
        },
        {
          "internalType": "uint256",
          "name": "issuedAt",
          "type": "uint256"
        },
        {
          "internalType": "uint256",
          "name": "termMonths",
          "type": "uint256"
        },
        {
          "internalType": "uint256",
          "name": "nextPaymentDue",
          "type": "uint256"
        },
        {
          "internalType": "uint256",
          "name": "remainingBalance",
          "type": "uint256"
        },
        {
          "internalType": "enum LoanVault.LoanStatus",
          "name": "status",
          "type": "uint8"
        },
        {
          "internalType": "bytes32",
          "name": "underwritingScoreId",
          "type": "bytes32"
        }
      ],
      "stateMutability": "view",
      "type": "function"
    },
    {
      "inputs": [
        {
          "internalType": "uint256",
          "name": "loanId",
          "type": "uint256"
        }
      ],
      "name": "makePayment",
      "outputs": [],
      "stateMutability": "payable",
      "type": "function"
    },
    {
      "inputs": [
        {
          "internalType": "uint256",
          "name": "loanId",
          "type": "uint256"
        }
      ],
      "name": "markOverdue",
      "outputs": [],
      "stateMutability": "nonpayable",
      "type": "function"
    },
    {
      "inputs": [],
      "name": "owner",
      "outputs": [
        {
          "internalType": "address",
          "name": "",
          "type": "address"
        }
      ],
      "stateMutability": "view",
      "type": "function"
    },
    {
      "inputs": [],
      "name": "renounceOwnership",
      "outputs": [],
      "stateMutability": "nonpayable",
      "type": "function"
    },
    {
      "inputs": [
        {
          "internalType": "uint256",
          "name": "requestedAmount",
          "type": "uint256"
        },
        {
          "internalType": "uint256",
          "name": "termMonths",
          "type": "uint256"
        }
      ],
      "name": "requestLoan",
      "outputs": [],
      "stateMutability": "nonpayable",
      "type": "function"
    },
    {
      "inputs": [
        {
          "internalType": "address",
          "name": "newOwner",
          "type": "address"
        }
      ],
      "name": "transferOwnership",
      "outputs": [],
      "stateMutability": "nonpayable",
      "type": "function"
    },
    {
      "inputs": [],
      "name": "underwritingEngine",
      "outputs": [
        {
          "internalType": "contract UnderwritingEngine",
          "name": "",
          "type": "address"
        }
      ],
      "stateMutability": "view",
      "type": "function"
    }
  ],
  "bytecode": "0x60a0346100da57601f61186138819003918201601f19168301916001600160401b038311848410176100df578084926020946040528339810103126100da57516001600160a01b0390818116908190036100da5733156100c1576000543360018060a01b0319821617600055604051923391167f8be0079c531659141344cd1fd0a4f28419497f9722a3daafe3b4186f6b6457e0600080a36001805560805261176b90816100f68239608051818181610462015281816105f6015261100c0152f35b604051631e4fbdf760e01b815260006004820152602490fd5b600080fd5b634e487b7160e01b600052604160045260246000fdfe608060405260048036101561001357600080fd5b60003560e01c8063059c777314610fa6578063060f143b14610ef057806320dd0c8414610ed257806334d9289e14610eb45780633cdb72f114610e5f5780635114cb5214610e3a5780635d0dfa3914610e1c57806366877b8d14610c53578063715018a614610bfa578063846b909a14610a255780638da5cb5b146109fc578063aa452fa6146105ac578063e1ec3c68146104ea578063e3ed190214610491578063e93387661461044c578063ec660a8014610345578063ee24af5a146101715763f2fde38b146100e357600080fd5b3461016c57602036600319011261016c576100fc6111c5565b610104611668565b6001600160a01b039081169182156101545750600054826001600160601b0360a01b821617600055167f8be0079c531659141344cd1fd0a4f28419497f9722a3daafe3b4186f6b6457e0600080a3005b602490600060405191631e4fbdf760e01b8352820152fd5b600080fd5b503461016c57600036600319011261016c5760059060055461019281611619565b926101a060405194856112f0565b8184526101ac82611619565b60209390601f19018460005b8281106102f75750505060005b83811061025c57604080518681528751818801819052888801928201908860005b8281106101f35784840385f35b855180518552808301516001600160a01b03168584015260408082015190860152606080820151908601526080808201519086015260a08082015160ff169086015260c0808201519086015260e0908101519085015294810194610100909301926001016101e6565b806102686001926111db565b9054600391821b1c9081600052600290818952604060002090858060a01b038254169282015490820154878301549060ff8a8501541692600b600786015495015495604051976102b7896112d3565b88528d88015260408701526060860152608085015260a084015260c083015260e08201526102e58289611631565b526102f08188611631565b50016101c5565b604051610303816112d3565b60008152600083820152600060408201526000606082015260006080820152600060a0820152600060c0820152600060e082015282828a0101520185906101b8565b503461016c57602036600319011261016c57803590816000526002602052604060002061037c60018060a01b038254161515611263565b600a81019182549160ff831660058110156104375760010361040657600801544211156103d4575060ff191660021790557ff39869fa528ee7cc49f717ec484f4b69b167958c5ce2bd5f3e80c4e877943c16600080a2005b60649060206040519162461bcd60e51b8352820152600b60248201526a4e4f545f4f56455244554560a81b6044820152fd5b60405162461bcd60e51b8152602081840152600a6024820152694e4f545f41435449564560b01b6044820152606490fd5b602183634e487b7160e01b6000525260246000fd5b3461016c57600036600319011261016c576040517f00000000000000000000000000000000000000000000000000000000000000006001600160a01b03168152602090f35b3461016c57604036600319011261016c576104aa6111c5565b6001600160a01b031660009081526003602052604090208054602435919082101561016c576020916104db91611228565b90549060031b1c604051908152f35b503461016c57602036600319011261016c5780610180913560005260026020526040600020906105a460018060a01b039283815416936001820154169260028201549060038301549083015460ff600585015416600685015490600786015492600887015494600988015496600b60ff600a8b0154169901549a6040519c8d5260208d015260408c015260608b015260808a015260a089015260c088015260e0870152610100860152610120850152610140840190611240565b610160820152f35b503461016c57604036600319011261016c576024803591803580156109c857831515806109bd575b1561098b57604051632b0e68dd60e01b815233838201526101009190828186817f00000000000000000000000000000000000000000000000000000000000000006001600160a01b03165afa90811561097f5760009260009760009460009460009060009560009161093c575b5015610909576106556276a7009142611360565b116108d65760ff166006998a821461089f578311610869578954946001860186116108555790859493929160018097018c5560405197610694896112a0565b338952600060208a01528460408a01526060890152608088015260a0870152600060c087015260e0860152600086860152610120850152600061014085015261016084015201600052600260205260406000209160018060a01b038251166001600160601b0360a01b9081855416178455600184019060018060a01b03602085015116908254161790556040820151600284015560608201516003840155608082015184840155600583019060ff60a0840151169160ff19928382541617905560c08301518785015560e0830151600785015582015160088401556101208201516009840155600a8301906101408301519060058210156108415791600b939160ff61016094835416911617905501519101553360005260036020526107c060406000208454906115f4565b82549160055491600160401b83101561082e5784610801856107e886600181016005556111db565b90919082549060031b91821b91600019901b1916179055565b547fb7401c74d1dadd9b1c5778044555b38bcde050d7371b0e27212cfe1c418febcd6020604051338152a2005b604190634e487b7160e01b600052526000fd5b86602187634e487b7160e01b600052526000fd5b8960118a634e487b7160e01b600052526000fd5b60405162461bcd60e51b81526020818a01526010818b01526f22ac21a2a2a229afa6a0ac2fa627a0a760811b6044820152606490fd5b60405162461bcd60e51b81526020818b01526011818c0152701093d49493d5d15497d491529150d51151607a1b6044820152606490fd5b60405162461bcd60e51b81526020818a0152600d818b01526c14d0d3d49157d1561412549151609a1b6044820152606490fd5b60405162461bcd60e51b81526020818b0152600d818c01526c4d495353494e475f53434f524560981b6044820152606490fd5b9550505050935096506109659150833d8511610978575b61095d81836112f0565b810190611312565b959b949793969195919291905038610641565b503d610953565b6040513d6000823e3d90fd5b50600c60649260206040519362461bcd60e51b85528401528201526b494e56414c49445f5445524d60a01b6044820152fd5b50603c8411156105d4565b50600e60649260206040519362461bcd60e51b85528401528201526d1253959053125117d05353d5539560921b6044820152fd5b3461016c57600036600319011261016c576000546040516001600160a01b039091168152602090f35b5060208060031936011261016c57813591610a3e611645565b6000838152600283526040902080546001600160a01b0390610a639082161515611263565b600a8201805460ff81166005811015610be557610bb35760028401543403610b7657600190818501336001600160601b0360a01b82541617905560ff191617905542600683015562278d004201804211610b6157600083819493829493600884950155338352868852610ad989604085206115f4565b610ae289611694565b349154165af1610af0611383565b5015610b2d575060407fbd7ef6c6281278f6c8ac4ae9ef2f205b52425813c288dd47c377cb6b59c5076e918151903382523490820152a260018055005b6064916040519162461bcd60e51b8352820152600f60248201526e1514905394d1915497d19052531151608a1b6044820152fd5b601184634e487b7160e01b6000525260246000fd5b60405162461bcd60e51b815280860187905260166024820152751253959053125117d1955391125391d7d05353d5539560521b6044820152606490fd5b60405162461bcd60e51b8152808601879052600b60248201526a4e4f545f50454e44494e4760a81b6044820152606490fd5b602186634e487b7160e01b6000525260246000fd5b3461016c57600036600319011261016c57610c13611668565b600080546001600160a01b0319811682556001600160a01b03167f8be0079c531659141344cd1fd0a4f28419497f9722a3daafe3b4186f6b6457e08280a3005b503461016c57602036600319011261016c576000610160604051610c76816112a0565b8281528260208201528260408201528260608201528260808201528260a08201528260c08201528260e082015282610100820152826101208201528261014082015201528035600052600260205260406000209060405190610cd7826112a0565b82546001600160a01b0390811683526001840154166020830152600283015460408301526003830154606083015280830154608083015260058084015460ff90811660a0850152600685015460c0850152600785015460e085015260088501546101008501526009850154610120850152600a850154169190821015610e07575061018092600b9161014084015201546101608201526101606040519160018060a01b03815116835260018060a01b03602082015116602084015260408101516040840152606081015160608401526080810151608084015260ff60a08201511660a084015260c081015160c084015260e081015160e0840152610100810151610100840152610120810151610120840152610dfd610140820151610140850190611240565b0151610160820152f35b602190634e487b7160e01b6000525260246000fd5b3461016c57600036600319011261016c5760206040516276a7008152f35b50602036600319011261016c57610e5990610e53611645565b356113c3565b60018055005b503461016c57604036600319011261016c57610e796111c5565b906024359160018060a01b03166000526020526040600020805482101561016c57602091610ea691611228565b90546040519160031b1c8152f35b3461016c57600036600319011261016c576020600654604051908152f35b3461016c57600036600319011261016c57602060405162278d008152f35b3461016c57600036600319011261016c57604051806005548083526020809301809160056000527f036b6384b5eca791c62761152d0c79bb0604c104a5fb6f4eb0703f3154bb3db09060005b86828210610f92578686610f52828803836112f0565b604051928392818401908285525180915260408401929160005b828110610f7b57505050500390f35b835185528695509381019392810192600101610f6c565b835485529093019260019283019201610f3c565b503461016c5760208060031936011261016c5781356000818152600283526040902080546001600160a01b0394908516929190610fe4841515611263565b600a82019560ff875416600581101561043757600181149081156111ba575b501561117657807f000000000000000000000000000000000000000000000000000000000000000016946040519063df5fb79160e01b825283820152868160248160008a5af190811561097f57879161114d575b5050825416604051948591632b0e68dd60e01b8352838301528160246101009788935afa90811561097f57600095600092611121575b5050156110e757506005015460ff928316921682116110a857005b7f2d3cdc1486155e337879ef4c630f1d2f120e14bd870c7ab8392205c3d06a3a6d600693604051848152a2146110da57005b805460ff19166003179055005b60405162461bcd60e51b81529081018590526013602482015272155391115495d49255125391d7d19052531151606a1b6044820152606490fd5b61113c93965080919250903d106109785761095d81836112f0565b99969550505050505093388061108d565b813d831161116f575b61116081836112f0565b8101031261016c578538611057565b503d611156565b60405162461bcd60e51b8152808301879052601a60248201527f434f56454e414e545f434845434b5f4e4f545f414c4c4f5745440000000000006044820152606490fd5b600291501438611003565b600435906001600160a01b038216820361016c57565b6005548110156112125760056000527f036b6384b5eca791c62761152d0c79bb0604c104a5fb6f4eb0703f3154bb3db00190600090565b634e487b7160e01b600052603260045260246000fd5b80548210156112125760005260206000200190600090565b90600582101561124d5752565b634e487b7160e01b600052602160045260246000fd5b1561126a57565b60405162461bcd60e51b815260206004820152600e60248201526d1313d05397d393d517d193d5539160921b6044820152606490fd5b610180810190811067ffffffffffffffff8211176112bd57604052565b634e487b7160e01b600052604160045260246000fd5b610100810190811067ffffffffffffffff8211176112bd57604052565b90601f8019910116810190811067ffffffffffffffff8211176112bd57604052565b91908261010091031261016c57815160ff8116810361016c579160208101519160408201519160608101519160808201519160a08101519160e060c0830151920151801515810361016c5790565b9190820391821161136d57565b634e487b7160e01b600052601160045260246000fd5b3d156113be573d9067ffffffffffffffff82116112bd57604051916113b2601f8201601f1916602001846112f0565b82523d6000602084013e565b606090565b600090808252602090600282526040908184209260018060a01b0390818554166113ee811515611263565b33036115c257600a85019360ff85541660058110156115ae57600181149081156115a3575b501561156d5734156115385734908760098801948554803411611530575b82858193611440828495611360565b8a5560018d0154165af1611452611383565b50156114f4575190815283917f0e9e4ec6fa83fe2a2893fd5d6517a890df20f72cc0ba40495b21e65d1222350391a254156114bc5750600160ff1982541617905562278d004201918242116114a8575060080155565b634e487b7160e01b81526011600452602490fd5b9260087f9a7851747cd7ffb3fe0a32caf3da48b31f27cebe131267051640f8b72fc47186938293600460ff19825416179055015580a2565b5162461bcd60e51b815260048101839052601660248201527513115391115497d514905394d1915497d1905253115160521b6044820152606490fd5b935083611431565b60649250519062461bcd60e51b82526004820152600f60248201526e1253959053125117d4105653515395608a1b6044820152fd5b60649250519062461bcd60e51b82526004820152601060248201526f4c4f414e5f4e4f545f50415941424c4560801b6044820152fd5b600291501438611413565b634e487b7160e01b88526021600452602488fd5b60649084519062461bcd60e51b82526004820152600c60248201526b2727aa2fa127a92927aba2a960a11b6044820152fd5b90815491600160401b8310156112bd57826107e891600161161795018155611228565b565b67ffffffffffffffff81116112bd5760051b60200190565b80518210156112125760209160051b010190565b600260015414611656576002600155565b604051633ee5aeb560e01b8152600490fd5b6000546001600160a01b0316330361167c57565b60405163118cdaa760e01b8152336004820152602490fd5b60005b6005908154918282101561172f5783926116b0836111db565b959054600396871b1c146116cb575050600191925001611697565b9092506000199182820191821161136d576107e86116eb6116f7936111db565b905490871b1c916111db565b815480156117195781019261170b846111db565b81939154921b1b1916905555565b634e487b7160e01b600052603160045260246000fd5b5050505056fea2646970667358221220f3da4e88e5040472b51e851c97f41f38d2959e581093ba3c00afa07a7a6c200164736f6c63430008180033",
  "linkReferences": {},
  "deployedLinkReferences": {}
}