{
  "_format": "hh-sol-artifact-1",
  "contractName": "UnderwritingEngine",
  "sourceName": "contracts/UnderwritingEngine.sol",
  "abi": [
    {
      "inputs": [
        {
          "internalType": "address",
          "name": "borrowerRegistryAddress",
          "type": "address"
        }
      ],
      "stateMutability": "nonpayable",
      "type": "constructor"
    },
    {
      "inputs": [],
      "name": "ECDSAInvalidSignature",
      "type": "error"
    },
    {
      "inputs": [
        {
          "internalType": "uint256",
          "name": "length",
          "type": "uint256"
        }
      ],
      "name": "ECDSAInvalidSignatureLength",
      "type": "error"
    },
    {
      "inputs": [
        {
          "internalType": "bytes32",
          "name": "s",
          "type": "bytes32"
        }
      ],
      "name": "ECDSAInvalidSignatureS",
      "type": "error"
    },
    {
      "inputs": [],
      "name": "InvalidShortString",
      "type": "error"
    },
    {
      "inputs": [],
      "name": "OnlyLoanVault",
      "type": "error"
    },
    {
      "inputs": [
        {
          "internalType": "address",
          "name": "owner",
          "type": "address"
        }
      ],
      "name": "OwnableInvalidOwner",
      "type": "error"
    },
    {
      "inputs": [
        {
          "internalType": "address",
          "name": "account",
          "type": "address"
        }
      ],
      "name": "OwnableUnauthorizedAccount",
      "type": "error"
    },
    {
      "inputs": [],
      "name": "SignerNotMessageSender",
      "type": "error"
    },
    {
      "inputs": [],
      "name": "SignerNotOwner",
      "type": "error"
    },
    {
      "inputs": [
        {
          "internalType": "string",
          "name": "str",
          "type": "string"
        }
      ],
      "name": "StringTooLong",
      "type": "error"
    },
    {
      "anonymous": false,
      "inputs": [],
      "name": "EIP712DomainChanged",
      "type": "event"
    },
    {
      "anonymous": false,
      "inputs": [
        {
          "indexed": true,
          "internalType": "address",
          "name": "previousOwner",
          "type": "address"
        },
        {
          "indexed": true,
          "internalType": "address",
          "name": "newOwner",
          "type": "address"
        }
      ],
      "name": "OwnershipTransferred",
      "type": "event"
    },
    {
      "anonymous": false,
      "inputs": [
        {
          "indexed": true,
          "internalType": "address",
          "name": "borrower",
          "type": "address"
        }
      ],
      "name": "ScoreExpired",
      "type": "event"
    },
    {
      "anonymous": false,
      "inputs": [
        {
          "indexed": true,
          "internalType": "address",
          "name": "borrower",
          "type": "address"
        },
        {
          "indexed": true,
          "internalType": "bytes32",
          "name": "scoreId",
          "type": "bytes32"
        },
        {
          "indexed": false,
          "internalType": "uint256",
          "name": "computedAt",
          "type": "uint256"
        }
      ],
      "name": "UnderwritingComplete",
      "type": "event"
    },
    {
      "inputs": [],
      "name": "BAND_AA_THRESHOLD",
      "outputs": [
        {
          "internalType": "uint256",
          "name": "",
          "type": "uint256"
        }
      ],
      "stateMutability": "view",
      "type": "function"
    },
    {
      "inputs": [],
      "name": "BAND_A_THRESHOLD",
      "outputs": [
        {
          "internalType": "uint256",
          "name": "",
          "type": "uint256"
        }
      ],
      "stateMutability": "view",
      "type": "function"
    },
    {
      "inputs": [],
      "name": "BAND_BBB_THRESHOLD",
      "outputs": [
        {
          "internalType": "uint256",
          "name": "",
          "type": "uint256"
        }
      ],
      "stateMutability": "view",
      "type": "function"
    },
    {
      "inputs": [],
      "name": "BAND_BB_THRESHOLD",
      "outputs": [
        {
          "internalType": "uint256",
          "name": "",
          "type": "uint256"
        }
      ],
      "stateMutability": "view",
      "type": "function"
    },
    {
      "inputs": [],
      "name": "BAND_B_THRESHOLD",
      "outputs": [
        {
          "internalType": "uint256",
          "name": "",
          "type": "uint256"
        }
      ],
      "stateMutability": "view",
      "type": "function"
    },
    {
      "inputs": [],
      "name": "DSCR_WEIGHT",
      "outputs": [
        {
          "internalType": "uint256",
          "name": "",
          "type": "uint256"
        }
      ],
      "stateMutability": "view",
      "type": "function"
    },
    {
      "inputs": [],
      "name": "LEVERAGE_WEIGHT",
      "outputs": [
        {
          "internalType": "uint256",
          "name": "",
          "type": "uint256"
        }
      ],
      "stateMutability": "view",
      "type": "function"
    },
    {
      "inputs": [],
      "name": "MAX_PROFILE_AGE",
      "outputs": [
        {
          "internalType": "uint256",
          "name": "",
          "type": "uint256"
        }
      ],
      "stateMutability": "view",
      "type": "function"
    },
    {
      "inputs": [],
      "name": "MIN_BUSINESS_AGE",
      "outputs": [
        {
          "internalType": "uint256",
          "name": "",
          "type": "uint256"
        }
      ],
      "stateMutability": "view",
      "type": "function"
    },
    {
      "inputs": [],
      "name": "RECEIVABLES_WEIGHT",
      "outputs": [
        {
          "internalType": "uint256",
          "name": "",
          "type": "uint256"
        }
      ],
      "stateMutability": "view",
      "type": "function"
    },
    {
      "inputs": [],
      "name": "RUNWAY_WEIGHT",
      "outputs": [
        {
          "internalType": "uint256",
          "name": "",
          "type": "uint256"
        }
      ],
      "stateMutability": "view",
      "type": "function"
    },
    {
      "inputs": [],
      "name": "SCORE_MAX_AGE",
      "outputs": [
        {
          "internalType": "uint256",
          "name": "",
          "type": "uint256"
        }
      ],
      "stateMutability": "view",
      "type": "function"
    },
    {
      "inputs": [],
      "name": "borrowerRegistry",
      "outputs": [
        {
          "internalType": "contract BorrowerRegistry",
          "name": "",
          "type": "address"
        }
      ],
      "stateMutability": "view",
      "type": "function"
    },
    {
      "inputs": [
        {
          "internalType": "address",
          "name": "",
          "type": "address"
        }
      ],
      "name": "creditScores",
      "outputs": [
        {
          "internalType": "euint8",
          "name": "riskBand",
          "type": "uint256"
        },
        {
          "internalType": "euint32",
          "name": "maxLoanSize",
          "type": "uint256"
        },
        {
          "internalType": "euint32",
          "name": "interestRateBps",
          "type": "uint256"
        },
        {
          "internalType": "euint32",
          "name": "ltvBps",
          "type": "uint256"
        },
        {
          "internalType": "uint256",
          "name": "computedAt",
          "type": "uint256"
        },
        {
          "internalType": "bytes32",
          "name": "proofHash",
          "type": "bytes32"
        },
        {
          "internalType": "bool",
          "name": "exists",
          "type": "bool"
        }
      ],
      "stateMutability": "view",
      "type": "function"
    },
    {
      "inputs": [],
      "name": "eip712Domain",
      "outputs": [
        {
          "internalType": "bytes1",
          "name": "fields",
          "type": "bytes1"
        },
        {
          "internalType": "string",
          "name": "name",
          "type": "string"
        },
        {
          "internalType": "string",
          "name": "version",
          "type": "string"
        },
        {
          "internalType": "uint256",
          "name": "chainId",
          "type": "uint256"
        },
        {
          "internalType": "address",
          "name": "verifyingContract",
          "type": "address"
        },
        {
          "internalType": "bytes32",
          "name": "salt",
          "type": "bytes32"
        },
        {
          "internalType": "uint256[]",
          "name": "extensions",
          "type": "uint256[]"
        }
      ],
      "stateMutability": "view",
      "type": "function"
    },
    {
      "inputs": [
        {
          "internalType": "address",
          "name": "borrower",
          "type": "address"
        }
      ],
      "name": "getLatestScoreForVault",
      "outputs": [
        {
          "internalType": "uint8",
          "name": "band",
          "type": "uint8"
        },
        {
          "internalType": "uint256",
          "name": "maxLoanSize",
          "type": "uint256"
        },
        {
          "internalType": "uint256",
          "name": "rateBps",
          "type": "uint256"
        },
        {
          "internalType": "uint256",
          "name": "ltvBps",
          "type": "uint256"
        },
        {
          "internalType": "uint256",
          "name": "computedAt",
          "type": "uint256"
        },
        {
          "internalType": "bytes32",
          "name": "scoreId",
          "type": "bytes32"
        },
        {
          "internalType": "bytes32",
          "name": "proofHash",
          "type": "bytes32"
        },
        {
          "internalType": "bool",
          "name": "exists",
          "type": "bool"
        }
      ],
      "stateMutability": "view",
      "type": "function"
    },
    {
      "inputs": [
        {
          "internalType": "address",
          "name": "borrower",
          "type": "address"
        }
      ],
      "name": "isScoreFresh",
      "outputs": [
        {
          "internalType": "bool",
          "name": "",
          "type": "bool"
        }
      ],
      "stateMutability": "nonpayable",
      "type": "function"
    },
    {
      "inputs": [
        {
          "internalType": "address",
          "name": "",
          "type": "address"
        }
      ],
      "name": "latestScoreId",
      "outputs": [
        {
          "internalType": "bytes32",
          "name": "",
          "type": "bytes32"
        }
      ],
      "stateMutability": "view",
      "type": "function"
    },
    {
      "inputs": [],
      "name": "loanVault",
      "outputs": [
        {
          "internalType": "address",
          "name": "",
          "type": "address"
        }
      ],
      "stateMutability": "view",
      "type": "function"
    },
    {
      "inputs": [],
      "name": "owner",
      "outputs": [
        {
          "internalType": "address",
          "name": "",
          "type": "address"
        }
      ],
      "stateMutability": "view",
      "type": "function"
    },
    {
      "inputs": [],
      "name": "renounceOwnership",
      "outputs": [],
      "stateMutability": "nonpayable",
      "type": "function"
    },
    {
      "inputs": [
        {
          "internalType": "address",
          "name": "borrower",
          "type": "address"
        }
      ],
      "name": "runUnderwriting",
      "outputs": [
        {
          "internalType": "bytes32",
          "name": "scoreId",
          "type": "bytes32"
        }
      ],
      "stateMutability": "nonpayable",
      "type": "function"
    },
    {
      "inputs": [
        {
          "internalType": "bytes32",
          "name": "",
          "type": "bytes32"
        }
      ],
      "name": "scoreBorrower",
      "outputs": [
        {
          "internalType": "address",
          "name": "",
          "type": "address"
        }
      ],
      "stateMutability": "view",
      "type": "function"
    },
    {
      "inputs": [
        {
          "internalType": "address",
          "name": "borrower",
          "type": "address"
        },
        {
          "components": [
            {
              "internalType": "bytes32",
              "name": "publicKey",
              "type": "bytes32"
            },
            {
              "internalType": "bytes",
              "name": "signature",
              "type": "bytes"
            }
          ],
          "internalType": "struct Permission",
          "name": "permission",
          "type": "tuple"
        }
      ],
      "name": "sealAuditView",
      "outputs": [
        {
          "internalType": "uint8",
          "name": "band",
          "type": "uint8"
        },
        {
          "internalType": "string",
          "name": "revenueBucket",
          "type": "string"
        },
        {
          "internalType": "bool",
          "name": "dscrAboveThreshold",
          "type": "bool"
        },
        {
          "internalType": "bool",
          "name": "leverageWithinPolicy",
          "type": "bool"
        },
        {
          "internalType": "bool",
          "name": "covenantCompliant",
          "type": "bool"
        }
      ],
      "stateMutability": "view",
      "type": "function"
    },
    {
      "inputs": [
        {
          "internalType": "address",
          "name": "borrower",
          "type": "address"
        },
        {
          "components": [
            {
              "internalType": "bytes32",
              "name": "publicKey",
              "type": "bytes32"
            },
            {
              "internalType": "bytes",
              "name": "signature",
              "type": "bytes"
            }
          ],
          "internalType": "struct Permission",
          "name": "permission",
          "type": "tuple"
        }
      ],
      "name": "sealBandForLender",
      "outputs": [
        {
          "internalType": "uint8",
          "name": "band",
          "type": "uint8"
        }
      ],
      "stateMutability": "view",
      "type": "function"
    },
    {
      "inputs": [
        {
          "internalType": "address",
          "name": "borrower",
          "type": "address"
        },
        {
          "components": [
            {
              "internalType": "bytes32",
              "name": "publicKey",
              "type": "bytes32"
            },
            {
              "internalType": "bytes",
              "name": "signature",
              "type": "bytes"
            }
          ],
          "internalType": "struct Permission",
          "name": "permission",
          "type": "tuple"
        }
      ],
      "name": "sealTermsForBorrower",
      "outputs": [
        {
          "internalType": "uint256",
          "name": "maxLoan",
          "type": "uint256"
        },
        {
          "internalType": "uint256",
          "name": "rateBps",
          "type": "uint256"
        },
        {
          "internalType": "uint256",
          "name": "ltvBps",
          "type": "uint256"
        }
      ],
      "stateMutability": "view",
      "type": "function"
    },
    {
      "inputs": [
        {
          "internalType": "address",
          "name": "loanVaultAddress",
          "type": "address"
        }
      ],
      "name": "setLoanVault",
      "outputs": [],
      "stateMutability": "nonpayable",
      "type": "function"
    },
    {
      "inputs": [
        {
          "internalType": "address",
          "name": "newOwner",
          "type": "address"
        }
      ],
      "name": "transferOwnership",
      "outputs": [],
      "stateMutability": "nonpayable",
      "type": "function"
    }
  ],
  "bytecode": "0x610180346200021957601f620038d938819003918201601f19168301926001600160401b03929091838511838610176200021e5781602092849260409788528339810103126200021957516001600160a01b03928382169182900362000219578051906200006d8262000234565b60118252602082019070233432b734bc102832b936b4b9b9b4b7b760791b82528051906200009b8262000234565b6003825260208201620312e360ec1b81523315620002015760008054336001600160a01b03198216811783559199167f8be0079c531659141344cd1fd0a4f28419497f9722a3daafe3b4186f6b6457e08a80a3620000f98562000250565b936101209485526200010b8462000427565b95610140968752519020928360e05251902090610100978289524660a05281519260208401947f8b73c3c69bb8fe3d512ecc4cf759cc79239f7b179b0ffacaa9a75d522b39400f86528385015260608401524660808401523060a084015260a0835260c083019783891090891117620001ed57508690525190206080523060c0526101609283526132f99485620005e0863960805185612050015260a0518561210b015260c0518561201a015260e0518561209f015251846120c50152518361091a015251826109440152518181816103f301528181610a730152610b6b0152f35b634e487b7160e01b81526041600452602490fd5b8151631e4fbdf760e01b815260006004820152602490fd5b600080fd5b634e487b7160e01b600052604160045260246000fd5b604081019081106001600160401b038211176200021e57604052565b805160209081811015620002ed5750601f8251116200028c57808251920151908083106200027d57501790565b82600019910360031b1b161790565b90604051809263305a27a960e01b82528060048301528251908160248401526000935b828510620002d3575050604492506000838284010152601f80199101168101030190fd5b8481018201518686016044015293810193859350620002af565b9192916001600160401b0381116200021e5760019182548381811c911680156200041c575b828210146200040657601f8111620003cd575b5080601f83116001146200036557508192939460009262000359575b5050600019600383901b1c191690821b17905560ff90565b01519050388062000341565b90601f198316958460005282600020926000905b888210620003b557505083859697106200039b575b505050811b01905560ff90565b015160001960f88460031b161c191690553880806200038e565b80878596829496860151815501950193019062000379565b8360005283601f83600020920160051c820191601f850160051c015b828110620003f957505062000325565b60008155018490620003e9565b634e487b7160e01b600052602260045260246000fd5b90607f169062000312565b805160209081811015620004b55750601f8251116200045457808251920151908083106200027d57501790565b90604051809263305a27a960e01b82528060048301528251908160248401526000935b8285106200049b575050604492506000838284010152601f80199101168101030190fd5b848101820151868601604401529381019385935062000477565b906001600160401b0382116200021e57600254926001938481811c91168015620005d4575b838210146200040657601f81116200059a575b5081601f84116001146200052e575092829391839260009462000522575b50501b916000199060031b1c19161760025560ff90565b0151925038806200050b565b919083601f198116600260005284600020946000905b888383106200057f575050501062000565575b505050811b0160025560ff90565b015160001960f88460031b161c1916905538808062000557565b85870151885590960195948501948793509081019062000544565b600260005284601f84600020920160051c820191601f860160051c015b828110620005c7575050620004ed565b60008155018590620005b7565b90607f1690620004da56fe6080604052600436101561001257600080fd5b60003560e01c806306e3489c146101d257806307f9b4cc146101cd5780630dd45ccf146101c85780632b0e68dd146101c35780632d72d6551461015057806339c1e867146101be5780634028dd1c146101b95780634a39ccea146101b45780634bbffe17146101af57806351ee0c4c146101aa57806358eb1e0b146101a55780635a62bf0f146101a05780635dd3e5b01461019b578063715018a61461019657806380bb72731461019157806384b0196e1461018c5780638da5cb5b14610187578063966ddbff14610182578063aaadb21a1461017d578063b2d9a1d914610178578063b373b47414610173578063d148fd051461016e578063d23cf0c414610169578063df5fb79114610164578063e66f0eca1461015f578063e73d72501461015a578063f2fde38b146101555763f5eb5fb71461015057600080fd5b610592565b610f1e565b610f02565b610ec5565b610b21565b610ada565b610abe565b610aa2565b610a5d565b610a3f565b610a23565b6109fa565b6108ff565b61087c565b61081e565b610802565b6107e6565b6107b5565b610799565b6106d2565b6105e8565b6105ca565b6105ae565b610533565b610304565b610200565b346101fb5760003660031901126101fb576003546040516001600160a01b039091168152602090f35b600080fd5b346101fb5760203660031901126101fb576004356000526006602052602060018060a01b0360406000205416604051908152f35b6001600160a01b038116036101fb57565b906003196040818401126101fb5760043561025f81610234565b926024359167ffffffffffffffff83116101fb57826040920301126101fb5760040190565b60005b8381106102975750506000910152565b8181015183820152602001610287565b906020916102c081518092818552858086019101610284565b601f01601f1916010190565b939060809396959260ff6102ee9216865260a0602087015260a08601906102a7565b9515156040850152151560608401521515910152565b346101fb5761031f61031536610245565b91909136906110c3565b61038361037a82519260206103716040958651838101917f6bdaeb2d29561f159c7ef98b16b27015fb2aeb87209c7ee656226d912f59927d83528882015287815261036981610fc0565b519020611445565b91015190612131565b9092919261218d565b6001600160a01b039083821690821603610522576103c86103c360066103bb8660018060a01b03166000526004602052604060002090565b015460ff1690565b611149565b8151634367dc4560e11b81526001600160a01b038416600482015291610160918290849060249082907f0000000000000000000000000000000000000000000000000000000000000000165afa92831561051d576000926000946104e4575b50506104366104e09293611254565b6001600160a01b03841660009081526004602052604090206104639061045c905461146b565b935161161c565b936104896104838260018060a01b03166000526007602052604060002090565b546122c8565b6104d560026104b26104b960016104b28760018060a01b03166000526007602052604060002090565b01546122c8565b6001600160a01b03909516600090815260076020526040902090565b9251958695866102cc565b0390f35b61043694506104e09350908161050e92903d10610516575b6105068183611035565b8101906111ad565b939092610427565b503d6104fc565b611248565b81516328e32f5760e11b8152600490fd5b346101fb5760203660031901126101fb5761010061055b60043561055681610234565b611294565b9560ff60409692969593955198168852602088015260408701526060860152608085015260a084015260c0830152151560e0820152f35b346101fb5760003660031901126101fb57602060405160288152f35b346101fb5760003660031901126101fb57602060405160198152f35b346101fb5760003660031901126101fb5760206040516276a7008152f35b346101fb576105f961031536610245565b9061064461037a83519360206103716040968751838101917f6bdaeb2d29561f159c7ef98b16b27015fb2aeb87209c7ee656226d912f59927d83528982015288815261036981610fc0565b6001600160a01b0391821691168190036105225780600052600460205261067460ff600684600020015416611149565b6000526004602052806000206104e0610690600183015461173d565b916106ab60036106a3600284015461173d565b92015461173d565b935163ffffffff938416815290831660208201529190921660408201529081906060820190565b346101fb576106e361031536610245565b61072d61037a82519260206103716040958651838101917f6bdaeb2d29561f159c7ef98b16b27015fb2aeb87209c7ee656226d912f59927d83528882015287815261036981610fc0565b6001600160a01b03928316921682900361078957816104e092600052600460205261076160ff600684600020015416611149565b6000526004602052610776816000205461146b565b905160ff90911681529081906020820190565b516328e32f5760e11b8152600490fd5b346101fb5760003660031901126101fb57602060405160148152f35b346101fb5760203660031901126101fb5760206107dc6004356107d781610234565b611395565b6040519015158152f35b346101fb5760003660031901126101fb576020604051600c8152f35b346101fb5760003660031901126101fb57602060405160558152f35b346101fb57600080600319360112610879576108386117bd565b80546001600160a01b03198116825581906001600160a01b03167f8be0079c531659141344cd1fd0a4f28419497f9722a3daafe3b4186f6b6457e08280a380f35b80fd5b346101fb5760203660031901126101fb5760043561089981610234565b60018060a01b0316600052600460205260e060406000208054906001810154906002810154600382015460048301549160ff600660058601549501541694604051968752602087015260408601526060850152608084015260a0830152151560c0820152f35b346101fb576000806003193601126108795761099d9061093e7f00000000000000000000000000000000000000000000000000000000000000006123d9565b906109687f00000000000000000000000000000000000000000000000000000000000000006124db565b906040519161097683610fe1565b8183526109ab602091604051968796600f60f81b885260e0602089015260e08801906102a7565b9086820360408801526102a7565b904660608601523060808601528260a086015284820360c0860152602080855193848152019401925b8281106109e357505050500390f35b8351855286955093810193928101926001016109d4565b346101fb5760003660031901126101fb576000546040516001600160a01b039091168152602090f35b346101fb5760003660031901126101fb57602060405160378152f35b346101fb5760003660031901126101fb57602060405162ed4e008152f35b346101fb5760003660031901126101fb576040517f00000000000000000000000000000000000000000000000000000000000000006001600160a01b03168152602090f35b346101fb5760003660031901126101fb576020604051600a8152f35b346101fb5760003660031901126101fb57602060405160468152f35b346101fb5760203660031901126101fb57600435610af781610234565b610aff6117bd565b600380546001600160a01b0319166001600160a01b0392909216919091179055005b346101fb576020806003193601126101fb5760043590610b4082610234565b60408051634367dc4560e11b81526001600160a01b03848116600483015291926101609182816024817f000000000000000000000000000000000000000000000000000000000000000088165afa90811561051d576000938492610ea2575b5050610baa90611254565b610100820151610bba9042611372565b62ed4e001015610bc990611407565b815191818101928351610bdb916117e9565b92608082015186830151610bee916118dd565b90518251610bfb9161191d565b908160608401518451610c0d91611a13565b90610c189287611ae9565b60a0830151610c256126c0565b610c2e91612f2e565b90610c37612686565b90610c4192611be2565b610c4a90611caf565b9151610c569083611dbe565b88518681018681526020810185905260408101849052606081018390524260808201526001600160a01b038c1660a0820152929790959390929091908660c082010396601f19978881018252610cac9082611035565b51902097610cb8611057565b92858452888401528a83015260608201524260808201528660a082015260c08101610ce39060019052565b6001600160a01b038a16600090815260046020526040902090610d4f91600660c091835181556020840151600182015560408401516002820155606084015160038201556080840151600482015560a0840151600582015501910151151560ff80198354169116179055565b610d576126fe565b610d6091612f2e565b91610d6961273c565b610d7291612f2e565b90610d7b612d79565b610d8491612f44565b90610d8d611077565b92835284830152868201526001600160a01b038716600090815260076020526040902081518155602082015160018201556040909101516002909101558451606087901b6bffffffffffffffffffffffff191692810192835242601484015260348301939093524460548301529091908160748401039081018252610e129082611035565b51902092839182610e358360018060a01b03166000526005602052604060002090565b5581610e4b846000526006602052604060002090565b80546001600160a01b0319166001600160a01b0390921691909117905583514281529116908060208101037f5bb7841e68ae12800d4586b4ce784d40f7a8c9cd4dcfc2feba0c3898d1f0014c91a351908152602090f35b610baa9450610ebd9250803d10610516576105068183611035565b909238610b9f565b346101fb5760203660031901126101fb57600435610ee281610234565b60018060a01b031660005260056020526020604060002054604051908152f35b346101fb5760003660031901126101fb576020604051601e8152f35b346101fb5760203660031901126101fb57600435610f3b81610234565b610f436117bd565b6001600160a01b039081168015610f9157600080546001600160a01b03198116831782559092167f8be0079c531659141344cd1fd0a4f28419497f9722a3daafe3b4186f6b6457e08380a380f35b604051631e4fbdf760e01b815260006004820152602490fd5b634e487b7160e01b600052604160045260246000fd5b6060810190811067ffffffffffffffff821117610fdc57604052565b610faa565b6020810190811067ffffffffffffffff821117610fdc57604052565b6040810190811067ffffffffffffffff821117610fdc57604052565b60c0810190811067ffffffffffffffff821117610fdc57604052565b90601f8019910116810190811067ffffffffffffffff821117610fdc57604052565b6040519060e0820182811067ffffffffffffffff821117610fdc57604052565b6040519061108482610fc0565b565b60405190610140820182811067ffffffffffffffff821117610fdc57604052565b67ffffffffffffffff8111610fdc57601f01601f191660200190565b91906040838203126101fb576040805167ffffffffffffffff9491810185811182821017610fdc57604052809482358252602092838101359182116101fb570183601f820112156101fb5780359061111a826110a7565b946111286040519687611035565b8286528483830101116101fb57816000928580930183880137850101520152565b1561115057565b60405162461bcd60e51b815260206004820152600f60248201526e14d0d3d49157d393d517d193d55391608a1b6044820152606490fd5b519060ff821682036101fb57565b519061108482610234565b519081151582036101fb57565b8092910361016081126101fb576101408091126101fb57611245906111d0611086565b845181526020850151602082015260408501516040820152606085015160608201526080850151608082015260a085015160a082015261121260c08601611187565b60c082015261122360e08601611195565b60e08201526101008086015190820152610120808601519082015293016111a0565b90565b6040513d6000823e3d90fd5b1561125b57565b60405162461bcd60e51b8152602060048201526011602482015270141493d192531157d393d517d193d55391607a1b6044820152606490fd5b6003546001600160a01b03163303611360576001600160a01b0381166000908152600460205260409020916112d46112d0600685015460ff1690565b1590565b61134c576112e2835461146b565b916112f0600185015461173d565b936112fe600282015461173d565b9361130c600383015461173d565b93600561133060048501549560018060a01b03166000526005602052604060002090565b54930154919663ffffffff808092169716951693929190600190565b915050600090600080918180918180918190565b6040516359d16ac960e01b8152600490fd5b9190820391821161137f57565b634e487b7160e01b600052601160045260246000fd5b6001600160a01b03166000818152600460205260409020600681015460ff1615611400576113cb60046276a70092015442611372565b1190816113d757501590565b7fd577782f0174359e8d9a55ed8aadd82ca75955e44ac3d48b9bc6feb850f2d8d5600080a21590565b5050600090565b1561140e57565b60405162461bcd60e51b815260206004820152600f60248201526e141493d192531157d513d3d7d3d311608a1b6044820152606490fd5b604290611450612017565b906040519161190160f01b8352600283015260228201522090565b80156114f8575b60206114806114a992613042565b60405180938192637c4697ab60e01b8352600060048401526060602484015260648301906102a7565b60806044830152038160805afa801561051d5760ff916000916114cb57501690565b6114ed915060203d6020116114f1575b6114e58183611035565b81019061221a565b1690565b503d6114db565b5060405161150581610ffd565b602081526115386000828160208195015260405180938192631743358560e31b83526060600484015260648301906102a7565b836024830152836044830152038160805afa90811561051d576020809261148092856114a99692611571575b5050015192505050611472565b61158d92503d8091833e6115858183611035565b810190612627565b3880611564565b604051906115a182610ffd565b60048252633c24314d60e01b6020830152565b604051906115c182610ffd565b600782526624314d2d24354d60c81b6020830152565b604051906115e482610ffd565b600882526724354d2d2432304d60c01b6020830152565b6040519061160882610ffd565b60058252643e2432304d60d81b6020830152565b61165a600060405161162d81610ffd565b602081526001602082015260405180938192631743358560e31b83526060600484015260648301906102a7565b836024830152836044830152038160805afa90811561051d5760ff926116db6116cc6116b360206116e8966116e396600091611722575b5001516116a561169f61274d565b86612f2e565b6116ad612ddf565b90612229565b6116c46116be61278d565b85612f2e565b6116ad612e1d565b916116d56127cd565b90612f2e565b6116ad612d79565b61146b565b1660018114611719576002811461171057600314611708576112456115fb565b6112456115d7565b506112456115b4565b50611245611594565b61173791503d806000833e6115858183611035565b38611691565b80156117a3575b602061175261177b92613042565b60405180938192637c4697ab60e01b8352600260048401526060602484015260648301906102a7565b63800000006044830152038160805afa801561051d5763ffffffff916000916114cb57501690565b5061177b60206117526117b4612686565b92505050611744565b6000546001600160a01b031633036117d157565b60405163118cdaa760e01b8152336004820152602490fd5b6118379061183261182361187294611815611802612686565b8283156118cf575b81156118bf576130d3565b61181d61280e565b90611be2565b9161182c61281f565b906130a7565b6130bd565b600060405161184581610ffd565b6020815260c8602082015260405180948192631743358560e31b83526060600484015260648301906102a7565b60026024830152836044830152038160805afa91821561051d57611245926020916000916118a4575b500151906125ac565b6118b991503d806000833e6115858183611035565b3861189b565b90506118c9612686565b906130d3565b506118d8612686565b61180a565b61190d6118ff611915926118f961124595611815611802612686565b906130bd565b61190761285d565b906125ac565b61182c61281f565b6118f961285d565b6119369061183261182361193e94611815611802612686565b61190761281f565b61194661281f565b818115611a03575b156119e3575b61199961196b611965600093613042565b93613042565b926119ab604051948593849363cc2cbeff60e01b8552600260048601526060602486015260648501906102a7565b838103600319016044850152906102a7565b038160805afa801561051d576020916000916119c8575b50015190565b6119dd91503d806000833e6115858183611035565b386119c2565b9050600061199961196b6119656119f8612686565b949350505050611954565b9050611a0d612686565b9061194e565b90611a53916000604051611a2681610ffd565b602081526004602082015260405180958192631743358560e31b83526060600484015260648301906102a7565b60026024830152836044830152038160805afa91821561051d57611823611a9f6118329260206119369661124598600091611ace575b500151908015611ac0575b8115611ab057613112565b611815611aaa612686565b82613091565b9050611aba612686565b90613112565b50611ac9612686565b611a94565b611ae391503d806000833e6115858183611035565b38611a89565b919290611b2a6000604051611afd81610ffd565b602081526028602082015260405180938192631743358560e31b83526060600484015260648301906102a7565b60026024830152836044830152038160805afa94851561051d57611b89611b8f611b8994611b89611b80611ba19960206112459c611b9899600091611bc7575b500151908015611bb9575b8115611ba957613151565b9161182c61289b565b906131cf565b9161182c6128d9565b9161182c612917565b6118f961281f565b9050611bb3612686565b90613151565b50611bc2612686565b611b75565b611bdc91503d806000833e6115858183611035565b38611b6a565b611c4c90600092611c5f948215611c9f575b8115611c8b575b6119ab91928115611c6e575b611c1c611c16611c2292613042565b94613042565b91613042565b60405163616cb4a960e11b81526002600482015260806024820152968795869560848701906102a7565b60031993848783030160448801526102a7565b918483030160648501526102a7565b9050611c22611c1c611c16611c81612686565b9392505050611c07565b6119ab9150611c98612686565b9150611bfb565b9150611ca9612d3f565b91611bf4565b611cee906000604051611cc181610ffd565b602081526006602082015260405180948192631743358560e31b83526060600484015260648301906102a7565b836024830152836044830152038160805afa801561051d57611d74611d69611d5e611d4d6020611d7d9561124598600091611da3575b500151611d45611d32612cc3565b888915611d95575b8115611d8557613190565b6116ad612e5b565b6116db611d5861273c565b87612f2e565b6116c461169f612955565b6116a56116be612993565b916116d56129d1565b6116ad612e99565b9050611d8f612686565b90613190565b50611d9e612686565b611d3a565b611db891503d806000833e6115858183611035565b38611d24565b91611dc7612686565b91611dd0612686565b93611dd9612686565b93611de2612e99565b611dec9083613249565b90611df5612a0f565b611dfe92611be2565b611e06612ddf565b611e109083613249565b90611e19612a4e565b611e2292611be2565b611e2a612e1d565b611e349083613249565b90611e3d612a8d565b611e4692611be2565b611e4e612d79565b611e589083613249565b90611e61612acc565b611e6a92611be2565b611e72612e5b565b611e7c9083613249565b90611e85612b0b565b611e8e92611be2565b94611e97612e99565b611ea19083613249565b90611eaa612b4a565b611eb392611be2565b611ebb612ddf565b611ec59083613249565b90611ece612b89565b611ed792611be2565b611edf612e1d565b611ee99083613249565b90611ef2612bc8565b611efb92611be2565b611f03612d79565b611f0d9083613249565b90611f16612c07565b611f1f92611be2565b611f27612e5b565b611f319083613249565b90611f3a612c46565b611f4392611be2565b93611f4c612e99565b611f569083613249565b90611f5f61273c565b611f6892611be2565b611f70612ddf565b611f7a9083613249565b90611f83612c85565b611f8c92611be2565b611f94612e1d565b611f9e9083613249565b90611fa7612cc3565b611fb092611be2565b611fb8612d79565b611fc29083613249565b90611fcb612d01565b611fd492611be2565b90611fdd612e5b565b611fe691613249565b90611fef612917565b611ff892611be2565b612001916130a7565b61200961281f565b612012916130bd565b929190565b307f00000000000000000000000000000000000000000000000000000000000000006001600160a01b03161480612108575b15612072577f000000000000000000000000000000000000000000000000000000000000000090565b60405160208101907f8b73c3c69bb8fe3d512ecc4cf759cc79239f7b179b0ffacaa9a75d522b39400f82527f000000000000000000000000000000000000000000000000000000000000000060408201527f000000000000000000000000000000000000000000000000000000000000000060608201524660808201523060a082015260a0815261210281611019565b51902090565b507f00000000000000000000000000000000000000000000000000000000000000004614612049565b81519190604183036121625761215b92506020820151906060604084015193015160001a90612fbe565b9192909190565b505060009160029190565b6004111561217757565b634e487b7160e01b600052602160045260246000fd5b6121968161216d565b8061219f575050565b6121a88161216d565b600181036121c25760405163f645eedf60e01b8152600490fd5b6121cb8161216d565b600281036121ec5760405163fce698f760e01b815260048101839052602490fd5b806121f860039261216d565b146122005750565b6040516335e2f38360e21b81526004810191909152602490fd5b908160209103126101fb575190565b611c4c90600092611c5f9482156122b8575b81156122a4575b6119ab91928115612287575b611c1c611c1661225d92613042565b60405163616cb4a960e11b81526004810187905260806024820152968795869560848701906102a7565b905061225d611c1c611c1661229a612eaa565b939250505061224e565b6119ab91506122b1612eaa565b9150612242565b91506122c2612d3f565b9161223b565b8015612347575b60206122dd61230692613042565b60405180938192637c4697ab60e01b8352600d60048401526060602484015260648301906102a7565b60006044830152038160805afa90811561051d57600091612328575b50151590565b612341915060203d6020116114f1576114e58183611035565b38612322565b50612385600060405161235981610ffd565b6020815281602082015260405180938192631743358560e31b83526060600484015260648301906102a7565b600d6024830152836044830152038160805afa90811561051d576122dd60206123069381936000916123be575b500151925050506122cf565b6123d391503d806000833e6115858183611035565b386123b2565b60ff81146123ea576112459061305b565b506040516001805480821c916000918082169182156124d1575b6020916020861084146124bd5785875286949360208601939291811561249e575060011461243c575b50505061124592500382611035565b92509361246b60016000527fb10e2d527612073b26eecdfd717e6a320cf44b4afac2b0732d9fcbe2b7fa0cf690565b946000935b8285106124885750505061124593500138808061242d565b8654858501529586019587955093810193612470565b925050506112459491925060ff19168252151560051b0138808061242d565b634e487b7160e01b85526022600452602485fd5b93607f1693612404565b60ff81146124ec576112459061305b565b5060405160006002549060018260011c92600181169182156125a2575b6020916020861084146124bd5785875286949360208601939291811561249e57506001146125405750505061124592500382611035565b92509361256f60026000527f405787fa12a823e0f2b7631cc41b3ba8828b3321ca811111fa75cd3aa3bb5ace90565b946000935b82851061258c5750505061124593500138808061242d565b8654858501529586019587955093810193612574565b93607f1693612509565b8015612619575b81156125f9575b6119996125cb611965600093613042565b926119ab6040519485938493635211c67960e01b8552600260048601526060602486015260648501906102a7565b905060006119996125cb61196561260e612686565b9493505050506125ba565b50612622612686565b6125b3565b6020818303126101fb5780519067ffffffffffffffff82116101fb570181601f820112156101fb57805161265a816110a7565b926126686040519485611035565b818452602082840101116101fb576112459160208085019101610284565b612697600060405161235981610ffd565b60026024830152836044830152038160805afa801561051d576020916000916119c85750015190565b61269760006040516126d181610ffd565b60208152600c602082015260405180938192631743358560e31b83526060600484015260648301906102a7565b612697600060405161270f81610ffd565b602081526078602082015260405180938192631743358560e31b83526060600484015260648301906102a7565b6126976000604051611afd81610ffd565b612697600060405161275e81610ffd565b60208152620f4240602082015260405180938192631743358560e31b83526060600484015260648301906102a7565b612697600060405161279e81610ffd565b60208152624c4b40602082015260405180938192631743358560e31b83526060600484015260648301906102a7565b61269760006040516127de81610ffd565b602081526301312d00602082015260405180938192631743358560e31b83526060600484015260648301906102a7565b612697600060405161162d81610ffd565b612697600060405161283081610ffd565b602081526064602082015260405180938192631743358560e31b83526060600484015260648301906102a7565b612697600060405161286e81610ffd565b602081526024602082015260405180938192631743358560e31b83526060600484015260648301906102a7565b61269760006040516128ac81610ffd565b60208152601e602082015260405180938192631743358560e31b83526060600484015260648301906102a7565b61269760006040516128ea81610ffd565b602081526014602082015260405180938192631743358560e31b83526060600484015260648301906102a7565b612697600060405161292881610ffd565b60208152600a602082015260405180938192631743358560e31b83526060600484015260648301906102a7565b612697600060405161296681610ffd565b602081526037602082015260405180938192631743358560e31b83526060600484015260648301906102a7565b61269760006040516129a481610ffd565b602081526046602082015260405180938192631743358560e31b83526060600484015260648301906102a7565b61269760006040516129e281610ffd565b602081526055602082015260405180938192631743358560e31b83526060600484015260648301906102a7565b6126976000604051612a2081610ffd565b60208152610258602082015260405180938192631743358560e31b83526060600484015260648301906102a7565b6126976000604051612a5f81610ffd565b602081526102ee602082015260405180938192631743358560e31b83526060600484015260648301906102a7565b6126976000604051612a9e81610ffd565b602081526103b6602082015260405180938192631743358560e31b83526060600484015260648301906102a7565b6126976000604051612add81610ffd565b602081526104b0602082015260405180938192631743358560e31b83526060600484015260648301906102a7565b6126976000604051612b1c81610ffd565b602081526105dc602082015260405180938192631743358560e31b83526060600484015260648301906102a7565b6126976000604051612b5b81610ffd565b60208152611d4c602082015260405180938192631743358560e31b83526060600484015260648301906102a7565b6126976000604051612b9a81610ffd565b60208152611964602082015260405180938192631743358560e31b83526060600484015260648301906102a7565b6126976000604051612bd981610ffd565b6020815261157c602082015260405180938192631743358560e31b83526060600484015260648301906102a7565b6126976000604051612c1881610ffd565b60208152610fa0602082015260405180938192631743358560e31b83526060600484015260648301906102a7565b6126976000604051612c5781610ffd565b60208152610bb8602082015260405180938192631743358560e31b83526060600484015260648301906102a7565b6126976000604051612c9681610ffd565b602081526023602082015260405180938192631743358560e31b83526060600484015260648301906102a7565b6126976000604051612cd481610ffd565b602081526019602082015260405180938192631743358560e31b83526060600484015260648301906102a7565b6126976000604051612d1281610ffd565b60208152600f602082015260405180938192631743358560e31b83526060600484015260648301906102a7565b612d50600060405161235981610ffd565b600d6024830152836044830152038160805afa801561051d576020916000916119c85750015190565b612db76000604051612d8a81610ffd565b602081526004602082015260405180938192631743358560e31b83526060600484015260648301906102a7565b836024830152836044830152038160805afa801561051d576020916000916119c85750015190565b612db76000604051612df081610ffd565b602081526002602082015260405180938192631743358560e31b83526060600484015260648301906102a7565b612db76000604051612e2e81610ffd565b602081526003602082015260405180938192631743358560e31b83526060600484015260648301906102a7565b612db76000604051612e6c81610ffd565b602081526005602082015260405180938192631743358560e31b83526060600484015260648301906102a7565b612db7600060405161162d81610ffd565b604051612eb681610ffd565b60208152612ee96000828160208195015260405180938192631743358560e31b83526060600484015260648301906102a7565b836024830152836044830152038160805afa90811561051d578260209392612f13575b5050015190565b612f2792503d8091833e6115858183611035565b3880612f0c565b90611245918015611d95578115611d8557613190565b8015612fb0575b8115612f90575b611999612f63611965600093613042565b926119ab604051948593849363eb274b7760e01b85528660048601526060602486015260648501906102a7565b90506000611999612f63611965612fa5612eaa565b949350505050612f52565b50612fb9612eaa565b612f4b565b91907f7fffffffffffffffffffffffffffffff5d576e7357a4501ddfe92f46681b20a0841161303657926020929160ff608095604051948552168484015260408301526060820152600092839182805260015afa1561051d5780516001600160a01b0381161561302d57918190565b50809160019190565b50505060009160039190565b906040519161305083610ffd565b602083526020830152565b60ff811690601f821161307f576040519161307583610ffd565b8252602082015290565b604051632cd44ac360e21b8152600490fd5b906112459180156118cf5781156118bf576130d3565b90611245918015611bb9578115611ba957613151565b90611245918015611ac0578115611ab057613112565b6119996130e4611965600093613042565b926119ab604051948593849363248d22cd60e21b8552600260048601526060602486015260648501906102a7565b611999613123611965600093613042565b926119ab6040519485938493631f4cda2f60e01b8552600260048601526060602486015260648501906102a7565b611999613162611965600093613042565b926119ab6040519485938493634284f76560e01b8552600260048601526060602486015260648501906102a7565b6119996131a1611965600093613042565b926119ab604051948593849363650de1cf60e01b8552600260048601526060602486015260648501906102a7565b801561323b575b811561321b575b6119996131ee611965600093613042565b926119ab6040519485938493622df61960e01b8552600260048601526060602486015260648501906102a7565b905060006119996131ee611965613230612686565b9493505050506131dd565b50613244612686565b6131d6565b80156132b5575b8115613295575b611999613268611965600093613042565b926119ab604051948593849363248d22cd60e21b85528660048601526060602486015260648501906102a7565b905060006119996132686119656132aa612eaa565b949350505050613257565b506132be612eaa565b61325056fea2646970667358221220eb328760aeb54eb0f95ccdfbffd871d0c1d69092002da018f07e30d393981c4464736f6c63430008180033",
  "linkReferences": {},
  "deployedLinkReferences": {}
}