{
  "_format": "hh-sol-artifact-1",
  "contractName": "UnderwritingEngine",
  "sourceName": "contracts/UnderwritingEngine.sol",
  "abi": [
    {
      "inputs": [
        {
          "internalType": "address",
          "name": "borrowerRegistryAddress",
          "type": "address"
        }
      ],
      "stateMutability": "nonpayable",
      "type": "constructor"
    },
    {
      "inputs": [],
      "name": "ECDSAInvalidSignature",
      "type": "error"
    },
    {
      "inputs": [
        {
          "internalType": "uint256",
          "name": "length",
          "type": "uint256"
        }
      ],
      "name": "ECDSAInvalidSignatureLength",
      "type": "error"
    },
    {
      "inputs": [
        {
          "internalType": "bytes32",
          "name": "s",
          "type": "bytes32"
        }
      ],
      "name": "ECDSAInvalidSignatureS",
      "type": "error"
    },
    {
      "inputs": [],
      "name": "InvalidShortString",
      "type": "error"
    },
    {
      "inputs": [],
      "name": "OnlyLoanVault",
      "type": "error"
    },
    {
      "inputs": [
        {
          "internalType": "address",
          "name": "owner",
          "type": "address"
        }
      ],
      "name": "OwnableInvalidOwner",
      "type": "error"
    },
    {
      "inputs": [
        {
          "internalType": "address",
          "name": "account",
          "type": "address"
        }
      ],
      "name": "OwnableUnauthorizedAccount",
      "type": "error"
    },
    {
      "inputs": [],
      "name": "SignerNotMessageSender",
      "type": "error"
    },
    {
      "inputs": [],
      "name": "SignerNotOwner",
      "type": "error"
    },
    {
      "inputs": [
        {
          "internalType": "string",
          "name": "str",
          "type": "string"
        }
      ],
      "name": "StringTooLong",
      "type": "error"
    },
    {
      "anonymous": false,
      "inputs": [],
      "name": "EIP712DomainChanged",
      "type": "event"
    },
    {
      "anonymous": false,
      "inputs": [
        {
          "indexed": true,
          "internalType": "address",
          "name": "previousOwner",
          "type": "address"
        },
        {
          "indexed": true,
          "internalType": "address",
          "name": "newOwner",
          "type": "address"
        }
      ],
      "name": "OwnershipTransferred",
      "type": "event"
    },
    {
      "anonymous": false,
      "inputs": [
        {
          "indexed": true,
          "internalType": "address",
          "name": "borrower",
          "type": "address"
        }
      ],
      "name": "ScoreExpired",
      "type": "event"
    },
    {
      "anonymous": false,
      "inputs": [
        {
          "indexed": true,
          "internalType": "address",
          "name": "borrower",
          "type": "address"
        },
        {
          "indexed": true,
          "internalType": "bytes32",
          "name": "scoreId",
          "type": "bytes32"
        },
        {
          "indexed": false,
          "internalType": "uint256",
          "name": "computedAt",
          "type": "uint256"
        }
      ],
      "name": "UnderwritingComplete",
      "type": "event"
    },
    {
      "inputs": [],
      "name": "BAND_AA_THRESHOLD",
      "outputs": [
        {
          "internalType": "uint256",
          "name": "",
          "type": "uint256"
        }
      ],
      "stateMutability": "view",
      "type": "function"
    },
    {
      "inputs": [],
      "name": "BAND_A_THRESHOLD",
      "outputs": [
        {
          "internalType": "uint256",
          "name": "",
          "type": "uint256"
        }
      ],
      "stateMutability": "view",
      "type": "function"
    },
    {
      "inputs": [],
      "name": "BAND_BBB_THRESHOLD",
      "outputs": [
        {
          "internalType": "uint256",
          "name": "",
          "type": "uint256"
        }
      ],
      "stateMutability": "view",
      "type": "function"
    },
    {
      "inputs": [],
      "name": "BAND_BB_THRESHOLD",
      "outputs": [
        {
          "internalType": "uint256",
          "name": "",
          "type": "uint256"
        }
      ],
      "stateMutability": "view",
      "type": "function"
    },
    {
      "inputs": [],
      "name": "BAND_B_THRESHOLD",
      "outputs": [
        {
          "internalType": "uint256",
          "name": "",
          "type": "uint256"
        }
      ],
      "stateMutability": "view",
      "type": "function"
    },
    {
      "inputs": [],
      "name": "DSCR_WEIGHT",
      "outputs": [
        {
          "internalType": "uint256",
          "name": "",
          "type": "uint256"
        }
      ],
      "stateMutability": "view",
      "type": "function"
    },
    {
      "inputs": [],
      "name": "LEVERAGE_WEIGHT",
      "outputs": [
        {
          "internalType": "uint256",
          "name": "",
          "type": "uint256"
        }
      ],
      "stateMutability": "view",
      "type": "function"
    },
    {
      "inputs": [],
      "name": "MAX_PROFILE_AGE",
      "outputs": [
        {
          "internalType": "uint256",
          "name": "",
          "type": "uint256"
        }
      ],
      "stateMutability": "view",
      "type": "function"
    },
    {
      "inputs": [],
      "name": "MIN_BUSINESS_AGE",
      "outputs": [
        {
          "internalType": "uint256",
          "name": "",
          "type": "uint256"
        }
      ],
      "stateMutability": "view",
      "type": "function"
    },
    {
      "inputs": [],
      "name": "RECEIVABLES_WEIGHT",
      "outputs": [
        {
          "internalType": "uint256",
          "name": "",
          "type": "uint256"
        }
      ],
      "stateMutability": "view",
      "type": "function"
    },
    {
      "inputs": [],
      "name": "RUNWAY_WEIGHT",
      "outputs": [
        {
          "internalType": "uint256",
          "name": "",
          "type": "uint256"
        }
      ],
      "stateMutability": "view",
      "type": "function"
    },
    {
      "inputs": [],
      "name": "SCORE_MAX_AGE",
      "outputs": [
        {
          "internalType": "uint256",
          "name": "",
          "type": "uint256"
        }
      ],
      "stateMutability": "view",
      "type": "function"
    },
    {
      "inputs": [],
      "name": "borrowerRegistry",
      "outputs": [
        {
          "internalType": "contract BorrowerRegistry",
          "name": "",
          "type": "address"
        }
      ],
      "stateMutability": "view",
      "type": "function"
    },
    {
      "inputs": [
        {
          "internalType": "address",
          "name": "",
          "type": "address"
        }
      ],
      "name": "creditScores",
      "outputs": [
        {
          "internalType": "euint8",
          "name": "riskBand",
          "type": "uint256"
        },
        {
          "internalType": "euint256",
          "name": "maxLoanSize",
          "type": "uint256"
        },
        {
          "internalType": "euint256",
          "name": "interestRateBps",
          "type": "uint256"
        },
        {
          "internalType": "euint256",
          "name": "ltvBps",
          "type": "uint256"
        },
        {
          "internalType": "uint256",
          "name": "computedAt",
          "type": "uint256"
        },
        {
          "internalType": "bytes32",
          "name": "proofHash",
          "type": "bytes32"
        },
        {
          "internalType": "bool",
          "name": "exists",
          "type": "bool"
        }
      ],
      "stateMutability": "view",
      "type": "function"
    },
    {
      "inputs": [],
      "name": "eip712Domain",
      "outputs": [
        {
          "internalType": "bytes1",
          "name": "fields",
          "type": "bytes1"
        },
        {
          "internalType": "string",
          "name": "name",
          "type": "string"
        },
        {
          "internalType": "string",
          "name": "version",
          "type": "string"
        },
        {
          "internalType": "uint256",
          "name": "chainId",
          "type": "uint256"
        },
        {
          "internalType": "address",
          "name": "verifyingContract",
          "type": "address"
        },
        {
          "internalType": "bytes32",
          "name": "salt",
          "type": "bytes32"
        },
        {
          "internalType": "uint256[]",
          "name": "extensions",
          "type": "uint256[]"
        }
      ],
      "stateMutability": "view",
      "type": "function"
    },
    {
      "inputs": [
        {
          "internalType": "address",
          "name": "borrower",
          "type": "address"
        }
      ],
      "name": "getLatestScoreForVault",
      "outputs": [
        {
          "internalType": "uint8",
          "name": "band",
          "type": "uint8"
        },
        {
          "internalType": "uint256",
          "name": "maxLoanSize",
          "type": "uint256"
        },
        {
          "internalType": "uint256",
          "name": "rateBps",
          "type": "uint256"
        },
        {
          "internalType": "uint256",
          "name": "ltvBps",
          "type": "uint256"
        },
        {
          "internalType": "uint256",
          "name": "computedAt",
          "type": "uint256"
        },
        {
          "internalType": "bytes32",
          "name": "scoreId",
          "type": "bytes32"
        },
        {
          "internalType": "bytes32",
          "name": "proofHash",
          "type": "bytes32"
        },
        {
          "internalType": "bool",
          "name": "exists",
          "type": "bool"
        }
      ],
      "stateMutability": "view",
      "type": "function"
    },
    {
      "inputs": [
        {
          "internalType": "address",
          "name": "borrower",
          "type": "address"
        }
      ],
      "name": "isScoreFresh",
      "outputs": [
        {
          "internalType": "bool",
          "name": "",
          "type": "bool"
        }
      ],
      "stateMutability": "nonpayable",
      "type": "function"
    },
    {
      "inputs": [
        {
          "internalType": "address",
          "name": "",
          "type": "address"
        }
      ],
      "name": "latestScoreId",
      "outputs": [
        {
          "internalType": "bytes32",
          "name": "",
          "type": "bytes32"
        }
      ],
      "stateMutability": "view",
      "type": "function"
    },
    {
      "inputs": [],
      "name": "loanVault",
      "outputs": [
        {
          "internalType": "address",
          "name": "",
          "type": "address"
        }
      ],
      "stateMutability": "view",
      "type": "function"
    },
    {
      "inputs": [],
      "name": "owner",
      "outputs": [
        {
          "internalType": "address",
          "name": "",
          "type": "address"
        }
      ],
      "stateMutability": "view",
      "type": "function"
    },
    {
      "inputs": [],
      "name": "renounceOwnership",
      "outputs": [],
      "stateMutability": "nonpayable",
      "type": "function"
    },
    {
      "inputs": [
        {
          "internalType": "address",
          "name": "borrower",
          "type": "address"
        }
      ],
      "name": "runUnderwriting",
      "outputs": [
        {
          "internalType": "bytes32",
          "name": "scoreId",
          "type": "bytes32"
        }
      ],
      "stateMutability": "nonpayable",
      "type": "function"
    },
    {
      "inputs": [
        {
          "internalType": "bytes32",
          "name": "",
          "type": "bytes32"
        }
      ],
      "name": "scoreBorrower",
      "outputs": [
        {
          "internalType": "address",
          "name": "",
          "type": "address"
        }
      ],
      "stateMutability": "view",
      "type": "function"
    },
    {
      "inputs": [
        {
          "internalType": "address",
          "name": "borrower",
          "type": "address"
        },
        {
          "components": [
            {
              "internalType": "bytes32",
              "name": "publicKey",
              "type": "bytes32"
            },
            {
              "internalType": "bytes",
              "name": "signature",
              "type": "bytes"
            }
          ],
          "internalType": "struct Permission",
          "name": "permission",
          "type": "tuple"
        }
      ],
      "name": "sealAuditView",
      "outputs": [
        {
          "internalType": "uint8",
          "name": "band",
          "type": "uint8"
        },
        {
          "internalType": "string",
          "name": "revenueBucket",
          "type": "string"
        },
        {
          "internalType": "bool",
          "name": "dscrAboveThreshold",
          "type": "bool"
        },
        {
          "internalType": "bool",
          "name": "leverageWithinPolicy",
          "type": "bool"
        },
        {
          "internalType": "bool",
          "name": "covenantCompliant",
          "type": "bool"
        }
      ],
      "stateMutability": "view",
      "type": "function"
    },
    {
      "inputs": [
        {
          "internalType": "address",
          "name": "borrower",
          "type": "address"
        },
        {
          "components": [
            {
              "internalType": "bytes32",
              "name": "publicKey",
              "type": "bytes32"
            },
            {
              "internalType": "bytes",
              "name": "signature",
              "type": "bytes"
            }
          ],
          "internalType": "struct Permission",
          "name": "permission",
          "type": "tuple"
        }
      ],
      "name": "sealBandForLender",
      "outputs": [
        {
          "internalType": "uint8",
          "name": "band",
          "type": "uint8"
        }
      ],
      "stateMutability": "view",
      "type": "function"
    },
    {
      "inputs": [
        {
          "internalType": "address",
          "name": "borrower",
          "type": "address"
        },
        {
          "components": [
            {
              "internalType": "bytes32",
              "name": "publicKey",
              "type": "bytes32"
            },
            {
              "internalType": "bytes",
              "name": "signature",
              "type": "bytes"
            }
          ],
          "internalType": "struct Permission",
          "name": "permission",
          "type": "tuple"
        }
      ],
      "name": "sealTermsForBorrower",
      "outputs": [
        {
          "internalType": "uint256",
          "name": "maxLoan",
          "type": "uint256"
        },
        {
          "internalType": "uint256",
          "name": "rateBps",
          "type": "uint256"
        },
        {
          "internalType": "uint256",
          "name": "ltvBps",
          "type": "uint256"
        }
      ],
      "stateMutability": "view",
      "type": "function"
    },
    {
      "inputs": [
        {
          "internalType": "address",
          "name": "loanVaultAddress",
          "type": "address"
        }
      ],
      "name": "setLoanVault",
      "outputs": [],
      "stateMutability": "nonpayable",
      "type": "function"
    },
    {
      "inputs": [
        {
          "internalType": "address",
          "name": "newOwner",
          "type": "address"
        }
      ],
      "name": "transferOwnership",
      "outputs": [],
      "stateMutability": "nonpayable",
      "type": "function"
    }
  ],
  "bytecode": "0x610180346200021957601f62003b7a38819003918201601f19168301926001600160401b03929091838511838610176200021e5781602092849260409788528339810103126200021957516001600160a01b03928382169182900362000219578051906200006d8262000234565b60118252602082019070233432b734bc102832b936b4b9b9b4b7b760791b82528051906200009b8262000234565b6003825260208201620312e360ec1b81523315620002015760008054336001600160a01b03198216811783559199167f8be0079c531659141344cd1fd0a4f28419497f9722a3daafe3b4186f6b6457e08a80a3620000f98562000250565b936101209485526200010b8462000427565b95610140968752519020928360e05251902090610100978289524660a05281519260208401947f8b73c3c69bb8fe3d512ecc4cf759cc79239f7b179b0ffacaa9a75d522b39400f86528385015260608401524660808401523060a084015260a0835260c083019783891090891117620001ed57508690525190206080523060c05261016092835261359a9485620005e086396080518561205e015260a05185612119015260c05185612028015260e051856120ad015251846120d3015251836109100152518261093a0152518181816103f301528181610a690152610b610152f35b634e487b7160e01b81526041600452602490fd5b8151631e4fbdf760e01b815260006004820152602490fd5b600080fd5b634e487b7160e01b600052604160045260246000fd5b604081019081106001600160401b038211176200021e57604052565b805160209081811015620002ed5750601f8251116200028c57808251920151908083106200027d57501790565b82600019910360031b1b161790565b90604051809263305a27a960e01b82528060048301528251908160248401526000935b828510620002d3575050604492506000838284010152601f80199101168101030190fd5b8481018201518686016044015293810193859350620002af565b9192916001600160401b0381116200021e5760019182548381811c911680156200041c575b828210146200040657601f8111620003cd575b5080601f83116001146200036557508192939460009262000359575b5050600019600383901b1c191690821b17905560ff90565b01519050388062000341565b90601f198316958460005282600020926000905b888210620003b557505083859697106200039b575b505050811b01905560ff90565b015160001960f88460031b161c191690553880806200038e565b80878596829496860151815501950193019062000379565b8360005283601f83600020920160051c820191601f850160051c015b828110620003f957505062000325565b60008155018490620003e9565b634e487b7160e01b600052602260045260246000fd5b90607f169062000312565b805160209081811015620004b55750601f8251116200045457808251920151908083106200027d57501790565b90604051809263305a27a960e01b82528060048301528251908160248401526000935b8285106200049b575050604492506000838284010152601f80199101168101030190fd5b848101820151868601604401529381019385935062000477565b906001600160401b0382116200021e57600254926001938481811c91168015620005d4575b838210146200040657601f81116200059a575b5081601f84116001146200052e575092829391839260009462000522575b50501b916000199060031b1c19161760025560ff90565b0151925038806200050b565b919083601f198116600260005284600020946000905b888383106200057f575050501062000565575b505050811b0160025560ff90565b015160001960f88460031b161c1916905538808062000557565b85870151885590960195948501948793509081019062000544565b600260005284601f84600020920160051c820191601f860160051c015b828110620005c7575050620004ed565b60008155018590620005b7565b90607f1690620004da56fe6080604052600436101561001257600080fd5b60003560e01c806306e3489c146101d257806307f9b4cc146101cd5780630dd45ccf146101c85780632b0e68dd146101c35780632d72d6551461015057806339c1e867146101be5780634028dd1c146101b95780634a39ccea146101b45780634bbffe17146101af57806351ee0c4c146101aa57806358eb1e0b146101a55780635a62bf0f146101a05780635dd3e5b01461019b578063715018a61461019657806380bb72731461019157806384b0196e1461018c5780638da5cb5b14610187578063966ddbff14610182578063aaadb21a1461017d578063b2d9a1d914610178578063b373b47414610173578063d148fd051461016e578063d23cf0c414610169578063df5fb79114610164578063e66f0eca1461015f578063e73d72501461015a578063f2fde38b146101555763f5eb5fb71461015057600080fd5b610592565b610f26565b610f0a565b610ecd565b610b17565b610ad0565b610ab4565b610a98565b610a53565b610a35565b610a19565b6109f0565b6108f5565b610872565b610814565b6107f8565b6107dc565b6107ab565b61078f565b6106c8565b6105e8565b6105ca565b6105ae565b610533565b610304565b610200565b346101fb5760003660031901126101fb576003546040516001600160a01b039091168152602090f35b600080fd5b346101fb5760203660031901126101fb576004356000526006602052602060018060a01b0360406000205416604051908152f35b6001600160a01b038116036101fb57565b906003196040818401126101fb5760043561025f81610234565b926024359167ffffffffffffffff83116101fb57826040920301126101fb5760040190565b60005b8381106102975750506000910152565b8181015183820152602001610287565b906020916102c081518092818552858086019101610284565b601f01601f1916010190565b939060809396959260ff6102ee9216865260a0602087015260a08601906102a7565b9515156040850152151560608401521515910152565b346101fb5761031f61031536610245565b91909136906110cb565b61038361037a82519260206103716040958651838101917f6bdaeb2d29561f159c7ef98b16b27015fb2aeb87209c7ee656226d912f59927d83528882015287815261036981610fc8565b519020611442565b9101519061213f565b9092919261219b565b6001600160a01b039083821690821603610522576103c86103c360066103bb8660018060a01b03166000526004602052604060002090565b015460ff1690565b611151565b8151634367dc4560e11b81526001600160a01b038416600482015291610160918290849060249082907f0000000000000000000000000000000000000000000000000000000000000000165afa92831561051d576000926000946104e4575b50506104366104e0929361125c565b6001600160a01b03841660009081526004602052604090206104639061045c9054611468565b93516115f9565b936104896104838260018060a01b03166000526007602052604060002090565b5461233c565b6104d560026104b26104b960016104b28760018060a01b03166000526007602052604060002090565b015461233c565b6001600160a01b03909516600090815260076020526040902090565b9251958695866102cc565b0390f35b61043694506104e09350908161050e92903d10610516575b610506818361103d565b8101906111b5565b939092610427565b503d6104fc565b611250565b81516328e32f5760e11b8152600490fd5b346101fb5760203660031901126101fb5761010061055b60043561055681610234565b61129c565b9560ff60409692969593955198168852602088015260408701526060860152608085015260a084015260c0830152151560e0820152f35b346101fb5760003660031901126101fb57602060405160288152f35b346101fb5760003660031901126101fb57602060405160198152f35b346101fb5760003660031901126101fb5760206040516276a7008152f35b346101fb576105f961031536610245565b9061064461037a83519360206103716040968751838101917f6bdaeb2d29561f159c7ef98b16b27015fb2aeb87209c7ee656226d912f59927d83528982015288815261036981610fc8565b6001600160a01b0391821691168190036105225780600052600460205261067460ff600684600020015416611151565b600052600460205280600020906104e061069160018401546116c1565b916106ac60036106a460028701546116c1565b9501546116c1565b9051938493846040919493926060820195825260208201520152565b346101fb576106d961031536610245565b61072361037a82519260206103716040958651838101917f6bdaeb2d29561f159c7ef98b16b27015fb2aeb87209c7ee656226d912f59927d83528882015287815261036981610fc8565b6001600160a01b03928316921682900361077f57816104e092600052600460205261075760ff600684600020015416611151565b600052600460205261076c8160002054611468565b905160ff90911681529081906020820190565b516328e32f5760e11b8152600490fd5b346101fb5760003660031901126101fb57602060405160148152f35b346101fb5760203660031901126101fb5760206107d26004356107cd81610234565b611392565b6040519015158152f35b346101fb5760003660031901126101fb576020604051600c8152f35b346101fb5760003660031901126101fb57602060405160558152f35b346101fb5760008060031936011261086f5761082e611754565b80546001600160a01b03198116825581906001600160a01b03167f8be0079c531659141344cd1fd0a4f28419497f9722a3daafe3b4186f6b6457e08280a380f35b80fd5b346101fb5760203660031901126101fb5760043561088f81610234565b60018060a01b0316600052600460205260e060406000208054906001810154906002810154600382015460048301549160ff600660058601549501541694604051968752602087015260408601526060850152608084015260a0830152151560c0820152f35b346101fb5760008060031936011261086f57610993906109347f000000000000000000000000000000000000000000000000000000000000000061244d565b9061095e7f000000000000000000000000000000000000000000000000000000000000000061254f565b906040519161096c83610fe9565b8183526109a1602091604051968796600f60f81b885260e0602089015260e08801906102a7565b9086820360408801526102a7565b904660608601523060808601528260a086015284820360c0860152602080855193848152019401925b8281106109d957505050500390f35b8351855286955093810193928101926001016109ca565b346101fb5760003660031901126101fb576000546040516001600160a01b039091168152602090f35b346101fb5760003660031901126101fb57602060405160378152f35b346101fb5760003660031901126101fb57602060405162ed4e008152f35b346101fb5760003660031901126101fb576040517f00000000000000000000000000000000000000000000000000000000000000006001600160a01b03168152602090f35b346101fb5760003660031901126101fb576020604051600a8152f35b346101fb5760003660031901126101fb57602060405160468152f35b346101fb5760203660031901126101fb57600435610aed81610234565b610af5611754565b600380546001600160a01b0319166001600160a01b0392909216919091179055005b346101fb576020806003193601126101fb5760043590610b3682610234565b60408051634367dc4560e11b81526001600160a01b03848116600483015291926101609182816024817f000000000000000000000000000000000000000000000000000000000000000088165afa90811561051d576000938492610eaa575b5050610ba09061125c565b610100820151610bb0904261136f565b62ed4e001015610bbf90611404565b815191818101928351610bd191611780565b92608082015186830151610be49161188d565b90518251610bf1916118d6565b908160608401518451610c03916119d3565b90610c0e9287611ab7565b60a0830151610c1b6127d3565b610c24916130d5565b90610c2d612eac565b90610c3792611bcb565b610c4090611c92565b9151610c4c9083611da9565b88518681018681526020810185905260408101849052606081018390524260808201526001600160a01b038c1660a0820152929790959390929091908660c082010396601f19978881018252610ca2908261103d565b51902097610cae61105f565b92858452888401528a83015260608201524260808201528660a082015260c08101610cd99060019052565b6001600160a01b038a16600090815260046020526040902090610d4591600660c091835181556020840151600182015560408401516002820155606084015160038201556080840151600482015560a0840151600582015501910151151560ff80198354169116179055565b610d4e90613131565b610d56612811565b610d5f916130d5565b91610d6990613131565b610d7161284f565b610d7a916130d5565b90610d83612f20565b610d8c916131e5565b90610d9561107f565b92835284830152868201526001600160a01b038716600090815260076020526040902081518155602082015160018201556040909101516002909101558451606087901b6bffffffffffffffffffffffff191692810192835242601484015260348301939093524460548301529091908160748401039081018252610e1a908261103d565b51902092839182610e3d8360018060a01b03166000526005602052604060002090565b5581610e53846000526006602052604060002090565b80546001600160a01b0319166001600160a01b0390921691909117905583514281529116908060208101037f5bb7841e68ae12800d4586b4ce784d40f7a8c9cd4dcfc2feba0c3898d1f0014c91a351908152602090f35b610ba09450610ec59250803d1061051657610506818361103d565b909238610b95565b346101fb5760203660031901126101fb57600435610eea81610234565b60018060a01b031660005260056020526020604060002054604051908152f35b346101fb5760003660031901126101fb576020604051601e8152f35b346101fb5760203660031901126101fb57600435610f4381610234565b610f4b611754565b6001600160a01b039081168015610f9957600080546001600160a01b03198116831782559092167f8be0079c531659141344cd1fd0a4f28419497f9722a3daafe3b4186f6b6457e08380a380f35b604051631e4fbdf760e01b815260006004820152602490fd5b634e487b7160e01b600052604160045260246000fd5b6060810190811067ffffffffffffffff821117610fe457604052565b610fb2565b6020810190811067ffffffffffffffff821117610fe457604052565b6040810190811067ffffffffffffffff821117610fe457604052565b60c0810190811067ffffffffffffffff821117610fe457604052565b90601f8019910116810190811067ffffffffffffffff821117610fe457604052565b6040519060e0820182811067ffffffffffffffff821117610fe457604052565b6040519061108c82610fc8565b565b60405190610140820182811067ffffffffffffffff821117610fe457604052565b67ffffffffffffffff8111610fe457601f01601f191660200190565b91906040838203126101fb576040805167ffffffffffffffff9491810185811182821017610fe457604052809482358252602092838101359182116101fb570183601f820112156101fb57803590611122826110af565b94611130604051968761103d565b8286528483830101116101fb57816000928580930183880137850101520152565b1561115857565b60405162461bcd60e51b815260206004820152600f60248201526e14d0d3d49157d393d517d193d55391608a1b6044820152606490fd5b519060ff821682036101fb57565b519061108c82610234565b519081151582036101fb57565b8092910361016081126101fb576101408091126101fb5761124d906111d861108e565b845181526020850151602082015260408501516040820152606085015160608201526080850151608082015260a085015160a082015261121a60c0860161118f565b60c082015261122b60e0860161119d565b60e08201526101008086015190820152610120808601519082015293016111a8565b90565b6040513d6000823e3d90fd5b1561126357565b60405162461bcd60e51b8152602060048201526011602482015270141493d192531157d393d517d193d55391607a1b6044820152606490fd5b6003546001600160a01b0316330361135d576001600160a01b0381166000908152600460205260409020916112dc6112d8600685015460ff1690565b1590565b611349576112ea8354611468565b916112f860018501546116c1565b9361130660028201546116c1565b9361131460038301546116c1565b93600561133860048501549560018060a01b03166000526005602052604060002090565b549301549196959493929190600190565b915050600090600080918180918180918190565b6040516359d16ac960e01b8152600490fd5b9190820391821161137c57565b634e487b7160e01b600052601160045260246000fd5b6001600160a01b03166000818152600460205260409020600681015460ff16156113fd576113c860046276a7009201544261136f565b1190816113d457501590565b7fd577782f0174359e8d9a55ed8aadd82ca75955e44ac3d48b9bc6feb850f2d8d5600080a21590565b5050600090565b1561140b57565b60405162461bcd60e51b815260206004820152600f60248201526e141493d192531157d513d3d7d3d311608a1b6044820152606490fd5b60429061144d612025565b906040519161190160f01b8352600283015260228201522090565b80156114f5575b602061147d6114a6926132e3565b60405180938192637c4697ab60e01b8352600060048401526060602484015260648301906102a7565b60806044830152038160805afa801561051d5760ff916000916114c857501690565b6114ea915060203d6020116114ee575b6114e2818361103d565b810190612228565b1690565b503d6114d8565b5060405161150281611005565b602081526115356000828160208195015260405180938192631743358560e31b83526060600484015260648301906102a7565b836024830152836044830152038160805afa90811561051d576020809261147d92856114a6969261156e575b505001519250505061146f565b61158a92503d8091833e611582818361103d565b81019061273a565b3880611561565b6040519061159e82611005565b600782526624314d2d24354d60c81b6020830152565b604051906115c182611005565b600882526724354d2d2432304d60c01b6020830152565b604051906115e582611005565b60058252643e2432304d60d81b6020830152565b61166f61166a61160a60ff93613131565b61166261165361163a61161b612f86565b61162c61162661288d565b866130d5565b611634612f97565b90612237565b61164b6116456128cd565b856130d5565b611634612fd5565b9161165c61290d565b906130d5565b611634612f20565b611468565b16600181146116a057600281146116975760031461168f5761124d6115d8565b61124d6115b4565b5061124d611591565b506040516116ad81611005565b60048152633c24314d60e01b602082015290565b801561173a575b60206116d66116ff926132e3565b60405180938192637c4697ab60e01b8352600560048401526060602484015260648301906102a7565b600160ff1b6044830152038160805afa90811561051d57600091611721575090565b61124d915060203d6020116114ee576114e2818361103d565b506116ff60206116d661174b612eac565b925050506116c8565b6000546001600160a01b0316330361176857565b60405163118cdaa760e01b8152336004820152602490fd5b61181a916117da6117cb61179f6117996117df95613131565b93613131565b6117bd6117aa612799565b82831561187f575b811561186f57613374565b6117c561294e565b90612620565b916117d461298c565b90613348565b61335e565b60006040516117ed81611005565b6020815260c8602082015260405180948192631743358560e31b83526060600484015260648301906102a7565b60026024830152836044830152038160805afa90811561051d57602061184f9261124d94600091611854575b500151906126bf565b61318b565b61186991503d806000833e611582818361103d565b38611846565b9050611879612799565b90613374565b50611888612799565b6117b2565b6118ce6118c66118b861124d946118b261179f6118ac61184f97613131565b92613131565b9061335e565b6118c06129ca565b906126bf565b6117d461298c565b6118b26129ca565b6118f7916117da6117cb61179f6117996118ef95613131565b6118c061298c565b6118ff61298c565b8181156119c3575b156119a3575b61195261192461191e6000936132e3565b936132e3565b92611964604051948593849363cc2cbeff60e01b8552600260048601526060602486015260648501906102a7565b838103600319016044850152906102a7565b038160805afa90811561051d5761124d91602091600091611988575b50015161318b565b61199d91503d806000833e611582818361103d565b38611980565b9050600061195261192461191e6119b8612799565b94935050505061190d565b90506119cd612799565b90611907565b6119e26118ac611a1e92613131565b9160006040516119f181611005565b602081526004602082015260405180948192631743358560e31b83526060600484015260648301906102a7565b60026024830152836044830152038160805afa90811561051d576117da6117cb611a6d61124d9660206118ef9661184f98600091611a9c575b500151908015611a8e575b8115611a7e576133b3565b6117bd611a78612799565b82613332565b9050611a88612799565b906133b3565b50611a97612799565b611a62565b611ab191503d806000833e611582818361103d565b38611a57565b91611ad3611acd6118ac611acd611b0f96613131565b94613131565b906000604051611ae281611005565b602081526028602082015260405180968192631743358560e31b83526060600484015260648301906102a7565b60026024830152836044830152038160805afa93841561051d5761124d95611b72611b78611b7294611b72611b69611b8a99602061184f9c611b8199600091611bb0575b500151908015611ba2575b8115611b92576133f2565b916117d4612a08565b90613470565b916117d4612a46565b916117d4612a84565b6118b261298c565b9050611b9c612799565b906133f2565b50611bab612799565b611b5e565b611bc591503d806000833e611582818361103d565b38611b53565b91908215611c82575b8015611bf4575b61124d92826130eb579150611bee612eac565b916130eb565b50611c33916000604051611c0781611005565b6020815281602082015260405180958192631743358560e31b83526060600484015260648301906102a7565b60056024830152836044830152038160805afa92831561051d5761124d93602091600091611c67575b500151909250611bdb565b611c7c91503d806000833e611582818361103d565b38611c5c565b9150611c8c612ee6565b91611bd4565b611c9e611cd991613131565b6000604051611cac81611005565b602081526006602082015260405180948192631743358560e31b83526060600484015260648301906102a7565b836024830152836044830152038160805afa801561051d57611d5f611d54611d49611d386020611d689561124d98600091611d8e575b500151611d30611d1d612e30565b888915611d80575b8115611d7057613431565b611634613013565b611662611d4361284f565b876130d5565b61164b611626612ac2565b61162c611645612b00565b9161165c612b3e565b611634612f86565b9050611d7a612799565b90613431565b50611d89612799565b611d25565b611da391503d806000833e611582818361103d565b38611d0f565b91611db2612799565b91611dbb612799565b93611dc4612799565b93611dcd612f86565b611dd790836134ea565b90611de0612b7c565b611de992612620565b611df1612f97565b611dfb90836134ea565b90611e04612bbb565b611e0d92612620565b611e15612fd5565b611e1f90836134ea565b90611e28612bfa565b611e3192612620565b611e39612f20565b611e4390836134ea565b90611e4c612c39565b611e5592612620565b611e5d613013565b611e6790836134ea565b90611e70612c78565b611e7992612620565b94611e82612f86565b611e8c90836134ea565b90611e95612cb7565b611e9e92612620565b611ea6612f97565b611eb090836134ea565b90611eb9612cf6565b611ec292612620565b611eca612fd5565b611ed490836134ea565b90611edd612d35565b611ee692612620565b611eee612f20565b611ef890836134ea565b90611f01612d74565b611f0a92612620565b611f12613013565b611f1c90836134ea565b90611f25612db3565b611f2e92612620565b93611f37612f86565b611f4190836134ea565b90611f4a61284f565b611f5392612620565b611f5b612f97565b611f6590836134ea565b90611f6e612df2565b611f7792612620565b611f7f612fd5565b611f8990836134ea565b90611f92612e30565b611f9b92612620565b611fa3612f20565b611fad90836134ea565b90611fb6612e6e565b611fbf92612620565b90611fc8613013565b611fd1916134ea565b90611fda612a84565b611fe392612620565b90611fed90613131565b90611ff791613348565b611fff61298c565b6120089161335e565b6120119061318b565b9261201b9061318b565b9161124d9061318b565b307f00000000000000000000000000000000000000000000000000000000000000006001600160a01b03161480612116575b15612080577f000000000000000000000000000000000000000000000000000000000000000090565b60405160208101907f8b73c3c69bb8fe3d512ecc4cf759cc79239f7b179b0ffacaa9a75d522b39400f82527f000000000000000000000000000000000000000000000000000000000000000060408201527f000000000000000000000000000000000000000000000000000000000000000060608201524660808201523060a082015260a0815261211081611021565b51902090565b507f00000000000000000000000000000000000000000000000000000000000000004614612057565b81519190604183036121705761216992506020820151906060604084015193015160001a9061325f565b9192909190565b505060009160029190565b6004111561218557565b634e487b7160e01b600052602160045260246000fd5b6121a48161217b565b806121ad575050565b6121b68161217b565b600181036121d05760405163f645eedf60e01b8152600490fd5b6121d98161217b565b600281036121fa5760405163fce698f760e01b815260048101839052602490fd5b8061220660039261217b565b1461220e5750565b6040516335e2f38360e21b81526004810191909152602490fd5b908160209103126101fb575190565b6122a1906000926122b494821561232c575b8115612318575b6122c3919281156122fb575b61227161226b612277926132e3565b946132e3565b916132e3565b60405163616cb4a960e11b81526004810187905260806024820152968795869560848701906102a7565b60031993848783030160448801526102a7565b918483030160648501526102a7565b038160805afa801561051d576020916000916122e0575b50015190565b6122f591503d806000833e611582818361103d565b386122da565b905061227761227161226b61230e613051565b939250505061225c565b6122c39150612325613051565b9150612250565b9150612336612ee6565b91612249565b80156123bb575b602061235161237a926132e3565b60405180938192637c4697ab60e01b8352600d60048401526060602484015260648301906102a7565b60006044830152038160805afa90811561051d5760009161239c575b50151590565b6123b5915060203d6020116114ee576114e2818361103d565b38612396565b506123f960006040516123cd81611005565b6020815281602082015260405180938192631743358560e31b83526060600484015260648301906102a7565b600d6024830152836044830152038160805afa90811561051d57612351602061237a938193600091612432575b50015192505050612343565b61244791503d806000833e611582818361103d565b38612426565b60ff811461245e5761124d906132fc565b506040516001805480821c91600091808216918215612545575b6020916020861084146125315785875286949360208601939291811561251257506001146124b0575b50505061124d9250038261103d565b9250936124df60016000527fb10e2d527612073b26eecdfd717e6a320cf44b4afac2b0732d9fcbe2b7fa0cf690565b946000935b8285106124fc5750505061124d9350013880806124a1565b86548585015295860195879550938101936124e4565b9250505061124d9491925060ff19168252151560051b013880806124a1565b634e487b7160e01b85526022600452602485fd5b93607f1693612478565b60ff81146125605761124d906132fc565b5060405160006002549060018260011c9260018116918215612616575b6020916020861084146125315785875286949360208601939291811561251257506001146125b45750505061124d9250038261103d565b9250936125e360026000527f405787fa12a823e0f2b7631cc41b3ba8828b3321ca811111fa75cd3aa3bb5ace90565b946000935b8285106126005750505061124d9350013880806124a1565b86548585015295860195879550938101936125e8565b93607f169361257d565b6122a1906000926122b49482156126af575b811561269b575b6122c39192811561267e575b61227161226b612654926132e3565b60405163616cb4a960e11b81526002600482015260806024820152968795869560848701906102a7565b905061265461227161226b612691612799565b9392505050612645565b6122c391506126a8612799565b9150612639565b91506126b9612ee6565b91612632565b801561272c575b811561270c575b6119526126de61191e6000936132e3565b926122c36040519485938493635211c67960e01b8552600260048601526060602486015260648501906102a7565b905060006119526126de61191e612721612799565b9493505050506126cd565b50612735612799565b6126c6565b6020818303126101fb5780519067ffffffffffffffff82116101fb570181601f820112156101fb57805161276d816110af565b9261277b604051948561103d565b818452602082840101116101fb5761124d9160208085019101610284565b6127aa60006040516123cd81611005565b60026024830152836044830152038160805afa801561051d576020916000916122e05750015190565b6127aa60006040516127e481611005565b60208152600c602082015260405180938192631743358560e31b83526060600484015260648301906102a7565b6127aa600060405161282281611005565b602081526078602082015260405180938192631743358560e31b83526060600484015260648301906102a7565b6127aa600060405161286081611005565b602081526028602082015260405180938192631743358560e31b83526060600484015260648301906102a7565b6127aa600060405161289e81611005565b60208152620f4240602082015260405180938192631743358560e31b83526060600484015260648301906102a7565b6127aa60006040516128de81611005565b60208152624c4b40602082015260405180938192631743358560e31b83526060600484015260648301906102a7565b6127aa600060405161291e81611005565b602081526301312d00602082015260405180938192631743358560e31b83526060600484015260648301906102a7565b6127aa600060405161295f81611005565b602081526001602082015260405180938192631743358560e31b83526060600484015260648301906102a7565b6127aa600060405161299d81611005565b602081526064602082015260405180938192631743358560e31b83526060600484015260648301906102a7565b6127aa60006040516129db81611005565b602081526024602082015260405180938192631743358560e31b83526060600484015260648301906102a7565b6127aa6000604051612a1981611005565b60208152601e602082015260405180938192631743358560e31b83526060600484015260648301906102a7565b6127aa6000604051612a5781611005565b602081526014602082015260405180938192631743358560e31b83526060600484015260648301906102a7565b6127aa6000604051612a9581611005565b60208152600a602082015260405180938192631743358560e31b83526060600484015260648301906102a7565b6127aa6000604051612ad381611005565b602081526037602082015260405180938192631743358560e31b83526060600484015260648301906102a7565b6127aa6000604051612b1181611005565b602081526046602082015260405180938192631743358560e31b83526060600484015260648301906102a7565b6127aa6000604051612b4f81611005565b602081526055602082015260405180938192631743358560e31b83526060600484015260648301906102a7565b6127aa6000604051612b8d81611005565b60208152610258602082015260405180938192631743358560e31b83526060600484015260648301906102a7565b6127aa6000604051612bcc81611005565b602081526102ee602082015260405180938192631743358560e31b83526060600484015260648301906102a7565b6127aa6000604051612c0b81611005565b602081526103b6602082015260405180938192631743358560e31b83526060600484015260648301906102a7565b6127aa6000604051612c4a81611005565b602081526104b0602082015260405180938192631743358560e31b83526060600484015260648301906102a7565b6127aa6000604051612c8981611005565b602081526105dc602082015260405180938192631743358560e31b83526060600484015260648301906102a7565b6127aa6000604051612cc881611005565b60208152611d4c602082015260405180938192631743358560e31b83526060600484015260648301906102a7565b6127aa6000604051612d0781611005565b60208152611964602082015260405180938192631743358560e31b83526060600484015260648301906102a7565b6127aa6000604051612d4681611005565b6020815261157c602082015260405180938192631743358560e31b83526060600484015260648301906102a7565b6127aa6000604051612d8581611005565b60208152610fa0602082015260405180938192631743358560e31b83526060600484015260648301906102a7565b6127aa6000604051612dc481611005565b60208152610bb8602082015260405180938192631743358560e31b83526060600484015260648301906102a7565b6127aa6000604051612e0381611005565b602081526023602082015260405180938192631743358560e31b83526060600484015260648301906102a7565b6127aa6000604051612e4181611005565b602081526019602082015260405180938192631743358560e31b83526060600484015260648301906102a7565b6127aa6000604051612e7f81611005565b60208152600f602082015260405180938192631743358560e31b83526060600484015260648301906102a7565b612ebd60006040516123cd81611005565b60056024830152836044830152038160805afa801561051d576020916000916122e05750015190565b612ef760006040516123cd81611005565b600d6024830152836044830152038160805afa801561051d576020916000916122e05750015190565b612f5e6000604051612f3181611005565b602081526004602082015260405180938192631743358560e31b83526060600484015260648301906102a7565b836024830152836044830152038160805afa801561051d576020916000916122e05750015190565b612f5e600060405161295f81611005565b612f5e6000604051612fa881611005565b602081526002602082015260405180938192631743358560e31b83526060600484015260648301906102a7565b612f5e6000604051612fe681611005565b602081526003602082015260405180938192631743358560e31b83526060600484015260648301906102a7565b612f5e600060405161302481611005565b602081526005602082015260405180938192631743358560e31b83526060600484015260648301906102a7565b60405161305d81611005565b602081526130906000828160208195015260405180938192631743358560e31b83526060600484015260648301906102a7565b836024830152836044830152038160805afa90811561051d5782602093926130ba575b5050015190565b6130ce92503d8091833e611582818361103d565b38806130b3565b9061124d918015611d80578115611d7057613431565b6000916122c36122b49461310761227161226b6122a1966132e3565b60405163616cb4a960e11b81526005600482015260806024820152968795869560848701906102a7565b600061313f613168926132e3565b60405180938192634a5a111760e01b8352600560048401526060602484015260648301906102a7565b60026044830152038160805afa801561051d576020916000916122e05750015190565b60006131996131c2926132e3565b60405180938192634a5a111760e01b8352600260048401526060602484015260648301906102a7565b60056044830152038160805afa801561051d576020916000916122e05750015190565b8015613251575b8115613231575b61195261320461191e6000936132e3565b926122c3604051948593849363eb274b7760e01b85528660048601526060602486015260648501906102a7565b9050600061195261320461191e613246613051565b9493505050506131f3565b5061325a613051565b6131ec565b91907f7fffffffffffffffffffffffffffffff5d576e7357a4501ddfe92f46681b20a084116132d757926020929160ff608095604051948552168484015260408301526060820152600092839182805260015afa1561051d5780516001600160a01b038116156132ce57918190565b50809160019190565b50505060009160039190565b90604051916132f183611005565b602083526020830152565b60ff811690601f8211613320576040519161331683611005565b8252602082015290565b604051632cd44ac360e21b8152600490fd5b9061124d91801561187f57811561186f57613374565b9061124d918015611ba2578115611b92576133f2565b9061124d918015611a8e578115611a7e576133b3565b61195261338561191e6000936132e3565b926122c3604051948593849363248d22cd60e21b8552600260048601526060602486015260648501906102a7565b6119526133c461191e6000936132e3565b926122c36040519485938493631f4cda2f60e01b8552600260048601526060602486015260648501906102a7565b61195261340361191e6000936132e3565b926122c36040519485938493634284f76560e01b8552600260048601526060602486015260648501906102a7565b61195261344261191e6000936132e3565b926122c3604051948593849363650de1cf60e01b8552600260048601526060602486015260648501906102a7565b80156134dc575b81156134bc575b61195261348f61191e6000936132e3565b926122c36040519485938493622df61960e01b8552600260048601526060602486015260648501906102a7565b9050600061195261348f61191e6134d1612799565b94935050505061347e565b506134e5612799565b613477565b8015613556575b8115613536575b61195261350961191e6000936132e3565b926122c3604051948593849363248d22cd60e21b85528660048601526060602486015260648501906102a7565b9050600061195261350961191e61354b613051565b9493505050506134f8565b5061355f613051565b6134f156fea2646970667358221220cbf4927d914b4657dca59748ad734cd10626ef4c51749a8b13d4487d7b6804dd64736f6c63430008180033",
  "linkReferences": {},
  "deployedLinkReferences": {}
}